{"contracts/SubRegistry.sol":{"SubRegistry":{"abi":[{"inputs":[{"internalType":"address","name":"_endpoint","type":"address"},{"internalType":"address","name":"_owner","type":"address"},{"internalType":"uint256","name":"_lzChainId","type":"uint256"},{"internalType":"address","name":"_token","type":"address"}],"stateMutability":"nonpayable","type":"constructor"},{"inputs":[{"internalType":"address","name":"owner","type":"address"}],"name":"OwnableInvalidOwner","type":"error"},{"inputs":[{"internalType":"address","name":"account","type":"address"}],"name":"OwnableUnauthorizedAccount","type":"error"},{"anonymous":false,"inputs":[{"indexed":false,"internalType":"uint16","name":"_srcChainId","type":"uint16"},{"indexed":false,"internalType":"bytes","name":"_srcAddress","type":"bytes"},{"indexed":false,"internalType":"uint64","name":"_nonce","type":"uint64"},{"indexed":false,"internalType":"bytes","name":"_payload","type":"bytes"},{"indexed":false,"internalType":"bytes","name":"_reason","type":"bytes"}],"name":"MessageFailed","type":"event"},{"anonymous":false,"inputs":[{"indexed":true,"internalType":"address","name":"previousOwner","type":"address"},{"indexed":true,"internalType":"address","name":"newOwner","type":"address"}],"name":"OwnershipTransferred","type":"event"},{"anonymous":false,"inputs":[{"indexed":false,"internalType":"bytes32","name":"projectId","type":"bytes32"},{"indexed":false,"internalType":"address","name":"owner","type":"address"},{"indexed":false,"internalType":"uint256","name":"numberOfStage","type":"uint256"}],"name":"ProjectCreated","type":"event"},{"anonymous":false,"inputs":[{"indexed":false,"internalType":"bytes32","name":"projectId","type":"bytes32"},{"indexed":false,"internalType":"address","name":"investor","type":"address"},{"indexed":false,"internalType":"uint256","name":"round","type":"uint256"},{"indexed":false,"internalType":"uint256","name":"amountOfTicket","type":"uint256"}],"name":"ProjectInvested","type":"event"},{"anonymous":false,"inputs":[{"indexed":false,"internalType":"uint16","name":"_srcChainId","type":"uint16"},{"indexed":false,"internalType":"bytes","name":"_srcAddress","type":"bytes"},{"indexed":false,"internalType":"uint64","name":"_nonce","type":"uint64"},{"indexed":false,"internalType":"bytes32","name":"_payloadHash","type":"bytes32"}],"name":"RetryMessageSuccess","type":"event"},{"anonymous":false,"inputs":[{"indexed":false,"internalType":"uint16","name":"_dstChainId","type":"uint16"},{"indexed":false,"internalType":"uint16","name":"_type","type":"uint16"},{"indexed":false,"internalType":"uint256","name":"_minDstGas","type":"uint256"}],"name":"SetMinDstGas","type":"event"},{"anonymous":false,"inputs":[{"indexed":false,"internalType":"address","name":"precrime","type":"address"}],"name":"SetPrecrime","type":"event"},{"anonymous":false,"inputs":[{"indexed":false,"internalType":"uint16","name":"_remoteChainId","type":"uint16"},{"indexed":false,"internalType":"bytes","name":"_path","type":"bytes"}],"name":"SetTrustedRemote","type":"event"},{"anonymous":false,"inputs":[{"indexed":false,"internalType":"uint16","name":"_remoteChainId","type":"uint16"},{"indexed":false,"internalType":"bytes","name":"_remoteAddress","type":"bytes"}],"name":"SetTrustedRemoteAddress","type":"event"},{"inputs":[],"name":"DEFAULT_PAYLOAD_SIZE_LIMIT","outputs":[{"internalType":"uint256","name":"","type":"uint256"}],"stateMutability":"view","type":"function"},{"inputs":[{"internalType":"address","name":"_owner","type":"address"},{"internalType":"address","name":"_tick","type":"address"},{"components":[{"internalType":"uint256","name":"startTime","type":"uint256"},{"internalType":"uint256","name":"endTime","type":"uint256"},{"internalType":"uint256","name":"fundingDemand","type":"uint256"},{"internalType":"uint256","name":"totalTicket","type":"uint256"}],"internalType":"struct SubRegistry.Round[]","name":"_rounds","type":"tuple[]"},{"internalType":"uint256","name":"_changeFee","type":"uint256"}],"name":"createProject","outputs":[],"stateMutability":"payable","type":"function"},{"inputs":[{"internalType":"uint16","name":"","type":"uint16"},{"internalType":"bytes","name":"","type":"bytes"},{"internalType":"uint64","name":"","type":"uint64"}],"name":"failedMessages","outputs":[{"internalType":"bytes32","name":"","type":"bytes32"}],"stateMutability":"view","type":"function"},{"inputs":[{"internalType":"uint16","name":"_srcChainId","type":"uint16"},{"internalType":"bytes","name":"_srcAddress","type":"bytes"}],"name":"forceResumeReceive","outputs":[],"stateMutability":"nonpayable","type":"function"},{"inputs":[{"internalType":"uint16","name":"_version","type":"uint16"},{"internalType":"uint16","name":"_chainId","type":"uint16"},{"internalType":"address","name":"","type":"address"},{"internalType":"uint256","name":"_configType","type":"uint256"}],"name":"getConfig","outputs":[{"internalType":"bytes","name":"","type":"bytes"}],"stateMutability":"view","type":"function"},{"inputs":[{"internalType":"bytes32","name":"_projectId","type":"bytes32"},{"internalType":"uint8","name":"_round","type":"uint8"}],"name":"getInvestingProgress","outputs":[{"internalType":"uint256","name":"","type":"uint256"},{"internalType":"uint256","name":"","type":"uint256"}],"stateMutability":"view","type":"function"},{"inputs":[{"internalType":"bytes32","name":"_projectId","type":"bytes32"},{"internalType":"uint256","name":"_round","type":"uint256"}],"name":"getTicketValue","outputs":[{"internalType":"uint256","name":"","type":"uint256"}],"stateMutability":"view","type":"function"},{"inputs":[{"internalType":"uint16","name":"_remoteChainId","type":"uint16"}],"name":"getTrustedRemoteAddress","outputs":[{"internalType":"bytes","name":"","type":"bytes"}],"stateMutability":"view","type":"function"},{"inputs":[{"internalType":"bytes32","name":"_projectId","type":"bytes32"},{"internalType":"uint8","name":"_round","type":"uint8"},{"internalType":"uint256","name":"_amountOfTicket","type":"uint256"},{"internalType":"uint256","name":"_ticketValue","type":"uint256"}],"name":"investProjectInterchain","outputs":[],"stateMutability":"payable","type":"function"},{"inputs":[{"internalType":"uint16","name":"_srcChainId","type":"uint16"},{"internalType":"bytes","name":"_srcAddress","type":"bytes"}],"name":"isTrustedRemote","outputs":[{"internalType":"bool","name":"","type":"bool"}],"stateMutability":"view","type":"function"},{"inputs":[],"name":"lzChainId","outputs":[{"internalType":"uint256","name":"","type":"uint256"}],"stateMutability":"view","type":"function"},{"inputs":[],"name":"lzEndpoint","outputs":[{"internalType":"contract ILayerZeroEndpoint","name":"","type":"address"}],"stateMutability":"view","type":"function"},{"inputs":[{"internalType":"uint16","name":"_srcChainId","type":"uint16"},{"internalType":"bytes","name":"_srcAddress","type":"bytes"},{"internalType":"uint64","name":"_nonce","type":"uint64"},{"internalType":"bytes","name":"_payload","type":"bytes"}],"name":"lzReceive","outputs":[],"stateMutability":"nonpayable","type":"function"},{"inputs":[{"internalType":"uint16","name":"","type":"uint16"},{"internalType":"uint16","name":"","type":"uint16"}],"name":"minDstGasLookup","outputs":[{"internalType":"uint256","name":"","type":"uint256"}],"stateMutability":"view","type":"function"},{"inputs":[{"internalType":"uint16","name":"_srcChainId","type":"uint16"},{"internalType":"bytes","name":"_srcAddress","type":"bytes"},{"internalType":"uint64","name":"_nonce","type":"uint64"},{"internalType":"bytes","name":"_payload","type":"bytes"}],"name":"nonblockingLzReceive","outputs":[],"stateMutability":"nonpayable","type":"function"},{"inputs":[],"name":"owner","outputs":[{"internalType":"address","name":"","type":"address"}],"stateMutability":"view","type":"function"},{"inputs":[{"internalType":"uint16","name":"","type":"uint16"}],"name":"payloadSizeLimitLookup","outputs":[{"internalType":"uint256","name":"","type":"uint256"}],"stateMutability":"view","type":"function"},{"inputs":[],"name":"precrime","outputs":[{"internalType":"address","name":"","type":"address"}],"stateMutability":"view","type":"function"},{"inputs":[],"name":"renounceOwnership","outputs":[],"stateMutability":"nonpayable","type":"function"},{"inputs":[{"internalType":"uint16","name":"_srcChainId","type":"uint16"},{"internalType":"bytes","name":"_srcAddress","type":"bytes"},{"internalType":"uint64","name":"_nonce","type":"uint64"},{"internalType":"bytes","name":"_payload","type":"bytes"}],"name":"retryMessage","outputs":[],"stateMutability":"payable","type":"function"},{"inputs":[{"internalType":"uint16","name":"_version","type":"uint16"},{"internalType":"uint16","name":"_chainId","type":"uint16"},{"internalType":"uint256","name":"_configType","type":"uint256"},{"internalType":"bytes","name":"_config","type":"bytes"}],"name":"setConfig","outputs":[],"stateMutability":"nonpayable","type":"function"},{"inputs":[{"internalType":"uint16","name":"_dstChainId","type":"uint16"},{"internalType":"uint16","name":"_packetType","type":"uint16"},{"internalType":"uint256","name":"_minGas","type":"uint256"}],"name":"setMinDstGas","outputs":[],"stateMutability":"nonpayable","type":"function"},{"inputs":[{"internalType":"uint16","name":"_dstChainId","type":"uint16"},{"internalType":"uint256","name":"_size","type":"uint256"}],"name":"setPayloadSizeLimit","outputs":[],"stateMutability":"nonpayable","type":"function"},{"inputs":[{"internalType":"address","name":"_precrime","type":"address"}],"name":"setPrecrime","outputs":[],"stateMutability":"nonpayable","type":"function"},{"inputs":[{"internalType":"uint16","name":"_version","type":"uint16"}],"name":"setReceiveVersion","outputs":[],"stateMutability":"nonpayable","type":"function"},{"inputs":[{"internalType":"uint16","name":"_version","type":"uint16"}],"name":"setSendVersion","outputs":[],"stateMutability":"nonpayable","type":"function"},{"inputs":[{"internalType":"address","name":"_token","type":"address"}],"name":"setToken","outputs":[],"stateMutability":"nonpayable","type":"function"},{"inputs":[{"internalType":"uint16","name":"_remoteChainId","type":"uint16"},{"internalType":"bytes","name":"_path","type":"bytes"}],"name":"setTrustedRemote","outputs":[],"stateMutability":"nonpayable","type":"function"},{"inputs":[{"internalType":"uint16","name":"_remoteChainId","type":"uint16"},{"internalType":"bytes","name":"_remoteAddress","type":"bytes"}],"name":"setTrustedRemoteAddress","outputs":[],"stateMutability":"nonpayable","type":"function"},{"inputs":[],"name":"token","outputs":[{"internalType":"contract IERC20","name":"","type":"address"}],"stateMutability":"view","type":"function"},{"inputs":[{"internalType":"address","name":"newOwner","type":"address"}],"name":"transferOwnership","outputs":[],"stateMutability":"nonpayable","type":"function"},{"inputs":[{"internalType":"uint16","name":"","type":"uint16"}],"name":"trustedRemoteLookup","outputs":[{"internalType":"bytes","name":"","type":"bytes"}],"stateMutability":"view","type":"function"},{"inputs":[],"name":"withdraw","outputs":[],"stateMutability":"nonpayable","type":"function"}],"evm":{"bytecode":{"linkReferences":{},"object":"60c06040523480156200001157600080fd5b506040516200304238038062003042833981016040819052620000349162000112565b8380846001600160a01b0381166200006657604051631e4fbdf760e01b81526000600482015260240160405180910390fd5b6200007181620000a5565b506001600160a01b0390811660805260a09390935250600780546001600160a01b0319169190921617905550620001669050565b600080546001600160a01b038381166001600160a01b0319831681178455604051919092169283917f8be0079c531659141344cd1fd0a4f28419497f9722a3daafe3b4186f6b6457e09190a35050565b80516001600160a01b03811681146200010d57600080fd5b919050565b600080600080608085870312156200012957600080fd5b6200013485620000f5565b93506200014460208601620000f5565b9250604085015191506200015b60608601620000f5565b905092959194509250565b60805160a051612e7e620001c4600039600081816104cb0152611dd401526000818161055f015281816106b301528181610932015281816109f301528181610c2f0152818161153a01528181611ae80152611ffc0152612e7e6000f3fe6080604052600436106101fd5760003560e01c80638da5cb5b1161011d578063cbcb86d2116100b0578063eb8d72b71161007f578063f2fde38b11610064578063f2fde38b14610650578063f5ecbdbc14610670578063fc0c546a1461069057600080fd5b8063eb8d72b71461061d578063ef252efc1461063d57600080fd5b8063cbcb86d2146105b7578063cbed8b9c146105ca578063d1deba1f146105ea578063df2a5b3b146105fd57600080fd5b8063a6c3d165116100ec578063a6c3d1651461052d578063b353aaa71461054d578063baf3292d14610581578063c4461834146105a157600080fd5b80638da5cb5b14610487578063917c4156146104b9578063950c8a74146104ed5780639f38369a1461050d57600080fd5b806342d65a8d11610195578063715018a611610164578063715018a6146103ed5780637533d788146104025780637edc1b5a1461042f5780638cfd8f5c1461044f57600080fd5b806342d65a8d146103295780635b8c41e61461034957806366ad5c8a146103985780636ff0a2d1146103b857600080fd5b8063144fa6d7116101d1578063144fa6d7146102845780633ccfd60b146102a45780633d8b38f6146102b95780633f1f4fa4146102ee57600080fd5b80621d35671461020257806307e0db17146102245780630df374831461024457806310ddb13714610264575b600080fd5b34801561020e57600080fd5b5061022261021d36600461228f565b6106b0565b005b34801561023057600080fd5b5061022261023f366004612323565b6108f8565b34801561025057600080fd5b5061022261025f36600461233e565b61099a565b34801561027057600080fd5b5061022261027f366004612323565b6109b9565b34801561029057600080fd5b5061022261029f36600461237f565b610a2a565b3480156102b057600080fd5b50610222610a61565b3480156102c557600080fd5b506102d96102d436600461239a565b610b2b565b60405190151581526020015b60405180910390f35b3480156102fa57600080fd5b5061031b610309366004612323565b60036020526000908152604090205481565b6040519081526020016102e5565b34801561033557600080fd5b5061022261034436600461239a565b610bf7565b34801561035557600080fd5b5061031b610364366004612485565b6005602090815260009384526040808520845180860184018051928152908401958401959095209452929052825290205481565b3480156103a457600080fd5b506102226103b336600461228f565b610c96565b3480156103c457600080fd5b506103d86103d3366004612537565b610d89565b604080519283526020830191909152016102e5565b3480156103f957600080fd5b50610222610fdc565b34801561040e57600080fd5b5061042261041d366004612323565b610ff0565b6040516102e591906125b3565b34801561043b57600080fd5b5061031b61044a3660046125c6565b61108a565b34801561045b57600080fd5b5061031b61046a3660046125e8565b600260209081526000928352604080842090915290825290205481565b34801561049357600080fd5b506000546001600160a01b03165b6040516001600160a01b0390911681526020016102e5565b3480156104c557600080fd5b5061031b7f000000000000000000000000000000000000000000000000000000000000000081565b3480156104f957600080fd5b506004546104a1906001600160a01b031681565b34801561051957600080fd5b50610422610528366004612323565b6112e0565b34801561053957600080fd5b5061022261054836600461239a565b6113f6565b34801561055957600080fd5b506104a17f000000000000000000000000000000000000000000000000000000000000000081565b34801561058d57600080fd5b5061022261059c36600461237f565b61147f565b3480156105ad57600080fd5b5061031b61271081565b6102226105c5366004612612565b6114e8565b3480156105d657600080fd5b506102226105e536600461271b565b611502565b6102226105f836600461228f565b6115b0565b34801561060957600080fd5b5061022261061836600461278a565b6117fe565b34801561062957600080fd5b5061022261063836600461239a565b611868565b61022261064b3660046127c6565b6118c2565b34801561065c57600080fd5b5061022261066b36600461237f565b611a4a565b34801561067c57600080fd5b5061042261068b366004612801565b611a9e565b34801561069c57600080fd5b506007546104a1906001600160a01b031681565b337f00000000000000000000000000000000000000000000000000000000000000006001600160a01b03161461072d5760405162461bcd60e51b815260206004820152601e60248201527f4c7a4170703a20696e76616c696420656e64706f696e742063616c6c6572000060448201526064015b60405180910390fd5b61ffff86166000908152600160205260408120805461074b9061284c565b80601f01602080910402602001604051908101604052809291908181526020018280546107779061284c565b80156107c45780601f10610799576101008083540402835291602001916107c4565b820191906000526020600020905b8154815290600101906020018083116107a757829003601f168201915b505050505090508051868690501480156107df575060008151115b80156108075750805160208201206040516107fd9088908890612886565b6040518091039020145b6108795760405162461bcd60e51b815260206004820152602660248201527f4c7a4170703a20696e76616c696420736f757263652073656e64696e6720636f60448201527f6e747261637400000000000000000000000000000000000000000000000000006064820152608401610724565b6108ef8787878080601f01602080910402602001604051908101604052809392919081815260200183838082843760009201919091525050604080516020601f8a018190048102820181019092528881528a935091508890889081908401838280828437600092019190915250611b5f92505050565b50505050505050565b610900611c05565b6040517f07e0db1700000000000000000000000000000000000000000000000000000000815261ffff821660048201527f00000000000000000000000000000000000000000000000000000000000000006001600160a01b0316906307e0db17906024015b600060405180830381600087803b15801561097f57600080fd5b505af1158015610993573d6000803e3d6000fd5b5050505050565b6109a2611c05565b61ffff909116600090815260036020526040902055565b6109c1611c05565b6040517f10ddb13700000000000000000000000000000000000000000000000000000000815261ffff821660048201527f00000000000000000000000000000000000000000000000000000000000000006001600160a01b0316906310ddb13790602401610965565b610a32611c05565b6007805473ffffffffffffffffffffffffffffffffffffffff19166001600160a01b0392909216919091179055565b610a69611c05565b6000546001600160a01b03166007546040517f70a082310000000000000000000000000000000000000000000000000000000081523060048201526001600160a01b03928316926108fc9216906370a0823190602401602060405180830381865afa158015610adc573d6000803e3d6000fd5b505050506040513d601f19601f82011682018060405250810190610b009190612896565b6040518115909202916000818181858888f19350505050158015610b28573d6000803e3d6000fd5b50565b61ffff831660009081526001602052604081208054829190610b4c9061284c565b80601f0160208091040260200160405190810160405280929190818152602001828054610b789061284c565b8015610bc55780601f10610b9a57610100808354040283529160200191610bc5565b820191906000526020600020905b815481529060010190602001808311610ba857829003601f168201915b505050505090508383604051610bdc929190612886565b60405180910390208180519060200120149150509392505050565b610bff611c05565b6040517f42d65a8d0000000000000000000000000000000000000000000000000000000081526001600160a01b037f000000000000000000000000000000000000000000000000000000000000000016906342d65a8d90610c68908690869086906004016128d8565b600060405180830381600087803b158015610c8257600080fd5b505af11580156108ef573d6000803e3d6000fd5b333014610d0b5760405162461bcd60e51b815260206004820152602660248201527f4e6f6e626c6f636b696e674c7a4170703a2063616c6c6572206d75737420626560448201527f204c7a41707000000000000000000000000000000000000000000000000000006064820152608401610724565b610d818686868080601f01602080910402602001604051908101604052809392919081815260200183838082843760009201919091525050604080516020601f8901819004810282018101909252878152899350915087908790819084018382808284376000920191909152506114fc92505050565b505050505050565b6000828152600860205260408120600101548190849060ff8516906001600160a01b0316610df95760405162461bcd60e51b815260206004820152601160248201527f496e76616c69642070726f6a65637449640000000000000000000000000000006044820152606401610724565b6000828152600860205260409020600201548110610e595760405162461bcd60e51b815260206004820152601260248201527f496e76616c696420726f756e64496e64657800000000000000000000000000006044820152606401610724565b6000828152600860205260409020600201805442919083908110610e7f57610e7f6128f6565b90600052602060002090600402016000015410610ede5760405162461bcd60e51b815260206004820152601d60248201527f526f756e64206e6f74206f70656e20666f7220696e76657374207965740000006044820152606401610724565b6000828152600860205260409020600201805442919083908110610f0457610f046128f6565b90600052602060002090600402016001015411610f635760405162461bcd60e51b815260206004820152600f60248201527f526f756e642068617320656e64656400000000000000000000000000000000006044820152606401610724565b610f70868660ff1661108a565b600087815260096020908152604080832060ff8a168452909152902054610f979190612922565b6000878152600860205260409020600201805460ff8816908110610fbd57610fbd6128f6565b9060005260206000209060040201600201549350935050509250929050565b610fe4611c05565b610fee6000611c4b565b565b600160205260009081526040902080546110099061284c565b80601f01602080910402602001604051908101604052809291908181526020018280546110359061284c565b80156110825780601f1061105757610100808354040283529160200191611082565b820191906000526020600020905b81548152906001019060200180831161106557829003601f168201915b505050505081565b600082815260086020526040812060010154839083906001600160a01b03166110f55760405162461bcd60e51b815260206004820152601160248201527f496e76616c69642070726f6a65637449640000000000000000000000000000006044820152606401610724565b60008281526008602052604090206002015481106111555760405162461bcd60e51b815260206004820152601260248201527f496e76616c696420726f756e64496e64657800000000000000000000000000006044820152606401610724565b600082815260086020526040902060020180544291908390811061117b5761117b6128f6565b906000526020600020906004020160000154106111da5760405162461bcd60e51b815260206004820152601d60248201527f526f756e64206e6f74206f70656e20666f7220696e76657374207965740000006044820152606401610724565b6000828152600860205260409020600201805442919083908110611200576112006128f6565b9060005260206000209060040201600101541161125f5760405162461bcd60e51b815260206004820152600f60248201527f526f756e642068617320656e64656400000000000000000000000000000000006044820152606401610724565b6000858152600860205260409020600201805485908110611282576112826128f6565b9060005260206000209060040201600301546008600087815260200190815260200160002060020185815481106112bb576112bb6128f6565b9060005260206000209060040201600201546112d7919061293f565b95945050505050565b61ffff81166000908152600160205260408120805460609291906113039061284c565b80601f016020809104026020016040519081016040528092919081815260200182805461132f9061284c565b801561137c5780601f106113515761010080835404028352916020019161137c565b820191906000526020600020905b81548152906001019060200180831161135f57829003601f168201915b5050505050905080516000036113d45760405162461bcd60e51b815260206004820152601d60248201527f4c7a4170703a206e6f20747275737465642070617468207265636f72640000006044820152606401610724565b6113ef6000601483516113e79190612961565b839190611ca8565b9392505050565b6113fe611c05565b81813060405160200161141393929190612974565b60408051601f1981840301815291815261ffff851660009081526001602052209061143e90826129f3565b507f8c0400cfe2d1199b1a725c78960bcc2a344d869b80590d0f2bd005db15a572ce838383604051611472939291906128d8565b60405180910390a1505050565b611487611c05565b6004805473ffffffffffffffffffffffffffffffffffffffff19166001600160a01b0383169081179091556040519081527f5db758e995a17ec1ad84bdef7e8c3293a0bd6179bcce400dff5d4c3d87db726b9060200160405180910390a150565b6114f0611c05565b6114fc84848484611dd0565b50505050565b61150a611c05565b6040517fcbed8b9c0000000000000000000000000000000000000000000000000000000081526001600160a01b037f0000000000000000000000000000000000000000000000000000000000000000169063cbed8b9c906115779088908890889088908890600401612ab3565b600060405180830381600087803b15801561159157600080fd5b505af11580156115a5573d6000803e3d6000fd5b505050505050505050565b61ffff861660009081526005602052604080822090516115d39088908890612886565b908152604080516020928190038301902067ffffffffffffffff87166000908152925290205490508061166e5760405162461bcd60e51b815260206004820152602360248201527f4e6f6e626c6f636b696e674c7a4170703a206e6f2073746f726564206d65737360448201527f61676500000000000000000000000000000000000000000000000000000000006064820152608401610724565b80838360405161167f929190612886565b6040518091039020146116fa5760405162461bcd60e51b815260206004820152602160248201527f4e6f6e626c6f636b696e674c7a4170703a20696e76616c6964207061796c6f6160448201527f64000000000000000000000000000000000000000000000000000000000000006064820152608401610724565b61ffff8716600090815260056020526040808220905161171d9089908990612886565b908152604080516020928190038301812067ffffffffffffffff8916600090815290845282902093909355601f880182900482028301820190528682526117b6918991899089908190840183828082843760009201919091525050604080516020601f8a018190048102820181019092528881528a9350915088908890819084018382808284376000920191909152506114fc92505050565b7fc264d91f3adc5588250e1551f547752ca0cfa8f6b530d243b9f9f4cab10ea8e587878787856040516117ed959493929190612aec565b60405180910390a150505050505050565b611806611c05565b61ffff83811660008181526002602090815260408083209487168084529482529182902085905581519283528201929092529081018290527f9d5c7c0b934da8fefa9c7760c98383778a12dfbfc0c3b3106518f43fb9508ac090606001611472565b611870611c05565b61ffff8316600090815260016020526040902061188e828483612b28565b507ffa41487ad5d6728f0b19276fa1eddc16558578f5109fc39d2dc33c3230470dab838383604051611472939291906128d8565b60006118ce8284612922565b6007546040517f23b872dd000000000000000000000000000000000000000000000000000000008152336004820152306024820152604481018390529192506001600160a01b0316906323b872dd906064016020604051808303816000875af115801561193f573d6000803e3d6000fd5b505050506040513d601f19601f820116820180604052508101906119639190612be8565b6119af5760405162461bcd60e51b815260206004820152601560248201527f5472616e7366657220746f6b656e206661696c656400000000000000000000006044820152606401610724565b604080516001602082015233918101919091526060810186905260ff8516608082015260a0810184905260c08101839052610993906127899060e0015b60408051601f19818403018152908290527e010000000000000000000000000000000000000000000000000000000000006020830152631dcd6500602283015290339060009060420160405160208183030381529060405234611eac565b611a52611c05565b6001600160a01b038116611a95576040517f1e4fbdf700000000000000000000000000000000000000000000000000000000815260006004820152602401610724565b610b2881611c4b565b6040517ff5ecbdbc00000000000000000000000000000000000000000000000000000000815261ffff808616600483015284166024820152306044820152606481018290526060907f00000000000000000000000000000000000000000000000000000000000000006001600160a01b03169063f5ecbdbc90608401600060405180830381865afa158015611b37573d6000803e3d6000fd5b505050506040513d6000823e601f3d908101601f191682016040526112d79190810190612c0a565b600080611bef5a60966366ad5c8a60e01b89898989604051602401611b879493929190612c78565b60408051601f198184030181529190526020810180517bffffffffffffffffffffffffffffffffffffffffffffffffffffffff167fffffffff000000000000000000000000000000000000000000000000000000009093169290921790915230929190612078565b9150915081610d8157610d818686868685612103565b6000546001600160a01b03163314610fee576040517f118cdaa7000000000000000000000000000000000000000000000000000000008152336004820152602401610724565b600080546001600160a01b0383811673ffffffffffffffffffffffffffffffffffffffff19831681178455604051919092169283917f8be0079c531659141344cd1fd0a4f28419497f9722a3daafe3b4186f6b6457e09190a35050565b606081611cb681601f612cb7565b1015611d045760405162461bcd60e51b815260206004820152600e60248201527f736c6963655f6f766572666c6f770000000000000000000000000000000000006044820152606401610724565b611d0e8284612cb7565b84511015611d5e5760405162461bcd60e51b815260206004820152601160248201527f736c6963655f6f75744f66426f756e64730000000000000000000000000000006044820152606401610724565b606082158015611d7d5760405191506000825260208201604052611dc7565b6040519150601f8416801560200281840101858101878315602002848b0101015b81831015611db6578051835260209283019201611d9e565b5050858452601f01601f1916604052505b50949350505050565b60007f0000000000000000000000000000000000000000000000000000000000000000600654604051602001611e10929190918252602082015260400190565b604051602081830303815290604052805190602001209050600160066000828254611e3b9190612cb7565b90915550508251604080518381526001600160a01b038816602082015280820192909252517f0180774375ef39389cb651d758650eb357746210f60ee333a675d3b6c4343b259181900360600190a1610993612789600083888888886040516020016119ec96959493929190612cca565b61ffff861660009081526001602052604081208054611eca9061284c565b80601f0160208091040260200160405190810160405280929190818152602001828054611ef69061284c565b8015611f435780601f10611f1857610100808354040283529160200191611f43565b820191906000526020600020905b815481529060010190602001808311611f2657829003601f168201915b505050505090508051600003611fc15760405162461bcd60e51b815260206004820152603060248201527f4c7a4170703a2064657374696e6174696f6e20636861696e206973206e6f742060448201527f61207472757374656420736f75726365000000000000000000000000000000006064820152608401610724565b611fcc8787516121a1565b6040517fc58031000000000000000000000000000000000000000000000000000000000081526001600160a01b037f0000000000000000000000000000000000000000000000000000000000000000169063c580310090849061203d908b9086908c908c908c908c90600401612d66565b6000604051808303818588803b15801561205657600080fd5b505af115801561206a573d6000803e3d6000fd5b505050505050505050505050565b6000606060008060008661ffff1667ffffffffffffffff81111561209e5761209e6123ed565b6040519080825280601f01601f1916602001820160405280156120c8576020820181803683370190505b50905060008087516020890160008d8df191503d9250868311156120ea578692505b828152826000602083013e909890975095505050505050565b8180519060200120600560008761ffff1661ffff168152602001908152602001600020856040516121349190612dcd565b90815260408051918290036020908101832067ffffffffffffffff88166000908152915220919091557fe183f33de2837795525b4792ca4cd60535bd77c53b7e7030060bfcf5734d6b0c906121929087908790879087908790612de9565b60405180910390a15050505050565b61ffff8216600090815260036020526040812054908190036121c257506127105b808211156122125760405162461bcd60e51b815260206004820181905260248201527f4c7a4170703a207061796c6f61642073697a6520697320746f6f206c617267656044820152606401610724565b505050565b803561ffff8116811461222957600080fd5b919050565b60008083601f84011261224057600080fd5b50813567ffffffffffffffff81111561225857600080fd5b60208301915083602082850101111561227057600080fd5b9250929050565b803567ffffffffffffffff8116811461222957600080fd5b600080600080600080608087890312156122a857600080fd5b6122b187612217565b9550602087013567ffffffffffffffff808211156122ce57600080fd5b6122da8a838b0161222e565b90975095508591506122ee60408a01612277565b9450606089013591508082111561230457600080fd5b5061231189828a0161222e565b979a9699509497509295939492505050565b60006020828403121561233557600080fd5b6113ef82612217565b6000806040838503121561235157600080fd5b61235a83612217565b946020939093013593505050565b80356001600160a01b038116811461222957600080fd5b60006020828403121561239157600080fd5b6113ef82612368565b6000806000604084860312156123af57600080fd5b6123b884612217565b9250602084013567ffffffffffffffff8111156123d457600080fd5b6123e08682870161222e565b9497909650939450505050565b634e487b7160e01b600052604160045260246000fd5b6040516080810167ffffffffffffffff81118282101715612426576124266123ed565b60405290565b604051601f8201601f1916810167ffffffffffffffff81118282101715612455576124556123ed565b604052919050565b600067ffffffffffffffff821115612477576124776123ed565b50601f01601f191660200190565b60008060006060848603121561249a57600080fd5b6124a384612217565b9250602084013567ffffffffffffffff8111156124bf57600080fd5b8401601f810186136124d057600080fd5b80356124e36124de8261245d565b61242c565b8181528760208385010111156124f857600080fd5b8160208401602083013760006020838301015280945050505061251d60408501612277565b90509250925092565b803560ff8116811461222957600080fd5b6000806040838503121561254a57600080fd5b8235915061255a60208401612526565b90509250929050565b60005b8381101561257e578181015183820152602001612566565b50506000910152565b6000815180845261259f816020860160208601612563565b601f01601f19169290920160200192915050565b6020815260006113ef6020830184612587565b600080604083850312156125d957600080fd5b50508035926020909101359150565b600080604083850312156125fb57600080fd5b61260483612217565b915061255a60208401612217565b600080600080608080868803121561262957600080fd5b61263286612368565b94506020612641818801612368565b945060408088013567ffffffffffffffff8082111561265f57600080fd5b818a0191508a601f83011261267357600080fd5b813581811115612685576126856123ed565b612693858260051b0161242c565b818152858101925060079190911b83018501908c8211156126b357600080fd5b928501925b818410156127055786848e0312156126d05760008081fd5b6126d8612403565b843581528685013587820152858501358682015260608086013590820152835292860192918501916126b8565b999c989b50989960600135985050505050505050565b60008060008060006080868803121561273357600080fd5b61273c86612217565b945061274a60208701612217565b935060408601359250606086013567ffffffffffffffff81111561276d57600080fd5b6127798882890161222e565b969995985093965092949392505050565b60008060006060848603121561279f57600080fd5b6127a884612217565b92506127b660208501612217565b9150604084013590509250925092565b600080600080608085870312156127dc57600080fd5b843593506127ec60208601612526565b93969395505050506040820135916060013590565b6000806000806080858703121561281757600080fd5b61282085612217565b935061282e60208601612217565b925061283c60408601612368565b9396929550929360600135925050565b600181811c9082168061286057607f821691505b60208210810361288057634e487b7160e01b600052602260045260246000fd5b50919050565b8183823760009101908152919050565b6000602082840312156128a857600080fd5b5051919050565b81835281816020850137506000828201602090810191909152601f909101601f19169091010190565b61ffff841681526040602082015260006112d76040830184866128af565b634e487b7160e01b600052603260045260246000fd5b634e487b7160e01b600052601160045260246000fd5b80820281158282048414176129395761293961290c565b92915050565b60008261295c57634e487b7160e01b600052601260045260246000fd5b500490565b818103818111156129395761293961290c565b8284823760609190911b7fffffffffffffffffffffffffffffffffffffffff000000000000000000000000169101908152601401919050565b601f82111561221257600081815260208120601f850160051c810160208610156129d45750805b601f850160051c820191505b81811015610d81578281556001016129e0565b815167ffffffffffffffff811115612a0d57612a0d6123ed565b612a2181612a1b845461284c565b846129ad565b602080601f831160018114612a565760008415612a3e5750858301515b600019600386901b1c1916600185901b178555610d81565b600085815260208120601f198616915b82811015612a8557888601518255948401946001909101908401612a66565b5085821015612aa35787850151600019600388901b60f8161c191681555b5050505050600190811b01905550565b600061ffff808816835280871660208401525084604083015260806060830152612ae16080830184866128af565b979650505050505050565b61ffff86168152608060208201526000612b0a6080830186886128af565b67ffffffffffffffff94909416604083015250606001529392505050565b67ffffffffffffffff831115612b4057612b406123ed565b612b5483612b4e835461284c565b836129ad565b6000601f841160018114612b885760008515612b705750838201355b600019600387901b1c1916600186901b178355610993565b600083815260209020601f19861690835b82811015612bb95786850135825560209485019460019092019101612b99565b5086821015612bd65760001960f88860031b161c19848701351681555b505060018560011b0183555050505050565b600060208284031215612bfa57600080fd5b815180151581146113ef57600080fd5b600060208284031215612c1c57600080fd5b815167ffffffffffffffff811115612c3357600080fd5b8201601f81018413612c4457600080fd5b8051612c526124de8261245d565b818152856020838501011115612c6757600080fd5b6112d7826020830160208601612563565b61ffff85168152608060208201526000612c956080830186612587565b67ffffffffffffffff851660408401528281036060840152612ae18185612587565b808201808211156129395761293961290c565b600060c0820160ff891683526020888185015260406001600160a01b03808a16828701526060818a16818801526080915060c08288015284895180875260e089019150858b01965060005b81811015612d4a5787518051845287810151888501528681015187850152840151848401529686019691840191600101612d15565b50508096505050505050508260a0830152979650505050505050565b61ffff8716815260c060208201526000612d8360c0830188612587565b8281036040840152612d958188612587565b6001600160a01b0387811660608601528616608085015283810360a08501529050612dc08185612587565b9998505050505050505050565b60008251612ddf818460208701612563565b9190910192915050565b61ffff8616815260a060208201526000612e0660a0830187612587565b67ffffffffffffffff861660408401528281036060840152612e288186612587565b90508281036080840152612e3c8185612587565b9897505050505050505056fea26469706673582212201c0a61ba8c921ca0c9cdfcf3dd1661efaca912facd573aaf313eafd7d759a10664736f6c63430008140033","opcodes":"PUSH1 0xC0 PUSH1 0x40 MSTORE CALLVALUE DUP1 ISZERO PUSH3 0x11 JUMPI PUSH1 0x0 DUP1 REVERT JUMPDEST POP PUSH1 0x40 MLOAD PUSH3 0x3042 CODESIZE SUB DUP1 PUSH3 0x3042 DUP4 CODECOPY DUP2 ADD PUSH1 0x40 DUP2 SWAP1 MSTORE PUSH3 0x34 SWAP2 PUSH3 0x112 JUMP JUMPDEST DUP4 DUP1 DUP5 PUSH1 0x1 PUSH1 0x1 PUSH1 0xA0 SHL SUB DUP2 AND PUSH3 0x66 JUMPI PUSH1 0x40 MLOAD PUSH4 0x1E4FBDF7 PUSH1 0xE0 SHL DUP2 MSTORE PUSH1 0x0 PUSH1 0x4 DUP3 ADD MSTORE PUSH1 0x24 ADD PUSH1 0x40 MLOAD DUP1 SWAP2 SUB SWAP1 REVERT JUMPDEST PUSH3 0x71 DUP2 PUSH3 0xA5 JUMP JUMPDEST POP PUSH1 0x1 PUSH1 0x1 PUSH1 0xA0 SHL SUB SWAP1 DUP2 AND PUSH1 0x80 MSTORE PUSH1 0xA0 SWAP4 SWAP1 SWAP4 MSTORE POP PUSH1 0x7 DUP1 SLOAD PUSH1 0x1 PUSH1 0x1 PUSH1 0xA0 SHL SUB NOT AND SWAP2 SWAP1 SWAP3 AND OR SWAP1 SSTORE POP PUSH3 0x166 SWAP1 POP JUMP JUMPDEST PUSH1 0x0 DUP1 SLOAD PUSH1 0x1 PUSH1 0x1 PUSH1 0xA0 SHL SUB DUP4 DUP2 AND PUSH1 0x1 PUSH1 0x1 PUSH1 0xA0 SHL SUB NOT DUP4 AND DUP2 OR DUP5 SSTORE PUSH1 0x40 MLOAD SWAP2 SWAP1 SWAP3 AND SWAP3 DUP4 SWAP2 PUSH32 0x8BE0079C531659141344CD1FD0A4F28419497F9722A3DAAFE3B4186F6B6457E0 SWAP2 SWAP1 LOG3 POP POP JUMP JUMPDEST DUP1 MLOAD PUSH1 0x1 PUSH1 0x1 PUSH1 0xA0 SHL SUB DUP2 AND DUP2 EQ PUSH3 0x10D JUMPI PUSH1 0x0 DUP1 REVERT JUMPDEST SWAP2 SWAP1 POP JUMP JUMPDEST PUSH1 0x0 DUP1 PUSH1 0x0 DUP1 PUSH1 0x80 DUP6 DUP8 SUB SLT ISZERO PUSH3 0x129 JUMPI PUSH1 0x0 DUP1 REVERT JUMPDEST PUSH3 0x134 DUP6 PUSH3 0xF5 JUMP JUMPDEST SWAP4 POP PUSH3 0x144 PUSH1 0x20 DUP7 ADD PUSH3 0xF5 JUMP JUMPDEST SWAP3 POP PUSH1 0x40 DUP6 ADD MLOAD SWAP2 POP PUSH3 0x15B PUSH1 0x60 DUP7 ADD PUSH3 0xF5 JUMP JUMPDEST SWAP1 POP SWAP3 SWAP6 SWAP2 SWAP5 POP SWAP3 POP JUMP JUMPDEST PUSH1 0x80 MLOAD PUSH1 0xA0 MLOAD PUSH2 0x2E7E PUSH3 0x1C4 PUSH1 0x0 CODECOPY PUSH1 0x0 DUP2 DUP2 PUSH2 0x4CB ADD MSTORE PUSH2 0x1DD4 ADD MSTORE PUSH1 0x0 DUP2 DUP2 PUSH2 0x55F ADD MSTORE DUP2 DUP2 PUSH2 0x6B3 ADD MSTORE DUP2 DUP2 PUSH2 0x932 ADD MSTORE DUP2 DUP2 PUSH2 0x9F3 ADD MSTORE DUP2 DUP2 PUSH2 0xC2F ADD MSTORE DUP2 DUP2 PUSH2 0x153A ADD MSTORE DUP2 DUP2 PUSH2 0x1AE8 ADD MSTORE PUSH2 0x1FFC ADD MSTORE PUSH2 0x2E7E PUSH1 0x0 RETURN INVALID PUSH1 0x80 PUSH1 0x40 MSTORE PUSH1 0x4 CALLDATASIZE LT PUSH2 0x1FD JUMPI PUSH1 0x0 CALLDATALOAD PUSH1 0xE0 SHR DUP1 PUSH4 0x8DA5CB5B GT PUSH2 0x11D JUMPI DUP1 PUSH4 0xCBCB86D2 GT PUSH2 0xB0 JUMPI DUP1 PUSH4 0xEB8D72B7 GT PUSH2 0x7F JUMPI DUP1 PUSH4 0xF2FDE38B GT PUSH2 0x64 JUMPI DUP1 PUSH4 0xF2FDE38B EQ PUSH2 0x650 JUMPI DUP1 PUSH4 0xF5ECBDBC EQ PUSH2 0x670 JUMPI DUP1 PUSH4 0xFC0C546A EQ PUSH2 0x690 JUMPI PUSH1 0x0 DUP1 REVERT JUMPDEST DUP1 PUSH4 0xEB8D72B7 EQ PUSH2 0x61D JUMPI DUP1 PUSH4 0xEF252EFC EQ PUSH2 0x63D JUMPI PUSH1 0x0 DUP1 REVERT JUMPDEST DUP1 PUSH4 0xCBCB86D2 EQ PUSH2 0x5B7 JUMPI DUP1 PUSH4 0xCBED8B9C EQ PUSH2 0x5CA JUMPI DUP1 PUSH4 0xD1DEBA1F EQ PUSH2 0x5EA JUMPI DUP1 PUSH4 0xDF2A5B3B EQ PUSH2 0x5FD JUMPI PUSH1 0x0 DUP1 REVERT JUMPDEST DUP1 PUSH4 0xA6C3D165 GT PUSH2 0xEC JUMPI DUP1 PUSH4 0xA6C3D165 EQ PUSH2 0x52D JUMPI DUP1 PUSH4 0xB353AAA7 EQ PUSH2 0x54D JUMPI DUP1 PUSH4 0xBAF3292D EQ PUSH2 0x581 JUMPI DUP1 PUSH4 0xC4461834 EQ PUSH2 0x5A1 JUMPI PUSH1 0x0 DUP1 REVERT JUMPDEST DUP1 PUSH4 0x8DA5CB5B EQ PUSH2 0x487 JUMPI DUP1 PUSH4 0x917C4156 EQ PUSH2 0x4B9 JUMPI DUP1 PUSH4 0x950C8A74 EQ PUSH2 0x4ED JUMPI DUP1 PUSH4 0x9F38369A EQ PUSH2 0x50D JUMPI PUSH1 0x0 DUP1 REVERT JUMPDEST DUP1 PUSH4 0x42D65A8D GT PUSH2 0x195 JUMPI DUP1 PUSH4 0x715018A6 GT PUSH2 0x164 JUMPI DUP1 PUSH4 0x715018A6 EQ PUSH2 0x3ED JUMPI DUP1 PUSH4 0x7533D788 EQ PUSH2 0x402 JUMPI DUP1 PUSH4 0x7EDC1B5A EQ PUSH2 0x42F JUMPI DUP1 PUSH4 0x8CFD8F5C EQ PUSH2 0x44F JUMPI PUSH1 0x0 DUP1 REVERT JUMPDEST DUP1 PUSH4 0x42D65A8D EQ PUSH2 0x329 JUMPI DUP1 PUSH4 0x5B8C41E6 EQ PUSH2 0x349 JUMPI DUP1 PUSH4 0x66AD5C8A EQ PUSH2 0x398 JUMPI DUP1 PUSH4 0x6FF0A2D1 EQ PUSH2 0x3B8 JUMPI PUSH1 0x0 DUP1 REVERT JUMPDEST DUP1 PUSH4 0x144FA6D7 GT PUSH2 0x1D1 JUMPI DUP1 PUSH4 0x144FA6D7 EQ PUSH2 0x284 JUMPI DUP1 PUSH4 0x3CCFD60B EQ PUSH2 0x2A4 JUMPI DUP1 PUSH4 0x3D8B38F6 EQ PUSH2 0x2B9 JUMPI DUP1 PUSH4 0x3F1F4FA4 EQ PUSH2 0x2EE JUMPI PUSH1 0x0 DUP1 REVERT JUMPDEST DUP1 PUSH3 0x1D3567 EQ PUSH2 0x202 JUMPI DUP1 PUSH4 0x7E0DB17 EQ PUSH2 0x224 JUMPI DUP1 PUSH4 0xDF37483 EQ PUSH2 0x244 JUMPI DUP1 PUSH4 0x10DDB137 EQ PUSH2 0x264 JUMPI JUMPDEST PUSH1 0x0 DUP1 REVERT JUMPDEST CALLVALUE DUP1 ISZERO PUSH2 0x20E JUMPI PUSH1 0x0 DUP1 REVERT JUMPDEST POP PUSH2 0x222 PUSH2 0x21D CALLDATASIZE PUSH1 0x4 PUSH2 0x228F JUMP JUMPDEST PUSH2 0x6B0 JUMP JUMPDEST STOP JUMPDEST CALLVALUE DUP1 ISZERO PUSH2 0x230 JUMPI PUSH1 0x0 DUP1 REVERT JUMPDEST POP PUSH2 0x222 PUSH2 0x23F CALLDATASIZE PUSH1 0x4 PUSH2 0x2323 JUMP JUMPDEST PUSH2 0x8F8 JUMP JUMPDEST CALLVALUE DUP1 ISZERO PUSH2 0x250 JUMPI PUSH1 0x0 DUP1 REVERT JUMPDEST POP PUSH2 0x222 PUSH2 0x25F CALLDATASIZE PUSH1 0x4 PUSH2 0x233E JUMP JUMPDEST PUSH2 0x99A JUMP JUMPDEST CALLVALUE DUP1 ISZERO PUSH2 0x270 JUMPI PUSH1 0x0 DUP1 REVERT JUMPDEST POP PUSH2 0x222 PUSH2 0x27F CALLDATASIZE PUSH1 0x4 PUSH2 0x2323 JUMP JUMPDEST PUSH2 0x9B9 JUMP JUMPDEST CALLVALUE DUP1 ISZERO PUSH2 0x290 JUMPI PUSH1 0x0 DUP1 REVERT JUMPDEST POP PUSH2 0x222 PUSH2 0x29F CALLDATASIZE PUSH1 0x4 PUSH2 0x237F JUMP JUMPDEST PUSH2 0xA2A JUMP JUMPDEST CALLVALUE DUP1 ISZERO PUSH2 0x2B0 JUMPI PUSH1 0x0 DUP1 REVERT JUMPDEST POP PUSH2 0x222 PUSH2 0xA61 JUMP JUMPDEST CALLVALUE DUP1 ISZERO PUSH2 0x2C5 JUMPI PUSH1 0x0 DUP1 REVERT JUMPDEST POP PUSH2 0x2D9 PUSH2 0x2D4 CALLDATASIZE PUSH1 0x4 PUSH2 0x239A JUMP JUMPDEST PUSH2 0xB2B JUMP JUMPDEST PUSH1 0x40 MLOAD SWAP1 ISZERO ISZERO DUP2 MSTORE PUSH1 0x20 ADD JUMPDEST PUSH1 0x40 MLOAD DUP1 SWAP2 SUB SWAP1 RETURN JUMPDEST CALLVALUE DUP1 ISZERO PUSH2 0x2FA JUMPI PUSH1 0x0 DUP1 REVERT JUMPDEST POP PUSH2 0x31B PUSH2 0x309 CALLDATASIZE PUSH1 0x4 PUSH2 0x2323 JUMP JUMPDEST PUSH1 0x3 PUSH1 0x20 MSTORE PUSH1 0x0 SWAP1 DUP2 MSTORE PUSH1 0x40 SWAP1 KECCAK256 SLOAD DUP2 JUMP JUMPDEST PUSH1 0x40 MLOAD SWAP1 DUP2 MSTORE PUSH1 0x20 ADD PUSH2 0x2E5 JUMP JUMPDEST CALLVALUE DUP1 ISZERO PUSH2 0x335 JUMPI PUSH1 0x0 DUP1 REVERT JUMPDEST POP PUSH2 0x222 PUSH2 0x344 CALLDATASIZE PUSH1 0x4 PUSH2 0x239A JUMP JUMPDEST PUSH2 0xBF7 JUMP JUMPDEST CALLVALUE DUP1 ISZERO PUSH2 0x355 JUMPI PUSH1 0x0 DUP1 REVERT JUMPDEST POP PUSH2 0x31B PUSH2 0x364 CALLDATASIZE PUSH1 0x4 PUSH2 0x2485 JUMP JUMPDEST PUSH1 0x5 PUSH1 0x20 SWAP1 DUP2 MSTORE PUSH1 0x0 SWAP4 DUP5 MSTORE PUSH1 0x40 DUP1 DUP6 KECCAK256 DUP5 MLOAD DUP1 DUP7 ADD DUP5 ADD DUP1 MLOAD SWAP3 DUP2 MSTORE SWAP1 DUP5 ADD SWAP6 DUP5 ADD SWAP6 SWAP1 SWAP6 KECCAK256 SWAP5 MSTORE SWAP3 SWAP1 MSTORE DUP3 MSTORE SWAP1 KECCAK256 SLOAD DUP2 JUMP JUMPDEST CALLVALUE DUP1 ISZERO PUSH2 0x3A4 JUMPI PUSH1 0x0 DUP1 REVERT JUMPDEST POP PUSH2 0x222 PUSH2 0x3B3 CALLDATASIZE PUSH1 0x4 PUSH2 0x228F JUMP JUMPDEST PUSH2 0xC96 JUMP JUMPDEST CALLVALUE DUP1 ISZERO PUSH2 0x3C4 JUMPI PUSH1 0x0 DUP1 REVERT JUMPDEST POP PUSH2 0x3D8 PUSH2 0x3D3 CALLDATASIZE PUSH1 0x4 PUSH2 0x2537 JUMP JUMPDEST PUSH2 0xD89 JUMP JUMPDEST PUSH1 0x40 DUP1 MLOAD SWAP3 DUP4 MSTORE PUSH1 0x20 DUP4 ADD SWAP2 SWAP1 SWAP2 MSTORE ADD PUSH2 0x2E5 JUMP JUMPDEST CALLVALUE DUP1 ISZERO PUSH2 0x3F9 JUMPI PUSH1 0x0 DUP1 REVERT JUMPDEST POP PUSH2 0x222 PUSH2 0xFDC JUMP JUMPDEST CALLVALUE DUP1 ISZERO PUSH2 0x40E JUMPI PUSH1 0x0 DUP1 REVERT JUMPDEST POP PUSH2 0x422 PUSH2 0x41D CALLDATASIZE PUSH1 0x4 PUSH2 0x2323 JUMP JUMPDEST PUSH2 0xFF0 JUMP JUMPDEST PUSH1 0x40 MLOAD PUSH2 0x2E5 SWAP2 SWAP1 PUSH2 0x25B3 JUMP JUMPDEST CALLVALUE DUP1 ISZERO PUSH2 0x43B JUMPI PUSH1 0x0 DUP1 REVERT JUMPDEST POP PUSH2 0x31B PUSH2 0x44A CALLDATASIZE PUSH1 0x4 PUSH2 0x25C6 JUMP JUMPDEST PUSH2 0x108A JUMP JUMPDEST CALLVALUE DUP1 ISZERO PUSH2 0x45B JUMPI PUSH1 0x0 DUP1 REVERT JUMPDEST POP PUSH2 0x31B PUSH2 0x46A CALLDATASIZE PUSH1 0x4 PUSH2 0x25E8 JUMP JUMPDEST PUSH1 0x2 PUSH1 0x20 SWAP1 DUP2 MSTORE PUSH1 0x0 SWAP3 DUP4 MSTORE PUSH1 0x40 DUP1 DUP5 KECCAK256 SWAP1 SWAP2 MSTORE SWAP1 DUP3 MSTORE SWAP1 KECCAK256 SLOAD DUP2 JUMP JUMPDEST CALLVALUE DUP1 ISZERO PUSH2 0x493 JUMPI PUSH1 0x0 DUP1 REVERT JUMPDEST POP PUSH1 0x0 SLOAD PUSH1 0x1 PUSH1 0x1 PUSH1 0xA0 SHL SUB AND JUMPDEST PUSH1 0x40 MLOAD PUSH1 0x1 PUSH1 0x1 PUSH1 0xA0 SHL SUB SWAP1 SWAP2 AND DUP2 MSTORE PUSH1 0x20 ADD PUSH2 0x2E5 JUMP JUMPDEST CALLVALUE DUP1 ISZERO PUSH2 0x4C5 JUMPI PUSH1 0x0 DUP1 REVERT JUMPDEST POP PUSH2 0x31B PUSH32 0x0 DUP2 JUMP JUMPDEST CALLVALUE DUP1 ISZERO PUSH2 0x4F9 JUMPI PUSH1 0x0 DUP1 REVERT JUMPDEST POP PUSH1 0x4 SLOAD PUSH2 0x4A1 SWAP1 PUSH1 0x1 PUSH1 0x1 PUSH1 0xA0 SHL SUB AND DUP2 JUMP JUMPDEST CALLVALUE DUP1 ISZERO PUSH2 0x519 JUMPI PUSH1 0x0 DUP1 REVERT JUMPDEST POP PUSH2 0x422 PUSH2 0x528 CALLDATASIZE PUSH1 0x4 PUSH2 0x2323 JUMP JUMPDEST PUSH2 0x12E0 JUMP JUMPDEST CALLVALUE DUP1 ISZERO PUSH2 0x539 JUMPI PUSH1 0x0 DUP1 REVERT JUMPDEST POP PUSH2 0x222 PUSH2 0x548 CALLDATASIZE PUSH1 0x4 PUSH2 0x239A JUMP JUMPDEST PUSH2 0x13F6 JUMP JUMPDEST CALLVALUE DUP1 ISZERO PUSH2 0x559 JUMPI PUSH1 0x0 DUP1 REVERT JUMPDEST POP PUSH2 0x4A1 PUSH32 0x0 DUP2 JUMP JUMPDEST CALLVALUE DUP1 ISZERO PUSH2 0x58D JUMPI PUSH1 0x0 DUP1 REVERT JUMPDEST POP PUSH2 0x222 PUSH2 0x59C CALLDATASIZE PUSH1 0x4 PUSH2 0x237F JUMP JUMPDEST PUSH2 0x147F JUMP JUMPDEST CALLVALUE DUP1 ISZERO PUSH2 0x5AD JUMPI PUSH1 0x0 DUP1 REVERT JUMPDEST POP PUSH2 0x31B PUSH2 0x2710 DUP2 JUMP JUMPDEST PUSH2 0x222 PUSH2 0x5C5 CALLDATASIZE PUSH1 0x4 PUSH2 0x2612 JUMP JUMPDEST PUSH2 0x14E8 JUMP JUMPDEST CALLVALUE DUP1 ISZERO PUSH2 0x5D6 JUMPI PUSH1 0x0 DUP1 REVERT JUMPDEST POP PUSH2 0x222 PUSH2 0x5E5 CALLDATASIZE PUSH1 0x4 PUSH2 0x271B JUMP JUMPDEST PUSH2 0x1502 JUMP JUMPDEST PUSH2 0x222 PUSH2 0x5F8 CALLDATASIZE PUSH1 0x4 PUSH2 0x228F JUMP JUMPDEST PUSH2 0x15B0 JUMP JUMPDEST CALLVALUE DUP1 ISZERO PUSH2 0x609 JUMPI PUSH1 0x0 DUP1 REVERT JUMPDEST POP PUSH2 0x222 PUSH2 0x618 CALLDATASIZE PUSH1 0x4 PUSH2 0x278A JUMP JUMPDEST PUSH2 0x17FE JUMP JUMPDEST CALLVALUE DUP1 ISZERO PUSH2 0x629 JUMPI PUSH1 0x0 DUP1 REVERT JUMPDEST POP PUSH2 0x222 PUSH2 0x638 CALLDATASIZE PUSH1 0x4 PUSH2 0x239A JUMP JUMPDEST PUSH2 0x1868 JUMP JUMPDEST PUSH2 0x222 PUSH2 0x64B CALLDATASIZE PUSH1 0x4 PUSH2 0x27C6 JUMP JUMPDEST PUSH2 0x18C2 JUMP JUMPDEST CALLVALUE DUP1 ISZERO PUSH2 0x65C JUMPI PUSH1 0x0 DUP1 REVERT JUMPDEST POP PUSH2 0x222 PUSH2 0x66B CALLDATASIZE PUSH1 0x4 PUSH2 0x237F JUMP JUMPDEST PUSH2 0x1A4A JUMP JUMPDEST CALLVALUE DUP1 ISZERO PUSH2 0x67C JUMPI PUSH1 0x0 DUP1 REVERT JUMPDEST POP PUSH2 0x422 PUSH2 0x68B CALLDATASIZE PUSH1 0x4 PUSH2 0x2801 JUMP JUMPDEST PUSH2 0x1A9E JUMP JUMPDEST CALLVALUE DUP1 ISZERO PUSH2 0x69C JUMPI PUSH1 0x0 DUP1 REVERT JUMPDEST POP PUSH1 0x7 SLOAD PUSH2 0x4A1 SWAP1 PUSH1 0x1 PUSH1 0x1 PUSH1 0xA0 SHL SUB AND DUP2 JUMP JUMPDEST CALLER PUSH32 0x0 PUSH1 0x1 PUSH1 0x1 PUSH1 0xA0 SHL SUB AND EQ PUSH2 0x72D JUMPI PUSH1 0x40 MLOAD PUSH3 0x461BCD PUSH1 0xE5 SHL DUP2 MSTORE PUSH1 0x20 PUSH1 0x4 DUP3 ADD MSTORE PUSH1 0x1E PUSH1 0x24 DUP3 ADD MSTORE PUSH32 0x4C7A4170703A20696E76616C696420656E64706F696E742063616C6C65720000 PUSH1 0x44 DUP3 ADD MSTORE PUSH1 0x64 ADD JUMPDEST PUSH1 0x40 MLOAD DUP1 SWAP2 SUB SWAP1 REVERT JUMPDEST PUSH2 0xFFFF DUP7 AND PUSH1 0x0 SWAP1 DUP2 MSTORE PUSH1 0x1 PUSH1 0x20 MSTORE PUSH1 0x40 DUP2 KECCAK256 DUP1 SLOAD PUSH2 0x74B SWAP1 PUSH2 0x284C JUMP JUMPDEST DUP1 PUSH1 0x1F ADD PUSH1 0x20 DUP1 SWAP2 DIV MUL PUSH1 0x20 ADD PUSH1 0x40 MLOAD SWAP1 DUP2 ADD PUSH1 0x40 MSTORE DUP1 SWAP3 SWAP2 SWAP1 DUP2 DUP2 MSTORE PUSH1 0x20 ADD DUP3 DUP1 SLOAD PUSH2 0x777 SWAP1 PUSH2 0x284C JUMP JUMPDEST DUP1 ISZERO PUSH2 0x7C4 JUMPI DUP1 PUSH1 0x1F LT PUSH2 0x799 JUMPI PUSH2 0x100 DUP1 DUP4 SLOAD DIV MUL DUP4 MSTORE SWAP2 PUSH1 0x20 ADD SWAP2 PUSH2 0x7C4 JUMP JUMPDEST DUP3 ADD SWAP2 SWAP1 PUSH1 0x0 MSTORE PUSH1 0x20 PUSH1 0x0 KECCAK256 SWAP1 JUMPDEST DUP2 SLOAD DUP2 MSTORE SWAP1 PUSH1 0x1 ADD SWAP1 PUSH1 0x20 ADD DUP1 DUP4 GT PUSH2 0x7A7 JUMPI DUP3 SWAP1 SUB PUSH1 0x1F AND DUP3 ADD SWAP2 JUMPDEST POP POP POP POP POP SWAP1 POP DUP1 MLOAD DUP7 DUP7 SWAP1 POP EQ DUP1 ISZERO PUSH2 0x7DF JUMPI POP PUSH1 0x0 DUP2 MLOAD GT JUMPDEST DUP1 ISZERO PUSH2 0x807 JUMPI POP DUP1 MLOAD PUSH1 0x20 DUP3 ADD KECCAK256 PUSH1 0x40 MLOAD PUSH2 0x7FD SWAP1 DUP9 SWAP1 DUP9 SWAP1 PUSH2 0x2886 JUMP JUMPDEST PUSH1 0x40 MLOAD DUP1 SWAP2 SUB SWAP1 KECCAK256 EQ JUMPDEST PUSH2 0x879 JUMPI PUSH1 0x40 MLOAD PUSH3 0x461BCD PUSH1 0xE5 SHL DUP2 MSTORE PUSH1 0x20 PUSH1 0x4 DUP3 ADD MSTORE PUSH1 0x26 PUSH1 0x24 DUP3 ADD MSTORE PUSH32 0x4C7A4170703A20696E76616C696420736F757263652073656E64696E6720636F PUSH1 0x44 DUP3 ADD MSTORE PUSH32 0x6E74726163740000000000000000000000000000000000000000000000000000 PUSH1 0x64 DUP3 ADD MSTORE PUSH1 0x84 ADD PUSH2 0x724 JUMP JUMPDEST PUSH2 0x8EF DUP8 DUP8 DUP8 DUP1 DUP1 PUSH1 0x1F ADD PUSH1 0x20 DUP1 SWAP2 DIV MUL PUSH1 0x20 ADD PUSH1 0x40 MLOAD SWAP1 DUP2 ADD PUSH1 0x40 MSTORE DUP1 SWAP4 SWAP3 SWAP2 SWAP1 DUP2 DUP2 MSTORE PUSH1 0x20 ADD DUP4 DUP4 DUP1 DUP3 DUP5 CALLDATACOPY PUSH1 0x0 SWAP3 ADD SWAP2 SWAP1 SWAP2 MSTORE POP POP PUSH1 0x40 DUP1 MLOAD PUSH1 0x20 PUSH1 0x1F DUP11 ADD DUP2 SWAP1 DIV DUP2 MUL DUP3 ADD DUP2 ADD SWAP1 SWAP3 MSTORE DUP9 DUP2 MSTORE DUP11 SWAP4 POP SWAP2 POP DUP9 SWAP1 DUP9 SWAP1 DUP2 SWAP1 DUP5 ADD DUP4 DUP3 DUP1 DUP3 DUP5 CALLDATACOPY PUSH1 0x0 SWAP3 ADD SWAP2 SWAP1 SWAP2 MSTORE POP PUSH2 0x1B5F SWAP3 POP POP POP JUMP JUMPDEST POP POP POP POP POP POP POP JUMP JUMPDEST PUSH2 0x900 PUSH2 0x1C05 JUMP JUMPDEST PUSH1 0x40 MLOAD PUSH32 0x7E0DB1700000000000000000000000000000000000000000000000000000000 DUP2 MSTORE PUSH2 0xFFFF DUP3 AND PUSH1 0x4 DUP3 ADD MSTORE PUSH32 0x0 PUSH1 0x1 PUSH1 0x1 PUSH1 0xA0 SHL SUB AND SWAP1 PUSH4 0x7E0DB17 SWAP1 PUSH1 0x24 ADD JUMPDEST PUSH1 0x0 PUSH1 0x40 MLOAD DUP1 DUP4 SUB DUP2 PUSH1 0x0 DUP8 DUP1 EXTCODESIZE ISZERO DUP1 ISZERO PUSH2 0x97F JUMPI PUSH1 0x0 DUP1 REVERT JUMPDEST POP GAS CALL ISZERO DUP1 ISZERO PUSH2 0x993 JUMPI RETURNDATASIZE PUSH1 0x0 DUP1 RETURNDATACOPY RETURNDATASIZE PUSH1 0x0 REVERT JUMPDEST POP POP POP POP POP JUMP JUMPDEST PUSH2 0x9A2 PUSH2 0x1C05 JUMP JUMPDEST PUSH2 0xFFFF SWAP1 SWAP2 AND PUSH1 0x0 SWAP1 DUP2 MSTORE PUSH1 0x3 PUSH1 0x20 MSTORE PUSH1 0x40 SWAP1 KECCAK256 SSTORE JUMP JUMPDEST PUSH2 0x9C1 PUSH2 0x1C05 JUMP JUMPDEST PUSH1 0x40 MLOAD PUSH32 0x10DDB13700000000000000000000000000000000000000000000000000000000 DUP2 MSTORE PUSH2 0xFFFF DUP3 AND PUSH1 0x4 DUP3 ADD MSTORE PUSH32 0x0 PUSH1 0x1 PUSH1 0x1 PUSH1 0xA0 SHL SUB AND SWAP1 PUSH4 0x10DDB137 SWAP1 PUSH1 0x24 ADD PUSH2 0x965 JUMP JUMPDEST PUSH2 0xA32 PUSH2 0x1C05 JUMP JUMPDEST PUSH1 0x7 DUP1 SLOAD PUSH20 0xFFFFFFFFFFFFFFFFFFFFFFFFFFFFFFFFFFFFFFFF NOT AND PUSH1 0x1 PUSH1 0x1 PUSH1 0xA0 SHL SUB SWAP3 SWAP1 SWAP3 AND SWAP2 SWAP1 SWAP2 OR SWAP1 SSTORE JUMP JUMPDEST PUSH2 0xA69 PUSH2 0x1C05 JUMP JUMPDEST PUSH1 0x0 SLOAD PUSH1 0x1 PUSH1 0x1 PUSH1 0xA0 SHL SUB AND PUSH1 0x7 SLOAD PUSH1 0x40 MLOAD PUSH32 0x70A0823100000000000000000000000000000000000000000000000000000000 DUP2 MSTORE ADDRESS PUSH1 0x4 DUP3 ADD MSTORE PUSH1 0x1 PUSH1 0x1 PUSH1 0xA0 SHL SUB SWAP3 DUP4 AND SWAP3 PUSH2 0x8FC SWAP3 AND SWAP1 PUSH4 0x70A08231 SWAP1 PUSH1 0x24 ADD PUSH1 0x20 PUSH1 0x40 MLOAD DUP1 DUP4 SUB DUP2 DUP7 GAS STATICCALL ISZERO DUP1 ISZERO PUSH2 0xADC JUMPI RETURNDATASIZE PUSH1 0x0 DUP1 RETURNDATACOPY RETURNDATASIZE PUSH1 0x0 REVERT JUMPDEST POP POP POP POP PUSH1 0x40 MLOAD RETURNDATASIZE PUSH1 0x1F NOT PUSH1 0x1F DUP3 ADD AND DUP3 ADD DUP1 PUSH1 0x40 MSTORE POP DUP2 ADD SWAP1 PUSH2 0xB00 SWAP2 SWAP1 PUSH2 0x2896 JUMP JUMPDEST PUSH1 0x40 MLOAD DUP2 ISZERO SWAP1 SWAP3 MUL SWAP2 PUSH1 0x0 DUP2 DUP2 DUP2 DUP6 DUP9 DUP9 CALL SWAP4 POP POP POP POP ISZERO DUP1 ISZERO PUSH2 0xB28 JUMPI RETURNDATASIZE PUSH1 0x0 DUP1 RETURNDATACOPY RETURNDATASIZE PUSH1 0x0 REVERT JUMPDEST POP JUMP JUMPDEST PUSH2 0xFFFF DUP4 AND PUSH1 0x0 SWAP1 DUP2 MSTORE PUSH1 0x1 PUSH1 0x20 MSTORE PUSH1 0x40 DUP2 KECCAK256 DUP1 SLOAD DUP3 SWAP2 SWAP1 PUSH2 0xB4C SWAP1 PUSH2 0x284C JUMP JUMPDEST DUP1 PUSH1 0x1F ADD PUSH1 0x20 DUP1 SWAP2 DIV MUL PUSH1 0x20 ADD PUSH1 0x40 MLOAD SWAP1 DUP2 ADD PUSH1 0x40 MSTORE DUP1 SWAP3 SWAP2 SWAP1 DUP2 DUP2 MSTORE PUSH1 0x20 ADD DUP3 DUP1 SLOAD PUSH2 0xB78 SWAP1 PUSH2 0x284C JUMP JUMPDEST DUP1 ISZERO PUSH2 0xBC5 JUMPI DUP1 PUSH1 0x1F LT PUSH2 0xB9A JUMPI PUSH2 0x100 DUP1 DUP4 SLOAD DIV MUL DUP4 MSTORE SWAP2 PUSH1 0x20 ADD SWAP2 PUSH2 0xBC5 JUMP JUMPDEST DUP3 ADD SWAP2 SWAP1 PUSH1 0x0 MSTORE PUSH1 0x20 PUSH1 0x0 KECCAK256 SWAP1 JUMPDEST DUP2 SLOAD DUP2 MSTORE SWAP1 PUSH1 0x1 ADD SWAP1 PUSH1 0x20 ADD DUP1 DUP4 GT PUSH2 0xBA8 JUMPI DUP3 SWAP1 SUB PUSH1 0x1F AND DUP3 ADD SWAP2 JUMPDEST POP POP POP POP POP SWAP1 POP DUP4 DUP4 PUSH1 0x40 MLOAD PUSH2 0xBDC SWAP3 SWAP2 SWAP1 PUSH2 0x2886 JUMP JUMPDEST PUSH1 0x40 MLOAD DUP1 SWAP2 SUB SWAP1 KECCAK256 DUP2 DUP1 MLOAD SWAP1 PUSH1 0x20 ADD KECCAK256 EQ SWAP2 POP POP SWAP4 SWAP3 POP POP POP JUMP JUMPDEST PUSH2 0xBFF PUSH2 0x1C05 JUMP JUMPDEST PUSH1 0x40 MLOAD PUSH32 0x42D65A8D00000000000000000000000000000000000000000000000000000000 DUP2 MSTORE PUSH1 0x1 PUSH1 0x1 PUSH1 0xA0 SHL SUB PUSH32 0x0 AND SWAP1 PUSH4 0x42D65A8D SWAP1 PUSH2 0xC68 SWAP1 DUP7 SWAP1 DUP7 SWAP1 DUP7 SWAP1 PUSH1 0x4 ADD PUSH2 0x28D8 JUMP JUMPDEST PUSH1 0x0 PUSH1 0x40 MLOAD DUP1 DUP4 SUB DUP2 PUSH1 0x0 DUP8 DUP1 EXTCODESIZE ISZERO DUP1 ISZERO PUSH2 0xC82 JUMPI PUSH1 0x0 DUP1 REVERT JUMPDEST POP GAS CALL ISZERO DUP1 ISZERO PUSH2 0x8EF JUMPI RETURNDATASIZE PUSH1 0x0 DUP1 RETURNDATACOPY RETURNDATASIZE PUSH1 0x0 REVERT JUMPDEST CALLER ADDRESS EQ PUSH2 0xD0B JUMPI PUSH1 0x40 MLOAD PUSH3 0x461BCD PUSH1 0xE5 SHL DUP2 MSTORE PUSH1 0x20 PUSH1 0x4 DUP3 ADD MSTORE PUSH1 0x26 PUSH1 0x24 DUP3 ADD MSTORE PUSH32 0x4E6F6E626C6F636B696E674C7A4170703A2063616C6C6572206D757374206265 PUSH1 0x44 DUP3 ADD MSTORE PUSH32 0x204C7A4170700000000000000000000000000000000000000000000000000000 PUSH1 0x64 DUP3 ADD MSTORE PUSH1 0x84 ADD PUSH2 0x724 JUMP JUMPDEST PUSH2 0xD81 DUP7 DUP7 DUP7 DUP1 DUP1 PUSH1 0x1F ADD PUSH1 0x20 DUP1 SWAP2 DIV MUL PUSH1 0x20 ADD PUSH1 0x40 MLOAD SWAP1 DUP2 ADD PUSH1 0x40 MSTORE DUP1 SWAP4 SWAP3 SWAP2 SWAP1 DUP2 DUP2 MSTORE PUSH1 0x20 ADD DUP4 DUP4 DUP1 DUP3 DUP5 CALLDATACOPY PUSH1 0x0 SWAP3 ADD SWAP2 SWAP1 SWAP2 MSTORE POP POP PUSH1 0x40 DUP1 MLOAD PUSH1 0x20 PUSH1 0x1F DUP10 ADD DUP2 SWAP1 DIV DUP2 MUL DUP3 ADD DUP2 ADD SWAP1 SWAP3 MSTORE DUP8 DUP2 MSTORE DUP10 SWAP4 POP SWAP2 POP DUP8 SWAP1 DUP8 SWAP1 DUP2 SWAP1 DUP5 ADD DUP4 DUP3 DUP1 DUP3 DUP5 CALLDATACOPY PUSH1 0x0 SWAP3 ADD SWAP2 SWAP1 SWAP2 MSTORE POP PUSH2 0x14FC SWAP3 POP POP POP JUMP JUMPDEST POP POP POP POP POP POP JUMP JUMPDEST PUSH1 0x0 DUP3 DUP2 MSTORE PUSH1 0x8 PUSH1 0x20 MSTORE PUSH1 0x40 DUP2 KECCAK256 PUSH1 0x1 ADD SLOAD DUP2 SWAP1 DUP5 SWAP1 PUSH1 0xFF DUP6 AND SWAP1 PUSH1 0x1 PUSH1 0x1 PUSH1 0xA0 SHL SUB AND PUSH2 0xDF9 JUMPI PUSH1 0x40 MLOAD PUSH3 0x461BCD PUSH1 0xE5 SHL DUP2 MSTORE PUSH1 0x20 PUSH1 0x4 DUP3 ADD MSTORE PUSH1 0x11 PUSH1 0x24 DUP3 ADD MSTORE PUSH32 0x496E76616C69642070726F6A6563744964000000000000000000000000000000 PUSH1 0x44 DUP3 ADD MSTORE PUSH1 0x64 ADD PUSH2 0x724 JUMP JUMPDEST PUSH1 0x0 DUP3 DUP2 MSTORE PUSH1 0x8 PUSH1 0x20 MSTORE PUSH1 0x40 SWAP1 KECCAK256 PUSH1 0x2 ADD SLOAD DUP2 LT PUSH2 0xE59 JUMPI PUSH1 0x40 MLOAD PUSH3 0x461BCD PUSH1 0xE5 SHL DUP2 MSTORE PUSH1 0x20 PUSH1 0x4 DUP3 ADD MSTORE PUSH1 0x12 PUSH1 0x24 DUP3 ADD MSTORE PUSH32 0x496E76616C696420726F756E64496E6465780000000000000000000000000000 PUSH1 0x44 DUP3 ADD MSTORE PUSH1 0x64 ADD PUSH2 0x724 JUMP JUMPDEST PUSH1 0x0 DUP3 DUP2 MSTORE PUSH1 0x8 PUSH1 0x20 MSTORE PUSH1 0x40 SWAP1 KECCAK256 PUSH1 0x2 ADD DUP1 SLOAD TIMESTAMP SWAP2 SWAP1 DUP4 SWAP1 DUP2 LT PUSH2 0xE7F JUMPI PUSH2 0xE7F PUSH2 0x28F6 JUMP JUMPDEST SWAP1 PUSH1 0x0 MSTORE PUSH1 0x20 PUSH1 0x0 KECCAK256 SWAP1 PUSH1 0x4 MUL ADD PUSH1 0x0 ADD SLOAD LT PUSH2 0xEDE JUMPI PUSH1 0x40 MLOAD PUSH3 0x461BCD PUSH1 0xE5 SHL DUP2 MSTORE PUSH1 0x20 PUSH1 0x4 DUP3 ADD MSTORE PUSH1 0x1D PUSH1 0x24 DUP3 ADD MSTORE PUSH32 0x526F756E64206E6F74206F70656E20666F7220696E7665737420796574000000 PUSH1 0x44 DUP3 ADD MSTORE PUSH1 0x64 ADD PUSH2 0x724 JUMP JUMPDEST PUSH1 0x0 DUP3 DUP2 MSTORE PUSH1 0x8 PUSH1 0x20 MSTORE PUSH1 0x40 SWAP1 KECCAK256 PUSH1 0x2 ADD DUP1 SLOAD TIMESTAMP SWAP2 SWAP1 DUP4 SWAP1 DUP2 LT PUSH2 0xF04 JUMPI PUSH2 0xF04 PUSH2 0x28F6 JUMP JUMPDEST SWAP1 PUSH1 0x0 MSTORE PUSH1 0x20 PUSH1 0x0 KECCAK256 SWAP1 PUSH1 0x4 MUL ADD PUSH1 0x1 ADD SLOAD GT PUSH2 0xF63 JUMPI PUSH1 0x40 MLOAD PUSH3 0x461BCD PUSH1 0xE5 SHL DUP2 MSTORE PUSH1 0x20 PUSH1 0x4 DUP3 ADD MSTORE PUSH1 0xF PUSH1 0x24 DUP3 ADD MSTORE PUSH32 0x526F756E642068617320656E6465640000000000000000000000000000000000 PUSH1 0x44 DUP3 ADD MSTORE PUSH1 0x64 ADD PUSH2 0x724 JUMP JUMPDEST PUSH2 0xF70 DUP7 DUP7 PUSH1 0xFF AND PUSH2 0x108A JUMP JUMPDEST PUSH1 0x0 DUP8 DUP2 MSTORE PUSH1 0x9 PUSH1 0x20 SWAP1 DUP2 MSTORE PUSH1 0x40 DUP1 DUP4 KECCAK256 PUSH1 0xFF DUP11 AND DUP5 MSTORE SWAP1 SWAP2 MSTORE SWAP1 KECCAK256 SLOAD PUSH2 0xF97 SWAP2 SWAP1 PUSH2 0x2922 JUMP JUMPDEST PUSH1 0x0 DUP8 DUP2 MSTORE PUSH1 0x8 PUSH1 0x20 MSTORE PUSH1 0x40 SWAP1 KECCAK256 PUSH1 0x2 ADD DUP1 SLOAD PUSH1 0xFF DUP9 AND SWAP1 DUP2 LT PUSH2 0xFBD JUMPI PUSH2 0xFBD PUSH2 0x28F6 JUMP JUMPDEST SWAP1 PUSH1 0x0 MSTORE PUSH1 0x20 PUSH1 0x0 KECCAK256 SWAP1 PUSH1 0x4 MUL ADD PUSH1 0x2 ADD SLOAD SWAP4 POP SWAP4 POP POP POP SWAP3 POP SWAP3 SWAP1 POP JUMP JUMPDEST PUSH2 0xFE4 PUSH2 0x1C05 JUMP JUMPDEST PUSH2 0xFEE PUSH1 0x0 PUSH2 0x1C4B JUMP JUMPDEST JUMP JUMPDEST PUSH1 0x1 PUSH1 0x20 MSTORE PUSH1 0x0 SWAP1 DUP2 MSTORE PUSH1 0x40 SWAP1 KECCAK256 DUP1 SLOAD PUSH2 0x1009 SWAP1 PUSH2 0x284C JUMP JUMPDEST DUP1 PUSH1 0x1F ADD PUSH1 0x20 DUP1 SWAP2 DIV MUL PUSH1 0x20 ADD PUSH1 0x40 MLOAD SWAP1 DUP2 ADD PUSH1 0x40 MSTORE DUP1 SWAP3 SWAP2 SWAP1 DUP2 DUP2 MSTORE PUSH1 0x20 ADD DUP3 DUP1 SLOAD PUSH2 0x1035 SWAP1 PUSH2 0x284C JUMP JUMPDEST DUP1 ISZERO PUSH2 0x1082 JUMPI DUP1 PUSH1 0x1F LT PUSH2 0x1057 JUMPI PUSH2 0x100 DUP1 DUP4 SLOAD DIV MUL DUP4 MSTORE SWAP2 PUSH1 0x20 ADD SWAP2 PUSH2 0x1082 JUMP JUMPDEST DUP3 ADD SWAP2 SWAP1 PUSH1 0x0 MSTORE PUSH1 0x20 PUSH1 0x0 KECCAK256 SWAP1 JUMPDEST DUP2 SLOAD DUP2 MSTORE SWAP1 PUSH1 0x1 ADD SWAP1 PUSH1 0x20 ADD DUP1 DUP4 GT PUSH2 0x1065 JUMPI DUP3 SWAP1 SUB PUSH1 0x1F AND DUP3 ADD SWAP2 JUMPDEST POP POP POP POP POP DUP2 JUMP JUMPDEST PUSH1 0x0 DUP3 DUP2 MSTORE PUSH1 0x8 PUSH1 0x20 MSTORE PUSH1 0x40 DUP2 KECCAK256 PUSH1 0x1 ADD SLOAD DUP4 SWAP1 DUP4 SWAP1 PUSH1 0x1 PUSH1 0x1 PUSH1 0xA0 SHL SUB AND PUSH2 0x10F5 JUMPI PUSH1 0x40 MLOAD PUSH3 0x461BCD PUSH1 0xE5 SHL DUP2 MSTORE PUSH1 0x20 PUSH1 0x4 DUP3 ADD MSTORE PUSH1 0x11 PUSH1 0x24 DUP3 ADD MSTORE PUSH32 0x496E76616C69642070726F6A6563744964000000000000000000000000000000 PUSH1 0x44 DUP3 ADD MSTORE PUSH1 0x64 ADD PUSH2 0x724 JUMP JUMPDEST PUSH1 0x0 DUP3 DUP2 MSTORE PUSH1 0x8 PUSH1 0x20 MSTORE PUSH1 0x40 SWAP1 KECCAK256 PUSH1 0x2 ADD SLOAD DUP2 LT PUSH2 0x1155 JUMPI PUSH1 0x40 MLOAD PUSH3 0x461BCD PUSH1 0xE5 SHL DUP2 MSTORE PUSH1 0x20 PUSH1 0x4 DUP3 ADD MSTORE PUSH1 0x12 PUSH1 0x24 DUP3 ADD MSTORE PUSH32 0x496E76616C696420726F756E64496E6465780000000000000000000000000000 PUSH1 0x44 DUP3 ADD MSTORE PUSH1 0x64 ADD PUSH2 0x724 JUMP JUMPDEST PUSH1 0x0 DUP3 DUP2 MSTORE PUSH1 0x8 PUSH1 0x20 MSTORE PUSH1 0x40 SWAP1 KECCAK256 PUSH1 0x2 ADD DUP1 SLOAD TIMESTAMP SWAP2 SWAP1 DUP4 SWAP1 DUP2 LT PUSH2 0x117B JUMPI PUSH2 0x117B PUSH2 0x28F6 JUMP JUMPDEST SWAP1 PUSH1 0x0 MSTORE PUSH1 0x20 PUSH1 0x0 KECCAK256 SWAP1 PUSH1 0x4 MUL ADD PUSH1 0x0 ADD SLOAD LT PUSH2 0x11DA JUMPI PUSH1 0x40 MLOAD PUSH3 0x461BCD PUSH1 0xE5 SHL DUP2 MSTORE PUSH1 0x20 PUSH1 0x4 DUP3 ADD MSTORE PUSH1 0x1D PUSH1 0x24 DUP3 ADD MSTORE PUSH32 0x526F756E64206E6F74206F70656E20666F7220696E7665737420796574000000 PUSH1 0x44 DUP3 ADD MSTORE PUSH1 0x64 ADD PUSH2 0x724 JUMP JUMPDEST PUSH1 0x0 DUP3 DUP2 MSTORE PUSH1 0x8 PUSH1 0x20 MSTORE PUSH1 0x40 SWAP1 KECCAK256 PUSH1 0x2 ADD DUP1 SLOAD TIMESTAMP SWAP2 SWAP1 DUP4 SWAP1 DUP2 LT PUSH2 0x1200 JUMPI PUSH2 0x1200 PUSH2 0x28F6 JUMP JUMPDEST SWAP1 PUSH1 0x0 MSTORE PUSH1 0x20 PUSH1 0x0 KECCAK256 SWAP1 PUSH1 0x4 MUL ADD PUSH1 0x1 ADD SLOAD GT PUSH2 0x125F JUMPI PUSH1 0x40 MLOAD PUSH3 0x461BCD PUSH1 0xE5 SHL DUP2 MSTORE PUSH1 0x20 PUSH1 0x4 DUP3 ADD MSTORE PUSH1 0xF PUSH1 0x24 DUP3 ADD MSTORE PUSH32 0x526F756E642068617320656E6465640000000000000000000000000000000000 PUSH1 0x44 DUP3 ADD MSTORE PUSH1 0x64 ADD PUSH2 0x724 JUMP JUMPDEST PUSH1 0x0 DUP6 DUP2 MSTORE PUSH1 0x8 PUSH1 0x20 MSTORE PUSH1 0x40 SWAP1 KECCAK256 PUSH1 0x2 ADD DUP1 SLOAD DUP6 SWAP1 DUP2 LT PUSH2 0x1282 JUMPI PUSH2 0x1282 PUSH2 0x28F6 JUMP JUMPDEST SWAP1 PUSH1 0x0 MSTORE PUSH1 0x20 PUSH1 0x0 KECCAK256 SWAP1 PUSH1 0x4 MUL ADD PUSH1 0x3 ADD SLOAD PUSH1 0x8 PUSH1 0x0 DUP8 DUP2 MSTORE PUSH1 0x20 ADD SWAP1 DUP2 MSTORE PUSH1 0x20 ADD PUSH1 0x0 KECCAK256 PUSH1 0x2 ADD DUP6 DUP2 SLOAD DUP2 LT PUSH2 0x12BB JUMPI PUSH2 0x12BB PUSH2 0x28F6 JUMP JUMPDEST SWAP1 PUSH1 0x0 MSTORE PUSH1 0x20 PUSH1 0x0 KECCAK256 SWAP1 PUSH1 0x4 MUL ADD PUSH1 0x2 ADD SLOAD PUSH2 0x12D7 SWAP2 SWAP1 PUSH2 0x293F JUMP JUMPDEST SWAP6 SWAP5 POP POP POP POP POP JUMP JUMPDEST PUSH2 0xFFFF DUP2 AND PUSH1 0x0 SWAP1 DUP2 MSTORE PUSH1 0x1 PUSH1 0x20 MSTORE PUSH1 0x40 DUP2 KECCAK256 DUP1 SLOAD PUSH1 0x60 SWAP3 SWAP2 SWAP1 PUSH2 0x1303 SWAP1 PUSH2 0x284C JUMP JUMPDEST DUP1 PUSH1 0x1F ADD PUSH1 0x20 DUP1 SWAP2 DIV MUL PUSH1 0x20 ADD PUSH1 0x40 MLOAD SWAP1 DUP2 ADD PUSH1 0x40 MSTORE DUP1 SWAP3 SWAP2 SWAP1 DUP2 DUP2 MSTORE PUSH1 0x20 ADD DUP3 DUP1 SLOAD PUSH2 0x132F SWAP1 PUSH2 0x284C JUMP JUMPDEST DUP1 ISZERO PUSH2 0x137C JUMPI DUP1 PUSH1 0x1F LT PUSH2 0x1351 JUMPI PUSH2 0x100 DUP1 DUP4 SLOAD DIV MUL DUP4 MSTORE SWAP2 PUSH1 0x20 ADD SWAP2 PUSH2 0x137C JUMP JUMPDEST DUP3 ADD SWAP2 SWAP1 PUSH1 0x0 MSTORE PUSH1 0x20 PUSH1 0x0 KECCAK256 SWAP1 JUMPDEST DUP2 SLOAD DUP2 MSTORE SWAP1 PUSH1 0x1 ADD SWAP1 PUSH1 0x20 ADD DUP1 DUP4 GT PUSH2 0x135F JUMPI DUP3 SWAP1 SUB PUSH1 0x1F AND DUP3 ADD SWAP2 JUMPDEST POP POP POP POP POP SWAP1 POP DUP1 MLOAD PUSH1 0x0 SUB PUSH2 0x13D4 JUMPI PUSH1 0x40 MLOAD PUSH3 0x461BCD PUSH1 0xE5 SHL DUP2 MSTORE PUSH1 0x20 PUSH1 0x4 DUP3 ADD MSTORE PUSH1 0x1D PUSH1 0x24 DUP3 ADD MSTORE PUSH32 0x4C7A4170703A206E6F20747275737465642070617468207265636F7264000000 PUSH1 0x44 DUP3 ADD MSTORE PUSH1 0x64 ADD PUSH2 0x724 JUMP JUMPDEST PUSH2 0x13EF PUSH1 0x0 PUSH1 0x14 DUP4 MLOAD PUSH2 0x13E7 SWAP2 SWAP1 PUSH2 0x2961 JUMP JUMPDEST DUP4 SWAP2 SWAP1 PUSH2 0x1CA8 JUMP JUMPDEST SWAP4 SWAP3 POP POP POP JUMP JUMPDEST PUSH2 0x13FE PUSH2 0x1C05 JUMP JUMPDEST DUP2 DUP2 ADDRESS PUSH1 0x40 MLOAD PUSH1 0x20 ADD PUSH2 0x1413 SWAP4 SWAP3 SWAP2 SWAP1 PUSH2 0x2974 JUMP JUMPDEST PUSH1 0x40 DUP1 MLOAD PUSH1 0x1F NOT DUP2 DUP5 SUB ADD DUP2 MSTORE SWAP2 DUP2 MSTORE PUSH2 0xFFFF DUP6 AND PUSH1 0x0 SWAP1 DUP2 MSTORE PUSH1 0x1 PUSH1 0x20 MSTORE KECCAK256 SWAP1 PUSH2 0x143E SWAP1 DUP3 PUSH2 0x29F3 JUMP JUMPDEST POP PUSH32 0x8C0400CFE2D1199B1A725C78960BCC2A344D869B80590D0F2BD005DB15A572CE DUP4 DUP4 DUP4 PUSH1 0x40 MLOAD PUSH2 0x1472 SWAP4 SWAP3 SWAP2 SWAP1 PUSH2 0x28D8 JUMP JUMPDEST PUSH1 0x40 MLOAD DUP1 SWAP2 SUB SWAP1 LOG1 POP POP POP JUMP JUMPDEST PUSH2 0x1487 PUSH2 0x1C05 JUMP JUMPDEST PUSH1 0x4 DUP1 SLOAD PUSH20 0xFFFFFFFFFFFFFFFFFFFFFFFFFFFFFFFFFFFFFFFF NOT AND PUSH1 0x1 PUSH1 0x1 PUSH1 0xA0 SHL SUB DUP4 AND SWAP1 DUP2 OR SWAP1 SWAP2 SSTORE PUSH1 0x40 MLOAD SWAP1 DUP2 MSTORE PUSH32 0x5DB758E995A17EC1AD84BDEF7E8C3293A0BD6179BCCE400DFF5D4C3D87DB726B SWAP1 PUSH1 0x20 ADD PUSH1 0x40 MLOAD DUP1 SWAP2 SUB SWAP1 LOG1 POP JUMP JUMPDEST PUSH2 0x14F0 PUSH2 0x1C05 JUMP JUMPDEST PUSH2 0x14FC DUP5 DUP5 DUP5 DUP5 PUSH2 0x1DD0 JUMP JUMPDEST POP POP POP POP JUMP JUMPDEST PUSH2 0x150A PUSH2 0x1C05 JUMP JUMPDEST PUSH1 0x40 MLOAD PUSH32 0xCBED8B9C00000000000000000000000000000000000000000000000000000000 DUP2 MSTORE PUSH1 0x1 PUSH1 0x1 PUSH1 0xA0 SHL SUB PUSH32 0x0 AND SWAP1 PUSH4 0xCBED8B9C SWAP1 PUSH2 0x1577 SWAP1 DUP9 SWAP1 DUP9 SWAP1 DUP9 SWAP1 DUP9 SWAP1 DUP9 SWAP1 PUSH1 0x4 ADD PUSH2 0x2AB3 JUMP JUMPDEST PUSH1 0x0 PUSH1 0x40 MLOAD DUP1 DUP4 SUB DUP2 PUSH1 0x0 DUP8 DUP1 EXTCODESIZE ISZERO DUP1 ISZERO PUSH2 0x1591 JUMPI PUSH1 0x0 DUP1 REVERT JUMPDEST POP GAS CALL ISZERO DUP1 ISZERO PUSH2 0x15A5 JUMPI RETURNDATASIZE PUSH1 0x0 DUP1 RETURNDATACOPY RETURNDATASIZE PUSH1 0x0 REVERT JUMPDEST POP POP POP POP POP POP POP POP POP JUMP JUMPDEST PUSH2 0xFFFF DUP7 AND PUSH1 0x0 SWAP1 DUP2 MSTORE PUSH1 0x5 PUSH1 0x20 MSTORE PUSH1 0x40 DUP1 DUP3 KECCAK256 SWAP1 MLOAD PUSH2 0x15D3 SWAP1 DUP9 SWAP1 DUP9 SWAP1 PUSH2 0x2886 JUMP JUMPDEST SWAP1 DUP2 MSTORE PUSH1 0x40 DUP1 MLOAD PUSH1 0x20 SWAP3 DUP2 SWAP1 SUB DUP4 ADD SWAP1 KECCAK256 PUSH8 0xFFFFFFFFFFFFFFFF DUP8 AND PUSH1 0x0 SWAP1 DUP2 MSTORE SWAP3 MSTORE SWAP1 KECCAK256 SLOAD SWAP1 POP DUP1 PUSH2 0x166E JUMPI PUSH1 0x40 MLOAD PUSH3 0x461BCD PUSH1 0xE5 SHL DUP2 MSTORE PUSH1 0x20 PUSH1 0x4 DUP3 ADD MSTORE PUSH1 0x23 PUSH1 0x24 DUP3 ADD MSTORE PUSH32 0x4E6F6E626C6F636B696E674C7A4170703A206E6F2073746F726564206D657373 PUSH1 0x44 DUP3 ADD MSTORE PUSH32 0x6167650000000000000000000000000000000000000000000000000000000000 PUSH1 0x64 DUP3 ADD MSTORE PUSH1 0x84 ADD PUSH2 0x724 JUMP JUMPDEST DUP1 DUP4 DUP4 PUSH1 0x40 MLOAD PUSH2 0x167F SWAP3 SWAP2 SWAP1 PUSH2 0x2886 JUMP JUMPDEST PUSH1 0x40 MLOAD DUP1 SWAP2 SUB SWAP1 KECCAK256 EQ PUSH2 0x16FA JUMPI PUSH1 0x40 MLOAD PUSH3 0x461BCD PUSH1 0xE5 SHL DUP2 MSTORE PUSH1 0x20 PUSH1 0x4 DUP3 ADD MSTORE PUSH1 0x21 PUSH1 0x24 DUP3 ADD MSTORE PUSH32 0x4E6F6E626C6F636B696E674C7A4170703A20696E76616C6964207061796C6F61 PUSH1 0x44 DUP3 ADD MSTORE PUSH32 0x6400000000000000000000000000000000000000000000000000000000000000 PUSH1 0x64 DUP3 ADD MSTORE PUSH1 0x84 ADD PUSH2 0x724 JUMP JUMPDEST PUSH2 0xFFFF DUP8 AND PUSH1 0x0 SWAP1 DUP2 MSTORE PUSH1 0x5 PUSH1 0x20 MSTORE PUSH1 0x40 DUP1 DUP3 KECCAK256 SWAP1 MLOAD PUSH2 0x171D SWAP1 DUP10 SWAP1 DUP10 SWAP1 PUSH2 0x2886 JUMP JUMPDEST SWAP1 DUP2 MSTORE PUSH1 0x40 DUP1 MLOAD PUSH1 0x20 SWAP3 DUP2 SWAP1 SUB DUP4 ADD DUP2 KECCAK256 PUSH8 0xFFFFFFFFFFFFFFFF DUP10 AND PUSH1 0x0 SWAP1 DUP2 MSTORE SWAP1 DUP5 MSTORE DUP3 SWAP1 KECCAK256 SWAP4 SWAP1 SWAP4 SSTORE PUSH1 0x1F DUP9 ADD DUP3 SWAP1 DIV DUP3 MUL DUP4 ADD DUP3 ADD SWAP1 MSTORE DUP7 DUP3 MSTORE PUSH2 0x17B6 SWAP2 DUP10 SWAP2 DUP10 SWAP1 DUP10 SWAP1 DUP2 SWAP1 DUP5 ADD DUP4 DUP3 DUP1 DUP3 DUP5 CALLDATACOPY PUSH1 0x0 SWAP3 ADD SWAP2 SWAP1 SWAP2 MSTORE POP POP PUSH1 0x40 DUP1 MLOAD PUSH1 0x20 PUSH1 0x1F DUP11 ADD DUP2 SWAP1 DIV DUP2 MUL DUP3 ADD DUP2 ADD SWAP1 SWAP3 MSTORE DUP9 DUP2 MSTORE DUP11 SWAP4 POP SWAP2 POP DUP9 SWAP1 DUP9 SWAP1 DUP2 SWAP1 DUP5 ADD DUP4 DUP3 DUP1 DUP3 DUP5 CALLDATACOPY PUSH1 0x0 SWAP3 ADD SWAP2 SWAP1 SWAP2 MSTORE POP PUSH2 0x14FC SWAP3 POP POP POP JUMP JUMPDEST PUSH32 0xC264D91F3ADC5588250E1551F547752CA0CFA8F6B530D243B9F9F4CAB10EA8E5 DUP8 DUP8 DUP8 DUP8 DUP6 PUSH1 0x40 MLOAD PUSH2 0x17ED SWAP6 SWAP5 SWAP4 SWAP3 SWAP2 SWAP1 PUSH2 0x2AEC JUMP JUMPDEST PUSH1 0x40 MLOAD DUP1 SWAP2 SUB SWAP1 LOG1 POP POP POP POP POP POP POP JUMP JUMPDEST PUSH2 0x1806 PUSH2 0x1C05 JUMP JUMPDEST PUSH2 0xFFFF DUP4 DUP2 AND PUSH1 0x0 DUP2 DUP2 MSTORE PUSH1 0x2 PUSH1 0x20 SWAP1 DUP2 MSTORE PUSH1 0x40 DUP1 DUP4 KECCAK256 SWAP5 DUP8 AND DUP1 DUP5 MSTORE SWAP5 DUP3 MSTORE SWAP2 DUP3 SWAP1 KECCAK256 DUP6 SWAP1 SSTORE DUP2 MLOAD SWAP3 DUP4 MSTORE DUP3 ADD SWAP3 SWAP1 SWAP3 MSTORE SWAP1 DUP2 ADD DUP3 SWAP1 MSTORE PUSH32 0x9D5C7C0B934DA8FEFA9C7760C98383778A12DFBFC0C3B3106518F43FB9508AC0 SWAP1 PUSH1 0x60 ADD PUSH2 0x1472 JUMP JUMPDEST PUSH2 0x1870 PUSH2 0x1C05 JUMP JUMPDEST PUSH2 0xFFFF DUP4 AND PUSH1 0x0 SWAP1 DUP2 MSTORE PUSH1 0x1 PUSH1 0x20 MSTORE PUSH1 0x40 SWAP1 KECCAK256 PUSH2 0x188E DUP3 DUP5 DUP4 PUSH2 0x2B28 JUMP JUMPDEST POP PUSH32 0xFA41487AD5D6728F0B19276FA1EDDC16558578F5109FC39D2DC33C3230470DAB DUP4 DUP4 DUP4 PUSH1 0x40 MLOAD PUSH2 0x1472 SWAP4 SWAP3 SWAP2 SWAP1 PUSH2 0x28D8 JUMP JUMPDEST PUSH1 0x0 PUSH2 0x18CE DUP3 DUP5 PUSH2 0x2922 JUMP JUMPDEST PUSH1 0x7 SLOAD PUSH1 0x40 MLOAD PUSH32 0x23B872DD00000000000000000000000000000000000000000000000000000000 DUP2 MSTORE CALLER PUSH1 0x4 DUP3 ADD MSTORE ADDRESS PUSH1 0x24 DUP3 ADD MSTORE PUSH1 0x44 DUP2 ADD DUP4 SWAP1 MSTORE SWAP2 SWAP3 POP PUSH1 0x1 PUSH1 0x1 PUSH1 0xA0 SHL SUB AND SWAP1 PUSH4 0x23B872DD SWAP1 PUSH1 0x64 ADD PUSH1 0x20 PUSH1 0x40 MLOAD DUP1 DUP4 SUB DUP2 PUSH1 0x0 DUP8 GAS CALL ISZERO DUP1 ISZERO PUSH2 0x193F JUMPI RETURNDATASIZE PUSH1 0x0 DUP1 RETURNDATACOPY RETURNDATASIZE PUSH1 0x0 REVERT JUMPDEST POP POP POP POP PUSH1 0x40 MLOAD RETURNDATASIZE PUSH1 0x1F NOT PUSH1 0x1F DUP3 ADD AND DUP3 ADD DUP1 PUSH1 0x40 MSTORE POP DUP2 ADD SWAP1 PUSH2 0x1963 SWAP2 SWAP1 PUSH2 0x2BE8 JUMP JUMPDEST PUSH2 0x19AF JUMPI PUSH1 0x40 MLOAD PUSH3 0x461BCD PUSH1 0xE5 SHL DUP2 MSTORE PUSH1 0x20 PUSH1 0x4 DUP3 ADD MSTORE PUSH1 0x15 PUSH1 0x24 DUP3 ADD MSTORE PUSH32 0x5472616E7366657220746F6B656E206661696C65640000000000000000000000 PUSH1 0x44 DUP3 ADD MSTORE PUSH1 0x64 ADD PUSH2 0x724 JUMP JUMPDEST PUSH1 0x40 DUP1 MLOAD PUSH1 0x1 PUSH1 0x20 DUP3 ADD MSTORE CALLER SWAP2 DUP2 ADD SWAP2 SWAP1 SWAP2 MSTORE PUSH1 0x60 DUP2 ADD DUP7 SWAP1 MSTORE PUSH1 0xFF DUP6 AND PUSH1 0x80 DUP3 ADD MSTORE PUSH1 0xA0 DUP2 ADD DUP5 SWAP1 MSTORE PUSH1 0xC0 DUP2 ADD DUP4 SWAP1 MSTORE PUSH2 0x993 SWAP1 PUSH2 0x2789 SWAP1 PUSH1 0xE0 ADD JUMPDEST PUSH1 0x40 DUP1 MLOAD PUSH1 0x1F NOT DUP2 DUP5 SUB ADD DUP2 MSTORE SWAP1 DUP3 SWAP1 MSTORE PUSH31 0x1000000000000000000000000000000000000000000000000000000000000 PUSH1 0x20 DUP4 ADD MSTORE PUSH4 0x1DCD6500 PUSH1 0x22 DUP4 ADD MSTORE SWAP1 CALLER SWAP1 PUSH1 0x0 SWAP1 PUSH1 0x42 ADD PUSH1 0x40 MLOAD PUSH1 0x20 DUP2 DUP4 SUB SUB DUP2 MSTORE SWAP1 PUSH1 0x40 MSTORE CALLVALUE PUSH2 0x1EAC JUMP JUMPDEST PUSH2 0x1A52 PUSH2 0x1C05 JUMP JUMPDEST PUSH1 0x1 PUSH1 0x1 PUSH1 0xA0 SHL SUB DUP2 AND PUSH2 0x1A95 JUMPI PUSH1 0x40 MLOAD PUSH32 0x1E4FBDF700000000000000000000000000000000000000000000000000000000 DUP2 MSTORE PUSH1 0x0 PUSH1 0x4 DUP3 ADD MSTORE PUSH1 0x24 ADD PUSH2 0x724 JUMP JUMPDEST PUSH2 0xB28 DUP2 PUSH2 0x1C4B JUMP JUMPDEST PUSH1 0x40 MLOAD PUSH32 0xF5ECBDBC00000000000000000000000000000000000000000000000000000000 DUP2 MSTORE PUSH2 0xFFFF DUP1 DUP7 AND PUSH1 0x4 DUP4 ADD MSTORE DUP5 AND PUSH1 0x24 DUP3 ADD MSTORE ADDRESS PUSH1 0x44 DUP3 ADD MSTORE PUSH1 0x64 DUP2 ADD DUP3 SWAP1 MSTORE PUSH1 0x60 SWAP1 PUSH32 0x0 PUSH1 0x1 PUSH1 0x1 PUSH1 0xA0 SHL SUB AND SWAP1 PUSH4 0xF5ECBDBC SWAP1 PUSH1 0x84 ADD PUSH1 0x0 PUSH1 0x40 MLOAD DUP1 DUP4 SUB DUP2 DUP7 GAS STATICCALL ISZERO DUP1 ISZERO PUSH2 0x1B37 JUMPI RETURNDATASIZE PUSH1 0x0 DUP1 RETURNDATACOPY RETURNDATASIZE PUSH1 0x0 REVERT JUMPDEST POP POP POP POP PUSH1 0x40 MLOAD RETURNDATASIZE PUSH1 0x0 DUP3 RETURNDATACOPY PUSH1 0x1F RETURNDATASIZE SWAP1 DUP2 ADD PUSH1 0x1F NOT AND DUP3 ADD PUSH1 0x40 MSTORE PUSH2 0x12D7 SWAP2 SWAP1 DUP2 ADD SWAP1 PUSH2 0x2C0A JUMP JUMPDEST PUSH1 0x0 DUP1 PUSH2 0x1BEF GAS PUSH1 0x96 PUSH4 0x66AD5C8A PUSH1 0xE0 SHL DUP10 DUP10 DUP10 DUP10 PUSH1 0x40 MLOAD PUSH1 0x24 ADD PUSH2 0x1B87 SWAP5 SWAP4 SWAP3 SWAP2 SWAP1 PUSH2 0x2C78 JUMP JUMPDEST PUSH1 0x40 DUP1 MLOAD PUSH1 0x1F NOT DUP2 DUP5 SUB ADD DUP2 MSTORE SWAP2 SWAP1 MSTORE PUSH1 0x20 DUP2 ADD DUP1 MLOAD PUSH28 0xFFFFFFFFFFFFFFFFFFFFFFFFFFFFFFFFFFFFFFFFFFFFFFFFFFFFFFFF AND PUSH32 0xFFFFFFFF00000000000000000000000000000000000000000000000000000000 SWAP1 SWAP4 AND SWAP3 SWAP1 SWAP3 OR SWAP1 SWAP2 MSTORE ADDRESS SWAP3 SWAP2 SWAP1 PUSH2 0x2078 JUMP JUMPDEST SWAP2 POP SWAP2 POP DUP2 PUSH2 0xD81 JUMPI PUSH2 0xD81 DUP7 DUP7 DUP7 DUP7 DUP6 PUSH2 0x2103 JUMP JUMPDEST PUSH1 0x0 SLOAD PUSH1 0x1 PUSH1 0x1 PUSH1 0xA0 SHL SUB AND CALLER EQ PUSH2 0xFEE JUMPI PUSH1 0x40 MLOAD PUSH32 0x118CDAA700000000000000000000000000000000000000000000000000000000 DUP2 MSTORE CALLER PUSH1 0x4 DUP3 ADD MSTORE PUSH1 0x24 ADD PUSH2 0x724 JUMP JUMPDEST PUSH1 0x0 DUP1 SLOAD PUSH1 0x1 PUSH1 0x1 PUSH1 0xA0 SHL SUB DUP4 DUP2 AND PUSH20 0xFFFFFFFFFFFFFFFFFFFFFFFFFFFFFFFFFFFFFFFF NOT DUP4 AND DUP2 OR DUP5 SSTORE PUSH1 0x40 MLOAD SWAP2 SWAP1 SWAP3 AND SWAP3 DUP4 SWAP2 PUSH32 0x8BE0079C531659141344CD1FD0A4F28419497F9722A3DAAFE3B4186F6B6457E0 SWAP2 SWAP1 LOG3 POP POP JUMP JUMPDEST PUSH1 0x60 DUP2 PUSH2 0x1CB6 DUP2 PUSH1 0x1F PUSH2 0x2CB7 JUMP JUMPDEST LT ISZERO PUSH2 0x1D04 JUMPI PUSH1 0x40 MLOAD PUSH3 0x461BCD PUSH1 0xE5 SHL DUP2 MSTORE PUSH1 0x20 PUSH1 0x4 DUP3 ADD MSTORE PUSH1 0xE PUSH1 0x24 DUP3 ADD MSTORE PUSH32 0x736C6963655F6F766572666C6F77000000000000000000000000000000000000 PUSH1 0x44 DUP3 ADD MSTORE PUSH1 0x64 ADD PUSH2 0x724 JUMP JUMPDEST PUSH2 0x1D0E DUP3 DUP5 PUSH2 0x2CB7 JUMP JUMPDEST DUP5 MLOAD LT ISZERO PUSH2 0x1D5E JUMPI PUSH1 0x40 MLOAD PUSH3 0x461BCD PUSH1 0xE5 SHL DUP2 MSTORE PUSH1 0x20 PUSH1 0x4 DUP3 ADD MSTORE PUSH1 0x11 PUSH1 0x24 DUP3 ADD MSTORE PUSH32 0x736C6963655F6F75744F66426F756E6473000000000000000000000000000000 PUSH1 0x44 DUP3 ADD MSTORE PUSH1 0x64 ADD PUSH2 0x724 JUMP JUMPDEST PUSH1 0x60 DUP3 ISZERO DUP1 ISZERO PUSH2 0x1D7D JUMPI PUSH1 0x40 MLOAD SWAP2 POP PUSH1 0x0 DUP3 MSTORE PUSH1 0x20 DUP3 ADD PUSH1 0x40 MSTORE PUSH2 0x1DC7 JUMP JUMPDEST PUSH1 0x40 MLOAD SWAP2 POP PUSH1 0x1F DUP5 AND DUP1 ISZERO PUSH1 0x20 MUL DUP2 DUP5 ADD ADD DUP6 DUP2 ADD DUP8 DUP4 ISZERO PUSH1 0x20 MUL DUP5 DUP12 ADD ADD ADD JUMPDEST DUP2 DUP4 LT ISZERO PUSH2 0x1DB6 JUMPI DUP1 MLOAD DUP4 MSTORE PUSH1 0x20 SWAP3 DUP4 ADD SWAP3 ADD PUSH2 0x1D9E JUMP JUMPDEST POP POP DUP6 DUP5 MSTORE PUSH1 0x1F ADD PUSH1 0x1F NOT AND PUSH1 0x40 MSTORE POP JUMPDEST POP SWAP5 SWAP4 POP POP POP POP JUMP JUMPDEST PUSH1 0x0 PUSH32 0x0 PUSH1 0x6 SLOAD PUSH1 0x40 MLOAD PUSH1 0x20 ADD PUSH2 0x1E10 SWAP3 SWAP2 SWAP1 SWAP2 DUP3 MSTORE PUSH1 0x20 DUP3 ADD MSTORE PUSH1 0x40 ADD SWAP1 JUMP JUMPDEST PUSH1 0x40 MLOAD PUSH1 0x20 DUP2 DUP4 SUB SUB DUP2 MSTORE SWAP1 PUSH1 0x40 MSTORE DUP1 MLOAD SWAP1 PUSH1 0x20 ADD KECCAK256 SWAP1 POP PUSH1 0x1 PUSH1 0x6 PUSH1 0x0 DUP3 DUP3 SLOAD PUSH2 0x1E3B SWAP2 SWAP1 PUSH2 0x2CB7 JUMP JUMPDEST SWAP1 SWAP2 SSTORE POP POP DUP3 MLOAD PUSH1 0x40 DUP1 MLOAD DUP4 DUP2 MSTORE PUSH1 0x1 PUSH1 0x1 PUSH1 0xA0 SHL SUB DUP9 AND PUSH1 0x20 DUP3 ADD MSTORE DUP1 DUP3 ADD SWAP3 SWAP1 SWAP3 MSTORE MLOAD PUSH32 0x180774375EF39389CB651D758650EB357746210F60EE333A675D3B6C4343B25 SWAP2 DUP2 SWAP1 SUB PUSH1 0x60 ADD SWAP1 LOG1 PUSH2 0x993 PUSH2 0x2789 PUSH1 0x0 DUP4 DUP9 DUP9 DUP9 DUP9 PUSH1 0x40 MLOAD PUSH1 0x20 ADD PUSH2 0x19EC SWAP7 SWAP6 SWAP5 SWAP4 SWAP3 SWAP2 SWAP1 PUSH2 0x2CCA JUMP JUMPDEST PUSH2 0xFFFF DUP7 AND PUSH1 0x0 SWAP1 DUP2 MSTORE PUSH1 0x1 PUSH1 0x20 MSTORE PUSH1 0x40 DUP2 KECCAK256 DUP1 SLOAD PUSH2 0x1ECA SWAP1 PUSH2 0x284C JUMP JUMPDEST DUP1 PUSH1 0x1F ADD PUSH1 0x20 DUP1 SWAP2 DIV MUL PUSH1 0x20 ADD PUSH1 0x40 MLOAD SWAP1 DUP2 ADD PUSH1 0x40 MSTORE DUP1 SWAP3 SWAP2 SWAP1 DUP2 DUP2 MSTORE PUSH1 0x20 ADD DUP3 DUP1 SLOAD PUSH2 0x1EF6 SWAP1 PUSH2 0x284C JUMP JUMPDEST DUP1 ISZERO PUSH2 0x1F43 JUMPI DUP1 PUSH1 0x1F LT PUSH2 0x1F18 JUMPI PUSH2 0x100 DUP1 DUP4 SLOAD DIV MUL DUP4 MSTORE SWAP2 PUSH1 0x20 ADD SWAP2 PUSH2 0x1F43 JUMP JUMPDEST DUP3 ADD SWAP2 SWAP1 PUSH1 0x0 MSTORE PUSH1 0x20 PUSH1 0x0 KECCAK256 SWAP1 JUMPDEST DUP2 SLOAD DUP2 MSTORE SWAP1 PUSH1 0x1 ADD SWAP1 PUSH1 0x20 ADD DUP1 DUP4 GT PUSH2 0x1F26 JUMPI DUP3 SWAP1 SUB PUSH1 0x1F AND DUP3 ADD SWAP2 JUMPDEST POP POP POP POP POP SWAP1 POP DUP1 MLOAD PUSH1 0x0 SUB PUSH2 0x1FC1 JUMPI PUSH1 0x40 MLOAD PUSH3 0x461BCD PUSH1 0xE5 SHL DUP2 MSTORE PUSH1 0x20 PUSH1 0x4 DUP3 ADD MSTORE PUSH1 0x30 PUSH1 0x24 DUP3 ADD MSTORE PUSH32 0x4C7A4170703A2064657374696E6174696F6E20636861696E206973206E6F7420 PUSH1 0x44 DUP3 ADD MSTORE PUSH32 0x61207472757374656420736F7572636500000000000000000000000000000000 PUSH1 0x64 DUP3 ADD MSTORE PUSH1 0x84 ADD PUSH2 0x724 JUMP JUMPDEST PUSH2 0x1FCC DUP8 DUP8 MLOAD PUSH2 0x21A1 JUMP JUMPDEST PUSH1 0x40 MLOAD PUSH32 0xC580310000000000000000000000000000000000000000000000000000000000 DUP2 MSTORE PUSH1 0x1 PUSH1 0x1 PUSH1 0xA0 SHL SUB PUSH32 0x0 AND SWAP1 PUSH4 0xC5803100 SWAP1 DUP5 SWAP1 PUSH2 0x203D SWAP1 DUP12 SWAP1 DUP7 SWAP1 DUP13 SWAP1 DUP13 SWAP1 DUP13 SWAP1 DUP13 SWAP1 PUSH1 0x4 ADD PUSH2 0x2D66 JUMP JUMPDEST PUSH1 0x0 PUSH1 0x40 MLOAD DUP1 DUP4 SUB DUP2 DUP6 DUP9 DUP1 EXTCODESIZE ISZERO DUP1 ISZERO PUSH2 0x2056 JUMPI PUSH1 0x0 DUP1 REVERT JUMPDEST POP GAS CALL ISZERO DUP1 ISZERO PUSH2 0x206A JUMPI RETURNDATASIZE PUSH1 0x0 DUP1 RETURNDATACOPY RETURNDATASIZE PUSH1 0x0 REVERT JUMPDEST POP POP POP POP POP POP POP POP POP POP POP POP JUMP JUMPDEST PUSH1 0x0 PUSH1 0x60 PUSH1 0x0 DUP1 PUSH1 0x0 DUP7 PUSH2 0xFFFF AND PUSH8 0xFFFFFFFFFFFFFFFF DUP2 GT ISZERO PUSH2 0x209E JUMPI PUSH2 0x209E PUSH2 0x23ED JUMP JUMPDEST PUSH1 0x40 MLOAD SWAP1 DUP1 DUP3 MSTORE DUP1 PUSH1 0x1F ADD PUSH1 0x1F NOT AND PUSH1 0x20 ADD DUP3 ADD PUSH1 0x40 MSTORE DUP1 ISZERO PUSH2 0x20C8 JUMPI PUSH1 0x20 DUP3 ADD DUP2 DUP1 CALLDATASIZE DUP4 CALLDATACOPY ADD SWAP1 POP JUMPDEST POP SWAP1 POP PUSH1 0x0 DUP1 DUP8 MLOAD PUSH1 0x20 DUP10 ADD PUSH1 0x0 DUP14 DUP14 CALL SWAP2 POP RETURNDATASIZE SWAP3 POP DUP7 DUP4 GT ISZERO PUSH2 0x20EA JUMPI DUP7 SWAP3 POP JUMPDEST DUP3 DUP2 MSTORE DUP3 PUSH1 0x0 PUSH1 0x20 DUP4 ADD RETURNDATACOPY SWAP1 SWAP9 SWAP1 SWAP8 POP SWAP6 POP POP POP POP POP POP JUMP JUMPDEST DUP2 DUP1 MLOAD SWAP1 PUSH1 0x20 ADD KECCAK256 PUSH1 0x5 PUSH1 0x0 DUP8 PUSH2 0xFFFF AND PUSH2 0xFFFF AND DUP2 MSTORE PUSH1 0x20 ADD SWAP1 DUP2 MSTORE PUSH1 0x20 ADD PUSH1 0x0 KECCAK256 DUP6 PUSH1 0x40 MLOAD PUSH2 0x2134 SWAP2 SWAP1 PUSH2 0x2DCD JUMP JUMPDEST SWAP1 DUP2 MSTORE PUSH1 0x40 DUP1 MLOAD SWAP2 DUP3 SWAP1 SUB PUSH1 0x20 SWAP1 DUP2 ADD DUP4 KECCAK256 PUSH8 0xFFFFFFFFFFFFFFFF DUP9 AND PUSH1 0x0 SWAP1 DUP2 MSTORE SWAP2 MSTORE KECCAK256 SWAP2 SWAP1 SWAP2 SSTORE PUSH32 0xE183F33DE2837795525B4792CA4CD60535BD77C53B7E7030060BFCF5734D6B0C SWAP1 PUSH2 0x2192 SWAP1 DUP8 SWAP1 DUP8 SWAP1 DUP8 SWAP1 DUP8 SWAP1 DUP8 SWAP1 PUSH2 0x2DE9 JUMP JUMPDEST PUSH1 0x40 MLOAD DUP1 SWAP2 SUB SWAP1 LOG1 POP POP POP POP POP JUMP JUMPDEST PUSH2 0xFFFF DUP3 AND PUSH1 0x0 SWAP1 DUP2 MSTORE PUSH1 0x3 PUSH1 0x20 MSTORE PUSH1 0x40 DUP2 KECCAK256 SLOAD SWAP1 DUP2 SWAP1 SUB PUSH2 0x21C2 JUMPI POP PUSH2 0x2710 JUMPDEST DUP1 DUP3 GT ISZERO PUSH2 0x2212 JUMPI PUSH1 0x40 MLOAD PUSH3 0x461BCD PUSH1 0xE5 SHL DUP2 MSTORE PUSH1 0x20 PUSH1 0x4 DUP3 ADD DUP2 SWAP1 MSTORE PUSH1 0x24 DUP3 ADD MSTORE PUSH32 0x4C7A4170703A207061796C6F61642073697A6520697320746F6F206C61726765 PUSH1 0x44 DUP3 ADD MSTORE PUSH1 0x64 ADD PUSH2 0x724 JUMP JUMPDEST POP POP POP JUMP JUMPDEST DUP1 CALLDATALOAD PUSH2 0xFFFF DUP2 AND DUP2 EQ PUSH2 0x2229 JUMPI PUSH1 0x0 DUP1 REVERT JUMPDEST SWAP2 SWAP1 POP JUMP JUMPDEST PUSH1 0x0 DUP1 DUP4 PUSH1 0x1F DUP5 ADD SLT PUSH2 0x2240 JUMPI PUSH1 0x0 DUP1 REVERT JUMPDEST POP DUP2 CALLDATALOAD PUSH8 0xFFFFFFFFFFFFFFFF DUP2 GT ISZERO PUSH2 0x2258 JUMPI PUSH1 0x0 DUP1 REVERT JUMPDEST PUSH1 0x20 DUP4 ADD SWAP2 POP DUP4 PUSH1 0x20 DUP3 DUP6 ADD ADD GT ISZERO PUSH2 0x2270 JUMPI PUSH1 0x0 DUP1 REVERT JUMPDEST SWAP3 POP SWAP3 SWAP1 POP JUMP JUMPDEST DUP1 CALLDATALOAD PUSH8 0xFFFFFFFFFFFFFFFF DUP2 AND DUP2 EQ PUSH2 0x2229 JUMPI PUSH1 0x0 DUP1 REVERT JUMPDEST PUSH1 0x0 DUP1 PUSH1 0x0 DUP1 PUSH1 0x0 DUP1 PUSH1 0x80 DUP8 DUP10 SUB SLT ISZERO PUSH2 0x22A8 JUMPI PUSH1 0x0 DUP1 REVERT JUMPDEST PUSH2 0x22B1 DUP8 PUSH2 0x2217 JUMP JUMPDEST SWAP6 POP PUSH1 0x20 DUP8 ADD CALLDATALOAD PUSH8 0xFFFFFFFFFFFFFFFF DUP1 DUP3 GT ISZERO PUSH2 0x22CE JUMPI PUSH1 0x0 DUP1 REVERT JUMPDEST PUSH2 0x22DA DUP11 DUP4 DUP12 ADD PUSH2 0x222E JUMP JUMPDEST SWAP1 SWAP8 POP SWAP6 POP DUP6 SWAP2 POP PUSH2 0x22EE PUSH1 0x40 DUP11 ADD PUSH2 0x2277 JUMP JUMPDEST SWAP5 POP PUSH1 0x60 DUP10 ADD CALLDATALOAD SWAP2 POP DUP1 DUP3 GT ISZERO PUSH2 0x2304 JUMPI PUSH1 0x0 DUP1 REVERT JUMPDEST POP PUSH2 0x2311 DUP10 DUP3 DUP11 ADD PUSH2 0x222E JUMP JUMPDEST SWAP8 SWAP11 SWAP7 SWAP10 POP SWAP5 SWAP8 POP SWAP3 SWAP6 SWAP4 SWAP5 SWAP3 POP POP POP JUMP JUMPDEST PUSH1 0x0 PUSH1 0x20 DUP3 DUP5 SUB SLT ISZERO PUSH2 0x2335 JUMPI PUSH1 0x0 DUP1 REVERT JUMPDEST PUSH2 0x13EF DUP3 PUSH2 0x2217 JUMP JUMPDEST PUSH1 0x0 DUP1 PUSH1 0x40 DUP4 DUP6 SUB SLT ISZERO PUSH2 0x2351 JUMPI PUSH1 0x0 DUP1 REVERT JUMPDEST PUSH2 0x235A DUP4 PUSH2 0x2217 JUMP JUMPDEST SWAP5 PUSH1 0x20 SWAP4 SWAP1 SWAP4 ADD CALLDATALOAD SWAP4 POP POP POP JUMP JUMPDEST DUP1 CALLDATALOAD PUSH1 0x1 PUSH1 0x1 PUSH1 0xA0 SHL SUB DUP2 AND DUP2 EQ PUSH2 0x2229 JUMPI PUSH1 0x0 DUP1 REVERT JUMPDEST PUSH1 0x0 PUSH1 0x20 DUP3 DUP5 SUB SLT ISZERO PUSH2 0x2391 JUMPI PUSH1 0x0 DUP1 REVERT JUMPDEST PUSH2 0x13EF DUP3 PUSH2 0x2368 JUMP JUMPDEST PUSH1 0x0 DUP1 PUSH1 0x0 PUSH1 0x40 DUP5 DUP7 SUB SLT ISZERO PUSH2 0x23AF JUMPI PUSH1 0x0 DUP1 REVERT JUMPDEST PUSH2 0x23B8 DUP5 PUSH2 0x2217 JUMP JUMPDEST SWAP3 POP PUSH1 0x20 DUP5 ADD CALLDATALOAD PUSH8 0xFFFFFFFFFFFFFFFF DUP2 GT ISZERO PUSH2 0x23D4 JUMPI PUSH1 0x0 DUP1 REVERT JUMPDEST PUSH2 0x23E0 DUP7 DUP3 DUP8 ADD PUSH2 0x222E JUMP JUMPDEST SWAP5 SWAP8 SWAP1 SWAP7 POP SWAP4 SWAP5 POP POP POP POP JUMP JUMPDEST PUSH4 0x4E487B71 PUSH1 0xE0 SHL PUSH1 0x0 MSTORE PUSH1 0x41 PUSH1 0x4 MSTORE PUSH1 0x24 PUSH1 0x0 REVERT JUMPDEST PUSH1 0x40 MLOAD PUSH1 0x80 DUP2 ADD PUSH8 0xFFFFFFFFFFFFFFFF DUP2 GT DUP3 DUP3 LT OR ISZERO PUSH2 0x2426 JUMPI PUSH2 0x2426 PUSH2 0x23ED JUMP JUMPDEST PUSH1 0x40 MSTORE SWAP1 JUMP JUMPDEST PUSH1 0x40 MLOAD PUSH1 0x1F DUP3 ADD PUSH1 0x1F NOT AND DUP2 ADD PUSH8 0xFFFFFFFFFFFFFFFF DUP2 GT DUP3 DUP3 LT OR ISZERO PUSH2 0x2455 JUMPI PUSH2 0x2455 PUSH2 0x23ED JUMP JUMPDEST PUSH1 0x40 MSTORE SWAP2 SWAP1 POP JUMP JUMPDEST PUSH1 0x0 PUSH8 0xFFFFFFFFFFFFFFFF DUP3 GT ISZERO PUSH2 0x2477 JUMPI PUSH2 0x2477 PUSH2 0x23ED JUMP JUMPDEST POP PUSH1 0x1F ADD PUSH1 0x1F NOT AND PUSH1 0x20 ADD SWAP1 JUMP JUMPDEST PUSH1 0x0 DUP1 PUSH1 0x0 PUSH1 0x60 DUP5 DUP7 SUB SLT ISZERO PUSH2 0x249A JUMPI PUSH1 0x0 DUP1 REVERT JUMPDEST PUSH2 0x24A3 DUP5 PUSH2 0x2217 JUMP JUMPDEST SWAP3 POP PUSH1 0x20 DUP5 ADD CALLDATALOAD PUSH8 0xFFFFFFFFFFFFFFFF DUP2 GT ISZERO PUSH2 0x24BF JUMPI PUSH1 0x0 DUP1 REVERT JUMPDEST DUP5 ADD PUSH1 0x1F DUP2 ADD DUP7 SGT PUSH2 0x24D0 JUMPI PUSH1 0x0 DUP1 REVERT JUMPDEST DUP1 CALLDATALOAD PUSH2 0x24E3 PUSH2 0x24DE DUP3 PUSH2 0x245D JUMP JUMPDEST PUSH2 0x242C JUMP JUMPDEST DUP2 DUP2 MSTORE DUP8 PUSH1 0x20 DUP4 DUP6 ADD ADD GT ISZERO PUSH2 0x24F8 JUMPI PUSH1 0x0 DUP1 REVERT JUMPDEST DUP2 PUSH1 0x20 DUP5 ADD PUSH1 0x20 DUP4 ADD CALLDATACOPY PUSH1 0x0 PUSH1 0x20 DUP4 DUP4 ADD ADD MSTORE DUP1 SWAP5 POP POP POP POP PUSH2 0x251D PUSH1 0x40 DUP6 ADD PUSH2 0x2277 JUMP JUMPDEST SWAP1 POP SWAP3 POP SWAP3 POP SWAP3 JUMP JUMPDEST DUP1 CALLDATALOAD PUSH1 0xFF DUP2 AND DUP2 EQ PUSH2 0x2229 JUMPI PUSH1 0x0 DUP1 REVERT JUMPDEST PUSH1 0x0 DUP1 PUSH1 0x40 DUP4 DUP6 SUB SLT ISZERO PUSH2 0x254A JUMPI PUSH1 0x0 DUP1 REVERT JUMPDEST DUP3 CALLDATALOAD SWAP2 POP PUSH2 0x255A PUSH1 0x20 DUP5 ADD PUSH2 0x2526 JUMP JUMPDEST SWAP1 POP SWAP3 POP SWAP3 SWAP1 POP JUMP JUMPDEST PUSH1 0x0 JUMPDEST DUP4 DUP2 LT ISZERO PUSH2 0x257E JUMPI DUP2 DUP2 ADD MLOAD DUP4 DUP3 ADD MSTORE PUSH1 0x20 ADD PUSH2 0x2566 JUMP JUMPDEST POP POP PUSH1 0x0 SWAP2 ADD MSTORE JUMP JUMPDEST PUSH1 0x0 DUP2 MLOAD DUP1 DUP5 MSTORE PUSH2 0x259F DUP2 PUSH1 0x20 DUP7 ADD PUSH1 0x20 DUP7 ADD PUSH2 0x2563 JUMP JUMPDEST PUSH1 0x1F ADD PUSH1 0x1F NOT AND SWAP3 SWAP1 SWAP3 ADD PUSH1 0x20 ADD SWAP3 SWAP2 POP POP JUMP JUMPDEST PUSH1 0x20 DUP2 MSTORE PUSH1 0x0 PUSH2 0x13EF PUSH1 0x20 DUP4 ADD DUP5 PUSH2 0x2587 JUMP JUMPDEST PUSH1 0x0 DUP1 PUSH1 0x40 DUP4 DUP6 SUB SLT ISZERO PUSH2 0x25D9 JUMPI PUSH1 0x0 DUP1 REVERT JUMPDEST POP POP DUP1 CALLDATALOAD SWAP3 PUSH1 0x20 SWAP1 SWAP2 ADD CALLDATALOAD SWAP2 POP JUMP JUMPDEST PUSH1 0x0 DUP1 PUSH1 0x40 DUP4 DUP6 SUB SLT ISZERO PUSH2 0x25FB JUMPI PUSH1 0x0 DUP1 REVERT JUMPDEST PUSH2 0x2604 DUP4 PUSH2 0x2217 JUMP JUMPDEST SWAP2 POP PUSH2 0x255A PUSH1 0x20 DUP5 ADD PUSH2 0x2217 JUMP JUMPDEST PUSH1 0x0 DUP1 PUSH1 0x0 DUP1 PUSH1 0x80 DUP1 DUP7 DUP9 SUB SLT ISZERO PUSH2 0x2629 JUMPI PUSH1 0x0 DUP1 REVERT JUMPDEST PUSH2 0x2632 DUP7 PUSH2 0x2368 JUMP JUMPDEST SWAP5 POP PUSH1 0x20 PUSH2 0x2641 DUP2 DUP9 ADD PUSH2 0x2368 JUMP JUMPDEST SWAP5 POP PUSH1 0x40 DUP1 DUP9 ADD CALLDATALOAD PUSH8 0xFFFFFFFFFFFFFFFF DUP1 DUP3 GT ISZERO PUSH2 0x265F JUMPI PUSH1 0x0 DUP1 REVERT JUMPDEST DUP2 DUP11 ADD SWAP2 POP DUP11 PUSH1 0x1F DUP4 ADD SLT PUSH2 0x2673 JUMPI PUSH1 0x0 DUP1 REVERT JUMPDEST DUP2 CALLDATALOAD DUP2 DUP2 GT ISZERO PUSH2 0x2685 JUMPI PUSH2 0x2685 PUSH2 0x23ED JUMP JUMPDEST PUSH2 0x2693 DUP6 DUP3 PUSH1 0x5 SHL ADD PUSH2 0x242C JUMP JUMPDEST DUP2 DUP2 MSTORE DUP6 DUP2 ADD SWAP3 POP PUSH1 0x7 SWAP2 SWAP1 SWAP2 SHL DUP4 ADD DUP6 ADD SWAP1 DUP13 DUP3 GT ISZERO PUSH2 0x26B3 JUMPI PUSH1 0x0 DUP1 REVERT JUMPDEST SWAP3 DUP6 ADD SWAP3 JUMPDEST DUP2 DUP5 LT ISZERO PUSH2 0x2705 JUMPI DUP7 DUP5 DUP15 SUB SLT ISZERO PUSH2 0x26D0 JUMPI PUSH1 0x0 DUP1 DUP2 REVERT JUMPDEST PUSH2 0x26D8 PUSH2 0x2403 JUMP JUMPDEST DUP5 CALLDATALOAD DUP2 MSTORE DUP7 DUP6 ADD CALLDATALOAD DUP8 DUP3 ADD MSTORE DUP6 DUP6 ADD CALLDATALOAD DUP7 DUP3 ADD MSTORE PUSH1 0x60 DUP1 DUP7 ADD CALLDATALOAD SWAP1 DUP3 ADD MSTORE DUP4 MSTORE SWAP3 DUP7 ADD SWAP3 SWAP2 DUP6 ADD SWAP2 PUSH2 0x26B8 JUMP JUMPDEST SWAP10 SWAP13 SWAP9 SWAP12 POP SWAP9 SWAP10 PUSH1 0x60 ADD CALLDATALOAD SWAP9 POP POP POP POP POP POP POP POP JUMP JUMPDEST PUSH1 0x0 DUP1 PUSH1 0x0 DUP1 PUSH1 0x0 PUSH1 0x80 DUP7 DUP9 SUB SLT ISZERO PUSH2 0x2733 JUMPI PUSH1 0x0 DUP1 REVERT JUMPDEST PUSH2 0x273C DUP7 PUSH2 0x2217 JUMP JUMPDEST SWAP5 POP PUSH2 0x274A PUSH1 0x20 DUP8 ADD PUSH2 0x2217 JUMP JUMPDEST SWAP4 POP PUSH1 0x40 DUP7 ADD CALLDATALOAD SWAP3 POP PUSH1 0x60 DUP7 ADD CALLDATALOAD PUSH8 0xFFFFFFFFFFFFFFFF DUP2 GT ISZERO PUSH2 0x276D JUMPI PUSH1 0x0 DUP1 REVERT JUMPDEST PUSH2 0x2779 DUP9 DUP3 DUP10 ADD PUSH2 0x222E JUMP JUMPDEST SWAP7 SWAP10 SWAP6 SWAP9 POP SWAP4 SWAP7 POP SWAP3 SWAP5 SWAP4 SWAP3 POP POP POP JUMP JUMPDEST PUSH1 0x0 DUP1 PUSH1 0x0 PUSH1 0x60 DUP5 DUP7 SUB SLT ISZERO PUSH2 0x279F JUMPI PUSH1 0x0 DUP1 REVERT JUMPDEST PUSH2 0x27A8 DUP5 PUSH2 0x2217 JUMP JUMPDEST SWAP3 POP PUSH2 0x27B6 PUSH1 0x20 DUP6 ADD PUSH2 0x2217 JUMP JUMPDEST SWAP2 POP PUSH1 0x40 DUP5 ADD CALLDATALOAD SWAP1 POP SWAP3 POP SWAP3 POP SWAP3 JUMP JUMPDEST PUSH1 0x0 DUP1 PUSH1 0x0 DUP1 PUSH1 0x80 DUP6 DUP8 SUB SLT ISZERO PUSH2 0x27DC JUMPI PUSH1 0x0 DUP1 REVERT JUMPDEST DUP5 CALLDATALOAD SWAP4 POP PUSH2 0x27EC PUSH1 0x20 DUP7 ADD PUSH2 0x2526 JUMP JUMPDEST SWAP4 SWAP7 SWAP4 SWAP6 POP POP POP POP PUSH1 0x40 DUP3 ADD CALLDATALOAD SWAP2 PUSH1 0x60 ADD CALLDATALOAD SWAP1 JUMP JUMPDEST PUSH1 0x0 DUP1 PUSH1 0x0 DUP1 PUSH1 0x80 DUP6 DUP8 SUB SLT ISZERO PUSH2 0x2817 JUMPI PUSH1 0x0 DUP1 REVERT JUMPDEST PUSH2 0x2820 DUP6 PUSH2 0x2217 JUMP JUMPDEST SWAP4 POP PUSH2 0x282E PUSH1 0x20 DUP7 ADD PUSH2 0x2217 JUMP JUMPDEST SWAP3 POP PUSH2 0x283C PUSH1 0x40 DUP7 ADD PUSH2 0x2368 JUMP JUMPDEST SWAP4 SWAP7 SWAP3 SWAP6 POP SWAP3 SWAP4 PUSH1 0x60 ADD CALLDATALOAD SWAP3 POP POP JUMP JUMPDEST PUSH1 0x1 DUP2 DUP2 SHR SWAP1 DUP3 AND DUP1 PUSH2 0x2860 JUMPI PUSH1 0x7F DUP3 AND SWAP2 POP JUMPDEST PUSH1 0x20 DUP3 LT DUP2 SUB PUSH2 0x2880 JUMPI PUSH4 0x4E487B71 PUSH1 0xE0 SHL PUSH1 0x0 MSTORE PUSH1 0x22 PUSH1 0x4 MSTORE PUSH1 0x24 PUSH1 0x0 REVERT JUMPDEST POP SWAP2 SWAP1 POP JUMP JUMPDEST DUP2 DUP4 DUP3 CALLDATACOPY PUSH1 0x0 SWAP2 ADD SWAP1 DUP2 MSTORE SWAP2 SWAP1 POP JUMP JUMPDEST PUSH1 0x0 PUSH1 0x20 DUP3 DUP5 SUB SLT ISZERO PUSH2 0x28A8 JUMPI PUSH1 0x0 DUP1 REVERT JUMPDEST POP MLOAD SWAP2 SWAP1 POP JUMP JUMPDEST DUP2 DUP4 MSTORE DUP2 DUP2 PUSH1 0x20 DUP6 ADD CALLDATACOPY POP PUSH1 0x0 DUP3 DUP3 ADD PUSH1 0x20 SWAP1 DUP2 ADD SWAP2 SWAP1 SWAP2 MSTORE PUSH1 0x1F SWAP1 SWAP2 ADD PUSH1 0x1F NOT AND SWAP1 SWAP2 ADD ADD SWAP1 JUMP JUMPDEST PUSH2 0xFFFF DUP5 AND DUP2 MSTORE PUSH1 0x40 PUSH1 0x20 DUP3 ADD MSTORE PUSH1 0x0 PUSH2 0x12D7 PUSH1 0x40 DUP4 ADD DUP5 DUP7 PUSH2 0x28AF JUMP JUMPDEST PUSH4 0x4E487B71 PUSH1 0xE0 SHL PUSH1 0x0 MSTORE PUSH1 0x32 PUSH1 0x4 MSTORE PUSH1 0x24 PUSH1 0x0 REVERT JUMPDEST PUSH4 0x4E487B71 PUSH1 0xE0 SHL PUSH1 0x0 MSTORE PUSH1 0x11 PUSH1 0x4 MSTORE PUSH1 0x24 PUSH1 0x0 REVERT JUMPDEST DUP1 DUP3 MUL DUP2 ISZERO DUP3 DUP3 DIV DUP5 EQ OR PUSH2 0x2939 JUMPI PUSH2 0x2939 PUSH2 0x290C JUMP JUMPDEST SWAP3 SWAP2 POP POP JUMP JUMPDEST PUSH1 0x0 DUP3 PUSH2 0x295C JUMPI PUSH4 0x4E487B71 PUSH1 0xE0 SHL PUSH1 0x0 MSTORE PUSH1 0x12 PUSH1 0x4 MSTORE PUSH1 0x24 PUSH1 0x0 REVERT JUMPDEST POP DIV SWAP1 JUMP JUMPDEST DUP2 DUP2 SUB DUP2 DUP2 GT ISZERO PUSH2 0x2939 JUMPI PUSH2 0x2939 PUSH2 0x290C JUMP JUMPDEST DUP3 DUP5 DUP3 CALLDATACOPY PUSH1 0x60 SWAP2 SWAP1 SWAP2 SHL PUSH32 0xFFFFFFFFFFFFFFFFFFFFFFFFFFFFFFFFFFFFFFFF000000000000000000000000 AND SWAP2 ADD SWAP1 DUP2 MSTORE PUSH1 0x14 ADD SWAP2 SWAP1 POP JUMP JUMPDEST PUSH1 0x1F DUP3 GT ISZERO PUSH2 0x2212 JUMPI PUSH1 0x0 DUP2 DUP2 MSTORE PUSH1 0x20 DUP2 KECCAK256 PUSH1 0x1F DUP6 ADD PUSH1 0x5 SHR DUP2 ADD PUSH1 0x20 DUP7 LT ISZERO PUSH2 0x29D4 JUMPI POP DUP1 JUMPDEST PUSH1 0x1F DUP6 ADD PUSH1 0x5 SHR DUP3 ADD SWAP2 POP JUMPDEST DUP2 DUP2 LT ISZERO PUSH2 0xD81 JUMPI DUP3 DUP2 SSTORE PUSH1 0x1 ADD PUSH2 0x29E0 JUMP JUMPDEST DUP2 MLOAD PUSH8 0xFFFFFFFFFFFFFFFF DUP2 GT ISZERO PUSH2 0x2A0D JUMPI PUSH2 0x2A0D PUSH2 0x23ED JUMP JUMPDEST PUSH2 0x2A21 DUP2 PUSH2 0x2A1B DUP5 SLOAD PUSH2 0x284C JUMP JUMPDEST DUP5 PUSH2 0x29AD JUMP JUMPDEST PUSH1 0x20 DUP1 PUSH1 0x1F DUP4 GT PUSH1 0x1 DUP2 EQ PUSH2 0x2A56 JUMPI PUSH1 0x0 DUP5 ISZERO PUSH2 0x2A3E JUMPI POP DUP6 DUP4 ADD MLOAD JUMPDEST PUSH1 0x0 NOT PUSH1 0x3 DUP7 SWAP1 SHL SHR NOT AND PUSH1 0x1 DUP6 SWAP1 SHL OR DUP6 SSTORE PUSH2 0xD81 JUMP JUMPDEST PUSH1 0x0 DUP6 DUP2 MSTORE PUSH1 0x20 DUP2 KECCAK256 PUSH1 0x1F NOT DUP7 AND SWAP2 JUMPDEST DUP3 DUP2 LT ISZERO PUSH2 0x2A85 JUMPI DUP9 DUP7 ADD MLOAD DUP3 SSTORE SWAP5 DUP5 ADD SWAP5 PUSH1 0x1 SWAP1 SWAP2 ADD SWAP1 DUP5 ADD PUSH2 0x2A66 JUMP JUMPDEST POP DUP6 DUP3 LT ISZERO PUSH2 0x2AA3 JUMPI DUP8 DUP6 ADD MLOAD PUSH1 0x0 NOT PUSH1 0x3 DUP9 SWAP1 SHL PUSH1 0xF8 AND SHR NOT AND DUP2 SSTORE JUMPDEST POP POP POP POP POP PUSH1 0x1 SWAP1 DUP2 SHL ADD SWAP1 SSTORE POP JUMP JUMPDEST PUSH1 0x0 PUSH2 0xFFFF DUP1 DUP9 AND DUP4 MSTORE DUP1 DUP8 AND PUSH1 0x20 DUP5 ADD MSTORE POP DUP5 PUSH1 0x40 DUP4 ADD MSTORE PUSH1 0x80 PUSH1 0x60 DUP4 ADD MSTORE PUSH2 0x2AE1 PUSH1 0x80 DUP4 ADD DUP5 DUP7 PUSH2 0x28AF JUMP JUMPDEST SWAP8 SWAP7 POP POP POP POP POP POP POP JUMP JUMPDEST PUSH2 0xFFFF DUP7 AND DUP2 MSTORE PUSH1 0x80 PUSH1 0x20 DUP3 ADD MSTORE PUSH1 0x0 PUSH2 0x2B0A PUSH1 0x80 DUP4 ADD DUP7 DUP9 PUSH2 0x28AF JUMP JUMPDEST PUSH8 0xFFFFFFFFFFFFFFFF SWAP5 SWAP1 SWAP5 AND PUSH1 0x40 DUP4 ADD MSTORE POP PUSH1 0x60 ADD MSTORE SWAP4 SWAP3 POP POP POP JUMP JUMPDEST PUSH8 0xFFFFFFFFFFFFFFFF DUP4 GT ISZERO PUSH2 0x2B40 JUMPI PUSH2 0x2B40 PUSH2 0x23ED JUMP JUMPDEST PUSH2 0x2B54 DUP4 PUSH2 0x2B4E DUP4 SLOAD PUSH2 0x284C JUMP JUMPDEST DUP4 PUSH2 0x29AD JUMP JUMPDEST PUSH1 0x0 PUSH1 0x1F DUP5 GT PUSH1 0x1 DUP2 EQ PUSH2 0x2B88 JUMPI PUSH1 0x0 DUP6 ISZERO PUSH2 0x2B70 JUMPI POP DUP4 DUP3 ADD CALLDATALOAD JUMPDEST PUSH1 0x0 NOT PUSH1 0x3 DUP8 SWAP1 SHL SHR NOT AND PUSH1 0x1 DUP7 SWAP1 SHL OR DUP4 SSTORE PUSH2 0x993 JUMP JUMPDEST PUSH1 0x0 DUP4 DUP2 MSTORE PUSH1 0x20 SWAP1 KECCAK256 PUSH1 0x1F NOT DUP7 AND SWAP1 DUP4 JUMPDEST DUP3 DUP2 LT ISZERO PUSH2 0x2BB9 JUMPI DUP7 DUP6 ADD CALLDATALOAD DUP3 SSTORE PUSH1 0x20 SWAP5 DUP6 ADD SWAP5 PUSH1 0x1 SWAP1 SWAP3 ADD SWAP2 ADD PUSH2 0x2B99 JUMP JUMPDEST POP DUP7 DUP3 LT ISZERO PUSH2 0x2BD6 JUMPI PUSH1 0x0 NOT PUSH1 0xF8 DUP9 PUSH1 0x3 SHL AND SHR NOT DUP5 DUP8 ADD CALLDATALOAD AND DUP2 SSTORE JUMPDEST POP POP PUSH1 0x1 DUP6 PUSH1 0x1 SHL ADD DUP4 SSTORE POP POP POP POP POP JUMP JUMPDEST PUSH1 0x0 PUSH1 0x20 DUP3 DUP5 SUB SLT ISZERO PUSH2 0x2BFA JUMPI PUSH1 0x0 DUP1 REVERT JUMPDEST DUP2 MLOAD DUP1 ISZERO ISZERO DUP2 EQ PUSH2 0x13EF JUMPI PUSH1 0x0 DUP1 REVERT JUMPDEST PUSH1 0x0 PUSH1 0x20 DUP3 DUP5 SUB SLT ISZERO PUSH2 0x2C1C JUMPI PUSH1 0x0 DUP1 REVERT JUMPDEST DUP2 MLOAD PUSH8 0xFFFFFFFFFFFFFFFF DUP2 GT ISZERO PUSH2 0x2C33 JUMPI PUSH1 0x0 DUP1 REVERT JUMPDEST DUP3 ADD PUSH1 0x1F DUP2 ADD DUP5 SGT PUSH2 0x2C44 JUMPI PUSH1 0x0 DUP1 REVERT JUMPDEST DUP1 MLOAD PUSH2 0x2C52 PUSH2 0x24DE DUP3 PUSH2 0x245D JUMP JUMPDEST DUP2 DUP2 MSTORE DUP6 PUSH1 0x20 DUP4 DUP6 ADD ADD GT ISZERO PUSH2 0x2C67 JUMPI PUSH1 0x0 DUP1 REVERT JUMPDEST PUSH2 0x12D7 DUP3 PUSH1 0x20 DUP4 ADD PUSH1 0x20 DUP7 ADD PUSH2 0x2563 JUMP JUMPDEST PUSH2 0xFFFF DUP6 AND DUP2 MSTORE PUSH1 0x80 PUSH1 0x20 DUP3 ADD MSTORE PUSH1 0x0 PUSH2 0x2C95 PUSH1 0x80 DUP4 ADD DUP7 PUSH2 0x2587 JUMP JUMPDEST PUSH8 0xFFFFFFFFFFFFFFFF DUP6 AND PUSH1 0x40 DUP5 ADD MSTORE DUP3 DUP2 SUB PUSH1 0x60 DUP5 ADD MSTORE PUSH2 0x2AE1 DUP2 DUP6 PUSH2 0x2587 JUMP JUMPDEST DUP1 DUP3 ADD DUP1 DUP3 GT ISZERO PUSH2 0x2939 JUMPI PUSH2 0x2939 PUSH2 0x290C JUMP JUMPDEST PUSH1 0x0 PUSH1 0xC0 DUP3 ADD PUSH1 0xFF DUP10 AND DUP4 MSTORE PUSH1 0x20 DUP9 DUP2 DUP6 ADD MSTORE PUSH1 0x40 PUSH1 0x1 PUSH1 0x1 PUSH1 0xA0 SHL SUB DUP1 DUP11 AND DUP3 DUP8 ADD MSTORE PUSH1 0x60 DUP2 DUP11 AND DUP2 DUP9 ADD MSTORE PUSH1 0x80 SWAP2 POP PUSH1 0xC0 DUP3 DUP9 ADD MSTORE DUP5 DUP10 MLOAD DUP1 DUP8 MSTORE PUSH1 0xE0 DUP10 ADD SWAP2 POP DUP6 DUP12 ADD SWAP7 POP PUSH1 0x0 JUMPDEST DUP2 DUP2 LT ISZERO PUSH2 0x2D4A JUMPI DUP8 MLOAD DUP1 MLOAD DUP5 MSTORE DUP8 DUP2 ADD MLOAD DUP9 DUP6 ADD MSTORE DUP7 DUP2 ADD MLOAD DUP8 DUP6 ADD MSTORE DUP5 ADD MLOAD DUP5 DUP5 ADD MSTORE SWAP7 DUP7 ADD SWAP7 SWAP2 DUP5 ADD SWAP2 PUSH1 0x1 ADD PUSH2 0x2D15 JUMP JUMPDEST POP POP DUP1 SWAP7 POP POP POP POP POP POP POP DUP3 PUSH1 0xA0 DUP4 ADD MSTORE SWAP8 SWAP7 POP POP POP POP POP POP POP JUMP JUMPDEST PUSH2 0xFFFF DUP8 AND DUP2 MSTORE PUSH1 0xC0 PUSH1 0x20 DUP3 ADD MSTORE PUSH1 0x0 PUSH2 0x2D83 PUSH1 0xC0 DUP4 ADD DUP9 PUSH2 0x2587 JUMP JUMPDEST DUP3 DUP2 SUB PUSH1 0x40 DUP5 ADD MSTORE PUSH2 0x2D95 DUP2 DUP9 PUSH2 0x2587 JUMP JUMPDEST PUSH1 0x1 PUSH1 0x1 PUSH1 0xA0 SHL SUB DUP8 DUP2 AND PUSH1 0x60 DUP7 ADD MSTORE DUP7 AND PUSH1 0x80 DUP6 ADD MSTORE DUP4 DUP2 SUB PUSH1 0xA0 DUP6 ADD MSTORE SWAP1 POP PUSH2 0x2DC0 DUP2 DUP6 PUSH2 0x2587 JUMP JUMPDEST SWAP10 SWAP9 POP POP POP POP POP POP POP POP POP JUMP JUMPDEST PUSH1 0x0 DUP3 MLOAD PUSH2 0x2DDF DUP2 DUP5 PUSH1 0x20 DUP8 ADD PUSH2 0x2563 JUMP JUMPDEST SWAP2 SWAP1 SWAP2 ADD SWAP3 SWAP2 POP POP JUMP JUMPDEST PUSH2 0xFFFF DUP7 AND DUP2 MSTORE PUSH1 0xA0 PUSH1 0x20 DUP3 ADD MSTORE PUSH1 0x0 PUSH2 0x2E06 PUSH1 0xA0 DUP4 ADD DUP8 PUSH2 0x2587 JUMP JUMPDEST PUSH8 0xFFFFFFFFFFFFFFFF DUP7 AND PUSH1 0x40 DUP5 ADD MSTORE DUP3 DUP2 SUB PUSH1 0x60 DUP5 ADD MSTORE PUSH2 0x2E28 DUP2 DUP7 PUSH2 0x2587 JUMP JUMPDEST SWAP1 POP DUP3 DUP2 SUB PUSH1 0x80 DUP5 ADD MSTORE PUSH2 0x2E3C DUP2 DUP6 PUSH2 0x2587 JUMP JUMPDEST SWAP9 SWAP8 POP POP POP POP POP POP POP POP JUMP INVALID LOG2 PUSH5 0x6970667358 0x22 SLT KECCAK256 SHR EXP PUSH2 0xBA8C SWAP3 SHR LOG0 0xC9 0xCD 0xFC RETURN 0xDD AND PUSH2 0xEFAC 0xA9 SLT STATICCALL 0xCD JUMPI GASPRICE 0xAF BALANCE RETURNDATACOPY 0xAF 0xD7 0xD7 MSIZE LOG1 MOD PUSH5 0x736F6C6343 STOP ADDMOD EQ STOP CALLER "},"methodIdentifiers":{"DEFAULT_PAYLOAD_SIZE_LIMIT()":"c4461834","createProject(address,address,(uint256,uint256,uint256,uint256)[],uint256)":"cbcb86d2","failedMessages(uint16,bytes,uint64)":"5b8c41e6","forceResumeReceive(uint16,bytes)":"42d65a8d","getConfig(uint16,uint16,address,uint256)":"f5ecbdbc","getInvestingProgress(bytes32,uint8)":"6ff0a2d1","getTicketValue(bytes32,uint256)":"7edc1b5a","getTrustedRemoteAddress(uint16)":"9f38369a","investProjectInterchain(bytes32,uint8,uint256,uint256)":"ef252efc","isTrustedRemote(uint16,bytes)":"3d8b38f6","lzChainId()":"917c4156","lzEndpoint()":"b353aaa7","lzReceive(uint16,bytes,uint64,bytes)":"001d3567","minDstGasLookup(uint16,uint16)":"8cfd8f5c","nonblockingLzReceive(uint16,bytes,uint64,bytes)":"66ad5c8a","owner()":"8da5cb5b","payloadSizeLimitLookup(uint16)":"3f1f4fa4","precrime()":"950c8a74","renounceOwnership()":"715018a6","retryMessage(uint16,bytes,uint64,bytes)":"d1deba1f","setConfig(uint16,uint16,uint256,bytes)":"cbed8b9c","setMinDstGas(uint16,uint16,uint256)":"df2a5b3b","setPayloadSizeLimit(uint16,uint256)":"0df37483","setPrecrime(address)":"baf3292d","setReceiveVersion(uint16)":"10ddb137","setSendVersion(uint16)":"07e0db17","setToken(address)":"144fa6d7","setTrustedRemote(uint16,bytes)":"eb8d72b7","setTrustedRemoteAddress(uint16,bytes)":"a6c3d165","token()":"fc0c546a","transferOwnership(address)":"f2fde38b","trustedRemoteLookup(uint16)":"7533d788","withdraw()":"3ccfd60b"}}}}}