{
  "_format": "hh-sol-artifact-1",
  "contractName": "SubRegistry",
  "sourceName": "contracts/SubRegistry.sol",
  "abi": [
    {
      "inputs": [
        {
          "internalType": "address",
          "name": "_endpoint",
          "type": "address"
        },
        {
          "internalType": "address",
          "name": "_owner",
          "type": "address"
        },
        {
          "internalType": "uint256",
          "name": "_lzChainId",
          "type": "uint256"
        },
        {
          "internalType": "address",
          "name": "_token",
          "type": "address"
        }
      ],
      "stateMutability": "nonpayable",
      "type": "constructor"
    },
    {
      "inputs": [
        {
          "internalType": "address",
          "name": "owner",
          "type": "address"
        }
      ],
      "name": "OwnableInvalidOwner",
      "type": "error"
    },
    {
      "inputs": [
        {
          "internalType": "address",
          "name": "account",
          "type": "address"
        }
      ],
      "name": "OwnableUnauthorizedAccount",
      "type": "error"
    },
    {
      "anonymous": false,
      "inputs": [
        {
          "indexed": false,
          "internalType": "uint16",
          "name": "_srcChainId",
          "type": "uint16"
        },
        {
          "indexed": false,
          "internalType": "bytes",
          "name": "_srcAddress",
          "type": "bytes"
        },
        {
          "indexed": false,
          "internalType": "uint64",
          "name": "_nonce",
          "type": "uint64"
        },
        {
          "indexed": false,
          "internalType": "bytes",
          "name": "_payload",
          "type": "bytes"
        },
        {
          "indexed": false,
          "internalType": "bytes",
          "name": "_reason",
          "type": "bytes"
        }
      ],
      "name": "MessageFailed",
      "type": "event"
    },
    {
      "anonymous": false,
      "inputs": [
        {
          "indexed": true,
          "internalType": "address",
          "name": "previousOwner",
          "type": "address"
        },
        {
          "indexed": true,
          "internalType": "address",
          "name": "newOwner",
          "type": "address"
        }
      ],
      "name": "OwnershipTransferred",
      "type": "event"
    },
    {
      "anonymous": false,
      "inputs": [
        {
          "indexed": false,
          "internalType": "bytes32",
          "name": "projectId",
          "type": "bytes32"
        },
        {
          "indexed": false,
          "internalType": "address",
          "name": "owner",
          "type": "address"
        },
        {
          "indexed": false,
          "internalType": "uint256",
          "name": "numberOfStage",
          "type": "uint256"
        }
      ],
      "name": "ProjectCreated",
      "type": "event"
    },
    {
      "anonymous": false,
      "inputs": [
        {
          "indexed": false,
          "internalType": "bytes32",
          "name": "projectId",
          "type": "bytes32"
        },
        {
          "indexed": false,
          "internalType": "address",
          "name": "investor",
          "type": "address"
        },
        {
          "indexed": false,
          "internalType": "uint256",
          "name": "round",
          "type": "uint256"
        },
        {
          "indexed": false,
          "internalType": "uint256",
          "name": "amountOfTicket",
          "type": "uint256"
        }
      ],
      "name": "ProjectInvested",
      "type": "event"
    },
    {
      "anonymous": false,
      "inputs": [
        {
          "indexed": false,
          "internalType": "uint16",
          "name": "_srcChainId",
          "type": "uint16"
        },
        {
          "indexed": false,
          "internalType": "bytes",
          "name": "_srcAddress",
          "type": "bytes"
        },
        {
          "indexed": false,
          "internalType": "uint64",
          "name": "_nonce",
          "type": "uint64"
        },
        {
          "indexed": false,
          "internalType": "bytes32",
          "name": "_payloadHash",
          "type": "bytes32"
        }
      ],
      "name": "RetryMessageSuccess",
      "type": "event"
    },
    {
      "anonymous": false,
      "inputs": [
        {
          "indexed": false,
          "internalType": "uint16",
          "name": "_dstChainId",
          "type": "uint16"
        },
        {
          "indexed": false,
          "internalType": "uint16",
          "name": "_type",
          "type": "uint16"
        },
        {
          "indexed": false,
          "internalType": "uint256",
          "name": "_minDstGas",
          "type": "uint256"
        }
      ],
      "name": "SetMinDstGas",
      "type": "event"
    },
    {
      "anonymous": false,
      "inputs": [
        {
          "indexed": false,
          "internalType": "address",
          "name": "precrime",
          "type": "address"
        }
      ],
      "name": "SetPrecrime",
      "type": "event"
    },
    {
      "anonymous": false,
      "inputs": [
        {
          "indexed": false,
          "internalType": "uint16",
          "name": "_remoteChainId",
          "type": "uint16"
        },
        {
          "indexed": false,
          "internalType": "bytes",
          "name": "_path",
          "type": "bytes"
        }
      ],
      "name": "SetTrustedRemote",
      "type": "event"
    },
    {
      "anonymous": false,
      "inputs": [
        {
          "indexed": false,
          "internalType": "uint16",
          "name": "_remoteChainId",
          "type": "uint16"
        },
        {
          "indexed": false,
          "internalType": "bytes",
          "name": "_remoteAddress",
          "type": "bytes"
        }
      ],
      "name": "SetTrustedRemoteAddress",
      "type": "event"
    },
    {
      "inputs": [],
      "name": "DEFAULT_PAYLOAD_SIZE_LIMIT",
      "outputs": [
        {
          "internalType": "uint256",
          "name": "",
          "type": "uint256"
        }
      ],
      "stateMutability": "view",
      "type": "function"
    },
    {
      "inputs": [
        {
          "internalType": "address",
          "name": "_owner",
          "type": "address"
        },
        {
          "internalType": "address",
          "name": "_tick",
          "type": "address"
        },
        {
          "components": [
            {
              "internalType": "uint256",
              "name": "startTime",
              "type": "uint256"
            },
            {
              "internalType": "uint256",
              "name": "endTime",
              "type": "uint256"
            },
            {
              "internalType": "uint256",
              "name": "fundingDemand",
              "type": "uint256"
            },
            {
              "internalType": "uint256",
              "name": "totalTicket",
              "type": "uint256"
            }
          ],
          "internalType": "struct SubRegistry.Round[]",
          "name": "_rounds",
          "type": "tuple[]"
        },
        {
          "internalType": "uint256",
          "name": "_changeFee",
          "type": "uint256"
        }
      ],
      "name": "createProject",
      "outputs": [],
      "stateMutability": "payable",
      "type": "function"
    },
    {
      "inputs": [
        {
          "internalType": "uint16",
          "name": "",
          "type": "uint16"
        },
        {
          "internalType": "bytes",
          "name": "",
          "type": "bytes"
        },
        {
          "internalType": "uint64",
          "name": "",
          "type": "uint64"
        }
      ],
      "name": "failedMessages",
      "outputs": [
        {
          "internalType": "bytes32",
          "name": "",
          "type": "bytes32"
        }
      ],
      "stateMutability": "view",
      "type": "function"
    },
    {
      "inputs": [
        {
          "internalType": "uint16",
          "name": "_srcChainId",
          "type": "uint16"
        },
        {
          "internalType": "bytes",
          "name": "_srcAddress",
          "type": "bytes"
        }
      ],
      "name": "forceResumeReceive",
      "outputs": [],
      "stateMutability": "nonpayable",
      "type": "function"
    },
    {
      "inputs": [
        {
          "internalType": "uint16",
          "name": "_version",
          "type": "uint16"
        },
        {
          "internalType": "uint16",
          "name": "_chainId",
          "type": "uint16"
        },
        {
          "internalType": "address",
          "name": "",
          "type": "address"
        },
        {
          "internalType": "uint256",
          "name": "_configType",
          "type": "uint256"
        }
      ],
      "name": "getConfig",
      "outputs": [
        {
          "internalType": "bytes",
          "name": "",
          "type": "bytes"
        }
      ],
      "stateMutability": "view",
      "type": "function"
    },
    {
      "inputs": [
        {
          "internalType": "bytes32",
          "name": "_projectId",
          "type": "bytes32"
        },
        {
          "internalType": "uint8",
          "name": "_round",
          "type": "uint8"
        }
      ],
      "name": "getInvestingProgress",
      "outputs": [
        {
          "internalType": "uint256",
          "name": "",
          "type": "uint256"
        },
        {
          "internalType": "uint256",
          "name": "",
          "type": "uint256"
        }
      ],
      "stateMutability": "view",
      "type": "function"
    },
    {
      "inputs": [
        {
          "internalType": "bytes32",
          "name": "_projectId",
          "type": "bytes32"
        },
        {
          "internalType": "uint256",
          "name": "_round",
          "type": "uint256"
        }
      ],
      "name": "getTicketValue",
      "outputs": [
        {
          "internalType": "uint256",
          "name": "",
          "type": "uint256"
        }
      ],
      "stateMutability": "view",
      "type": "function"
    },
    {
      "inputs": [
        {
          "internalType": "uint16",
          "name": "_remoteChainId",
          "type": "uint16"
        }
      ],
      "name": "getTrustedRemoteAddress",
      "outputs": [
        {
          "internalType": "bytes",
          "name": "",
          "type": "bytes"
        }
      ],
      "stateMutability": "view",
      "type": "function"
    },
    {
      "inputs": [
        {
          "internalType": "bytes32",
          "name": "_projectId",
          "type": "bytes32"
        },
        {
          "internalType": "uint8",
          "name": "_round",
          "type": "uint8"
        },
        {
          "internalType": "uint256",
          "name": "_amountOfTicket",
          "type": "uint256"
        },
        {
          "internalType": "uint256",
          "name": "_ticketValue",
          "type": "uint256"
        }
      ],
      "name": "investProjectInterchain",
      "outputs": [],
      "stateMutability": "payable",
      "type": "function"
    },
    {
      "inputs": [
        {
          "internalType": "uint16",
          "name": "_srcChainId",
          "type": "uint16"
        },
        {
          "internalType": "bytes",
          "name": "_srcAddress",
          "type": "bytes"
        }
      ],
      "name": "isTrustedRemote",
      "outputs": [
        {
          "internalType": "bool",
          "name": "",
          "type": "bool"
        }
      ],
      "stateMutability": "view",
      "type": "function"
    },
    {
      "inputs": [],
      "name": "lzChainId",
      "outputs": [
        {
          "internalType": "uint256",
          "name": "",
          "type": "uint256"
        }
      ],
      "stateMutability": "view",
      "type": "function"
    },
    {
      "inputs": [],
      "name": "lzEndpoint",
      "outputs": [
        {
          "internalType": "contract ILayerZeroEndpoint",
          "name": "",
          "type": "address"
        }
      ],
      "stateMutability": "view",
      "type": "function"
    },
    {
      "inputs": [
        {
          "internalType": "uint16",
          "name": "_srcChainId",
          "type": "uint16"
        },
        {
          "internalType": "bytes",
          "name": "_srcAddress",
          "type": "bytes"
        },
        {
          "internalType": "uint64",
          "name": "_nonce",
          "type": "uint64"
        },
        {
          "internalType": "bytes",
          "name": "_payload",
          "type": "bytes"
        }
      ],
      "name": "lzReceive",
      "outputs": [],
      "stateMutability": "nonpayable",
      "type": "function"
    },
    {
      "inputs": [
        {
          "internalType": "uint16",
          "name": "",
          "type": "uint16"
        },
        {
          "internalType": "uint16",
          "name": "",
          "type": "uint16"
        }
      ],
      "name": "minDstGasLookup",
      "outputs": [
        {
          "internalType": "uint256",
          "name": "",
          "type": "uint256"
        }
      ],
      "stateMutability": "view",
      "type": "function"
    },
    {
      "inputs": [
        {
          "internalType": "uint16",
          "name": "_srcChainId",
          "type": "uint16"
        },
        {
          "internalType": "bytes",
          "name": "_srcAddress",
          "type": "bytes"
        },
        {
          "internalType": "uint64",
          "name": "_nonce",
          "type": "uint64"
        },
        {
          "internalType": "bytes",
          "name": "_payload",
          "type": "bytes"
        }
      ],
      "name": "nonblockingLzReceive",
      "outputs": [],
      "stateMutability": "nonpayable",
      "type": "function"
    },
    {
      "inputs": [],
      "name": "owner",
      "outputs": [
        {
          "internalType": "address",
          "name": "",
          "type": "address"
        }
      ],
      "stateMutability": "view",
      "type": "function"
    },
    {
      "inputs": [
        {
          "internalType": "uint16",
          "name": "",
          "type": "uint16"
        }
      ],
      "name": "payloadSizeLimitLookup",
      "outputs": [
        {
          "internalType": "uint256",
          "name": "",
          "type": "uint256"
        }
      ],
      "stateMutability": "view",
      "type": "function"
    },
    {
      "inputs": [],
      "name": "precrime",
      "outputs": [
        {
          "internalType": "address",
          "name": "",
          "type": "address"
        }
      ],
      "stateMutability": "view",
      "type": "function"
    },
    {
      "inputs": [],
      "name": "renounceOwnership",
      "outputs": [],
      "stateMutability": "nonpayable",
      "type": "function"
    },
    {
      "inputs": [
        {
          "internalType": "uint16",
          "name": "_srcChainId",
          "type": "uint16"
        },
        {
          "internalType": "bytes",
          "name": "_srcAddress",
          "type": "bytes"
        },
        {
          "internalType": "uint64",
          "name": "_nonce",
          "type": "uint64"
        },
        {
          "internalType": "bytes",
          "name": "_payload",
          "type": "bytes"
        }
      ],
      "name": "retryMessage",
      "outputs": [],
      "stateMutability": "payable",
      "type": "function"
    },
    {
      "inputs": [
        {
          "internalType": "uint16",
          "name": "_version",
          "type": "uint16"
        },
        {
          "internalType": "uint16",
          "name": "_chainId",
          "type": "uint16"
        },
        {
          "internalType": "uint256",
          "name": "_configType",
          "type": "uint256"
        },
        {
          "internalType": "bytes",
          "name": "_config",
          "type": "bytes"
        }
      ],
      "name": "setConfig",
      "outputs": [],
      "stateMutability": "nonpayable",
      "type": "function"
    },
    {
      "inputs": [
        {
          "internalType": "uint16",
          "name": "_dstChainId",
          "type": "uint16"
        },
        {
          "internalType": "uint16",
          "name": "_packetType",
          "type": "uint16"
        },
        {
          "internalType": "uint256",
          "name": "_minGas",
          "type": "uint256"
        }
      ],
      "name": "setMinDstGas",
      "outputs": [],
      "stateMutability": "nonpayable",
      "type": "function"
    },
    {
      "inputs": [
        {
          "internalType": "uint16",
          "name": "_dstChainId",
          "type": "uint16"
        },
        {
          "internalType": "uint256",
          "name": "_size",
          "type": "uint256"
        }
      ],
      "name": "setPayloadSizeLimit",
      "outputs": [],
      "stateMutability": "nonpayable",
      "type": "function"
    },
    {
      "inputs": [
        {
          "internalType": "address",
          "name": "_precrime",
          "type": "address"
        }
      ],
      "name": "setPrecrime",
      "outputs": [],
      "stateMutability": "nonpayable",
      "type": "function"
    },
    {
      "inputs": [
        {
          "internalType": "uint16",
          "name": "_version",
          "type": "uint16"
        }
      ],
      "name": "setReceiveVersion",
      "outputs": [],
      "stateMutability": "nonpayable",
      "type": "function"
    },
    {
      "inputs": [
        {
          "internalType": "uint16",
          "name": "_version",
          "type": "uint16"
        }
      ],
      "name": "setSendVersion",
      "outputs": [],
      "stateMutability": "nonpayable",
      "type": "function"
    },
    {
      "inputs": [
        {
          "internalType": "address",
          "name": "_token",
          "type": "address"
        }
      ],
      "name": "setToken",
      "outputs": [],
      "stateMutability": "nonpayable",
      "type": "function"
    },
    {
      "inputs": [
        {
          "internalType": "uint16",
          "name": "_remoteChainId",
          "type": "uint16"
        },
        {
          "internalType": "bytes",
          "name": "_path",
          "type": "bytes"
        }
      ],
      "name": "setTrustedRemote",
      "outputs": [],
      "stateMutability": "nonpayable",
      "type": "function"
    },
    {
      "inputs": [
        {
          "internalType": "uint16",
          "name": "_remoteChainId",
          "type": "uint16"
        },
        {
          "internalType": "bytes",
          "name": "_remoteAddress",
          "type": "bytes"
        }
      ],
      "name": "setTrustedRemoteAddress",
      "outputs": [],
      "stateMutability": "nonpayable",
      "type": "function"
    },
    {
      "inputs": [],
      "name": "token",
      "outputs": [
        {
          "internalType": "contract IERC20",
          "name": "",
          "type": "address"
        }
      ],
      "stateMutability": "view",
      "type": "function"
    },
    {
      "inputs": [
        {
          "internalType": "address",
          "name": "newOwner",
          "type": "address"
        }
      ],
      "name": "transferOwnership",
      "outputs": [],
      "stateMutability": "nonpayable",
      "type": "function"
    },
    {
      "inputs": [
        {
          "internalType": "uint16",
          "name": "",
          "type": "uint16"
        }
      ],
      "name": "trustedRemoteLookup",
      "outputs": [
        {
          "internalType": "bytes",
          "name": "",
          "type": "bytes"
        }
      ],
      "stateMutability": "view",
      "type": "function"
    },
    {
      "inputs": [],
      "name": "withdraw",
      "outputs": [],
      "stateMutability": "nonpayable",
      "type": "function"
    }
  ],
  "bytecode": "0x60c06040523480156200001157600080fd5b506040516200304238038062003042833981016040819052620000349162000112565b8380846001600160a01b0381166200006657604051631e4fbdf760e01b81526000600482015260240160405180910390fd5b6200007181620000a5565b506001600160a01b0390811660805260a09390935250600780546001600160a01b0319169190921617905550620001669050565b600080546001600160a01b038381166001600160a01b0319831681178455604051919092169283917f8be0079c531659141344cd1fd0a4f28419497f9722a3daafe3b4186f6b6457e09190a35050565b80516001600160a01b03811681146200010d57600080fd5b919050565b600080600080608085870312156200012957600080fd5b6200013485620000f5565b93506200014460208601620000f5565b9250604085015191506200015b60608601620000f5565b905092959194509250565b60805160a051612e7e620001c4600039600081816104cb0152611dd401526000818161055f015281816106b301528181610932015281816109f301528181610c2f0152818161153a01528181611ae80152611ffc0152612e7e6000f3fe6080604052600436106101fd5760003560e01c80638da5cb5b1161011d578063cbcb86d2116100b0578063eb8d72b71161007f578063f2fde38b11610064578063f2fde38b14610650578063f5ecbdbc14610670578063fc0c546a1461069057600080fd5b8063eb8d72b71461061d578063ef252efc1461063d57600080fd5b8063cbcb86d2146105b7578063cbed8b9c146105ca578063d1deba1f146105ea578063df2a5b3b146105fd57600080fd5b8063a6c3d165116100ec578063a6c3d1651461052d578063b353aaa71461054d578063baf3292d14610581578063c4461834146105a157600080fd5b80638da5cb5b14610487578063917c4156146104b9578063950c8a74146104ed5780639f38369a1461050d57600080fd5b806342d65a8d11610195578063715018a611610164578063715018a6146103ed5780637533d788146104025780637edc1b5a1461042f5780638cfd8f5c1461044f57600080fd5b806342d65a8d146103295780635b8c41e61461034957806366ad5c8a146103985780636ff0a2d1146103b857600080fd5b8063144fa6d7116101d1578063144fa6d7146102845780633ccfd60b146102a45780633d8b38f6146102b95780633f1f4fa4146102ee57600080fd5b80621d35671461020257806307e0db17146102245780630df374831461024457806310ddb13714610264575b600080fd5b34801561020e57600080fd5b5061022261021d36600461228f565b6106b0565b005b34801561023057600080fd5b5061022261023f366004612323565b6108f8565b34801561025057600080fd5b5061022261025f36600461233e565b61099a565b34801561027057600080fd5b5061022261027f366004612323565b6109b9565b34801561029057600080fd5b5061022261029f36600461237f565b610a2a565b3480156102b057600080fd5b50610222610a61565b3480156102c557600080fd5b506102d96102d436600461239a565b610b2b565b60405190151581526020015b60405180910390f35b3480156102fa57600080fd5b5061031b610309366004612323565b60036020526000908152604090205481565b6040519081526020016102e5565b34801561033557600080fd5b5061022261034436600461239a565b610bf7565b34801561035557600080fd5b5061031b610364366004612485565b6005602090815260009384526040808520845180860184018051928152908401958401959095209452929052825290205481565b3480156103a457600080fd5b506102226103b336600461228f565b610c96565b3480156103c457600080fd5b506103d86103d3366004612537565b610d89565b604080519283526020830191909152016102e5565b3480156103f957600080fd5b50610222610fdc565b34801561040e57600080fd5b5061042261041d366004612323565b610ff0565b6040516102e591906125b3565b34801561043b57600080fd5b5061031b61044a3660046125c6565b61108a565b34801561045b57600080fd5b5061031b61046a3660046125e8565b600260209081526000928352604080842090915290825290205481565b34801561049357600080fd5b506000546001600160a01b03165b6040516001600160a01b0390911681526020016102e5565b3480156104c557600080fd5b5061031b7f000000000000000000000000000000000000000000000000000000000000000081565b3480156104f957600080fd5b506004546104a1906001600160a01b031681565b34801561051957600080fd5b50610422610528366004612323565b6112e0565b34801561053957600080fd5b5061022261054836600461239a565b6113f6565b34801561055957600080fd5b506104a17f000000000000000000000000000000000000000000000000000000000000000081565b34801561058d57600080fd5b5061022261059c36600461237f565b61147f565b3480156105ad57600080fd5b5061031b61271081565b6102226105c5366004612612565b6114e8565b3480156105d657600080fd5b506102226105e536600461271b565b611502565b6102226105f836600461228f565b6115b0565b34801561060957600080fd5b5061022261061836600461278a565b6117fe565b34801561062957600080fd5b5061022261063836600461239a565b611868565b61022261064b3660046127c6565b6118c2565b34801561065c57600080fd5b5061022261066b36600461237f565b611a4a565b34801561067c57600080fd5b5061042261068b366004612801565b611a9e565b34801561069c57600080fd5b506007546104a1906001600160a01b031681565b337f00000000000000000000000000000000000000000000000000000000000000006001600160a01b03161461072d5760405162461bcd60e51b815260206004820152601e60248201527f4c7a4170703a20696e76616c696420656e64706f696e742063616c6c6572000060448201526064015b60405180910390fd5b61ffff86166000908152600160205260408120805461074b9061284c565b80601f01602080910402602001604051908101604052809291908181526020018280546107779061284c565b80156107c45780601f10610799576101008083540402835291602001916107c4565b820191906000526020600020905b8154815290600101906020018083116107a757829003601f168201915b505050505090508051868690501480156107df575060008151115b80156108075750805160208201206040516107fd9088908890612886565b6040518091039020145b6108795760405162461bcd60e51b815260206004820152602660248201527f4c7a4170703a20696e76616c696420736f757263652073656e64696e6720636f60448201527f6e747261637400000000000000000000000000000000000000000000000000006064820152608401610724565b6108ef8787878080601f01602080910402602001604051908101604052809392919081815260200183838082843760009201919091525050604080516020601f8a018190048102820181019092528881528a935091508890889081908401838280828437600092019190915250611b5f92505050565b50505050505050565b610900611c05565b6040517f07e0db1700000000000000000000000000000000000000000000000000000000815261ffff821660048201527f00000000000000000000000000000000000000000000000000000000000000006001600160a01b0316906307e0db17906024015b600060405180830381600087803b15801561097f57600080fd5b505af1158015610993573d6000803e3d6000fd5b5050505050565b6109a2611c05565b61ffff909116600090815260036020526040902055565b6109c1611c05565b6040517f10ddb13700000000000000000000000000000000000000000000000000000000815261ffff821660048201527f00000000000000000000000000000000000000000000000000000000000000006001600160a01b0316906310ddb13790602401610965565b610a32611c05565b6007805473ffffffffffffffffffffffffffffffffffffffff19166001600160a01b0392909216919091179055565b610a69611c05565b6000546001600160a01b03166007546040517f70a082310000000000000000000000000000000000000000000000000000000081523060048201526001600160a01b03928316926108fc9216906370a0823190602401602060405180830381865afa158015610adc573d6000803e3d6000fd5b505050506040513d601f19601f82011682018060405250810190610b009190612896565b6040518115909202916000818181858888f19350505050158015610b28573d6000803e3d6000fd5b50565b61ffff831660009081526001602052604081208054829190610b4c9061284c565b80601f0160208091040260200160405190810160405280929190818152602001828054610b789061284c565b8015610bc55780601f10610b9a57610100808354040283529160200191610bc5565b820191906000526020600020905b815481529060010190602001808311610ba857829003601f168201915b505050505090508383604051610bdc929190612886565b60405180910390208180519060200120149150509392505050565b610bff611c05565b6040517f42d65a8d0000000000000000000000000000000000000000000000000000000081526001600160a01b037f000000000000000000000000000000000000000000000000000000000000000016906342d65a8d90610c68908690869086906004016128d8565b600060405180830381600087803b158015610c8257600080fd5b505af11580156108ef573d6000803e3d6000fd5b333014610d0b5760405162461bcd60e51b815260206004820152602660248201527f4e6f6e626c6f636b696e674c7a4170703a2063616c6c6572206d75737420626560448201527f204c7a41707000000000000000000000000000000000000000000000000000006064820152608401610724565b610d818686868080601f01602080910402602001604051908101604052809392919081815260200183838082843760009201919091525050604080516020601f8901819004810282018101909252878152899350915087908790819084018382808284376000920191909152506114fc92505050565b505050505050565b6000828152600860205260408120600101548190849060ff8516906001600160a01b0316610df95760405162461bcd60e51b815260206004820152601160248201527f496e76616c69642070726f6a65637449640000000000000000000000000000006044820152606401610724565b6000828152600860205260409020600201548110610e595760405162461bcd60e51b815260206004820152601260248201527f496e76616c696420726f756e64496e64657800000000000000000000000000006044820152606401610724565b6000828152600860205260409020600201805442919083908110610e7f57610e7f6128f6565b90600052602060002090600402016000015410610ede5760405162461bcd60e51b815260206004820152601d60248201527f526f756e64206e6f74206f70656e20666f7220696e76657374207965740000006044820152606401610724565b6000828152600860205260409020600201805442919083908110610f0457610f046128f6565b90600052602060002090600402016001015411610f635760405162461bcd60e51b815260206004820152600f60248201527f526f756e642068617320656e64656400000000000000000000000000000000006044820152606401610724565b610f70868660ff1661108a565b600087815260096020908152604080832060ff8a168452909152902054610f979190612922565b6000878152600860205260409020600201805460ff8816908110610fbd57610fbd6128f6565b9060005260206000209060040201600201549350935050509250929050565b610fe4611c05565b610fee6000611c4b565b565b600160205260009081526040902080546110099061284c565b80601f01602080910402602001604051908101604052809291908181526020018280546110359061284c565b80156110825780601f1061105757610100808354040283529160200191611082565b820191906000526020600020905b81548152906001019060200180831161106557829003601f168201915b505050505081565b600082815260086020526040812060010154839083906001600160a01b03166110f55760405162461bcd60e51b815260206004820152601160248201527f496e76616c69642070726f6a65637449640000000000000000000000000000006044820152606401610724565b60008281526008602052604090206002015481106111555760405162461bcd60e51b815260206004820152601260248201527f496e76616c696420726f756e64496e64657800000000000000000000000000006044820152606401610724565b600082815260086020526040902060020180544291908390811061117b5761117b6128f6565b906000526020600020906004020160000154106111da5760405162461bcd60e51b815260206004820152601d60248201527f526f756e64206e6f74206f70656e20666f7220696e76657374207965740000006044820152606401610724565b6000828152600860205260409020600201805442919083908110611200576112006128f6565b9060005260206000209060040201600101541161125f5760405162461bcd60e51b815260206004820152600f60248201527f526f756e642068617320656e64656400000000000000000000000000000000006044820152606401610724565b6000858152600860205260409020600201805485908110611282576112826128f6565b9060005260206000209060040201600301546008600087815260200190815260200160002060020185815481106112bb576112bb6128f6565b9060005260206000209060040201600201546112d7919061293f565b95945050505050565b61ffff81166000908152600160205260408120805460609291906113039061284c565b80601f016020809104026020016040519081016040528092919081815260200182805461132f9061284c565b801561137c5780601f106113515761010080835404028352916020019161137c565b820191906000526020600020905b81548152906001019060200180831161135f57829003601f168201915b5050505050905080516000036113d45760405162461bcd60e51b815260206004820152601d60248201527f4c7a4170703a206e6f20747275737465642070617468207265636f72640000006044820152606401610724565b6113ef6000601483516113e79190612961565b839190611ca8565b9392505050565b6113fe611c05565b81813060405160200161141393929190612974565b60408051601f1981840301815291815261ffff851660009081526001602052209061143e90826129f3565b507f8c0400cfe2d1199b1a725c78960bcc2a344d869b80590d0f2bd005db15a572ce838383604051611472939291906128d8565b60405180910390a1505050565b611487611c05565b6004805473ffffffffffffffffffffffffffffffffffffffff19166001600160a01b0383169081179091556040519081527f5db758e995a17ec1ad84bdef7e8c3293a0bd6179bcce400dff5d4c3d87db726b9060200160405180910390a150565b6114f0611c05565b6114fc84848484611dd0565b50505050565b61150a611c05565b6040517fcbed8b9c0000000000000000000000000000000000000000000000000000000081526001600160a01b037f0000000000000000000000000000000000000000000000000000000000000000169063cbed8b9c906115779088908890889088908890600401612ab3565b600060405180830381600087803b15801561159157600080fd5b505af11580156115a5573d6000803e3d6000fd5b505050505050505050565b61ffff861660009081526005602052604080822090516115d39088908890612886565b908152604080516020928190038301902067ffffffffffffffff87166000908152925290205490508061166e5760405162461bcd60e51b815260206004820152602360248201527f4e6f6e626c6f636b696e674c7a4170703a206e6f2073746f726564206d65737360448201527f61676500000000000000000000000000000000000000000000000000000000006064820152608401610724565b80838360405161167f929190612886565b6040518091039020146116fa5760405162461bcd60e51b815260206004820152602160248201527f4e6f6e626c6f636b696e674c7a4170703a20696e76616c6964207061796c6f6160448201527f64000000000000000000000000000000000000000000000000000000000000006064820152608401610724565b61ffff8716600090815260056020526040808220905161171d9089908990612886565b908152604080516020928190038301812067ffffffffffffffff8916600090815290845282902093909355601f880182900482028301820190528682526117b6918991899089908190840183828082843760009201919091525050604080516020601f8a018190048102820181019092528881528a9350915088908890819084018382808284376000920191909152506114fc92505050565b7fc264d91f3adc5588250e1551f547752ca0cfa8f6b530d243b9f9f4cab10ea8e587878787856040516117ed959493929190612aec565b60405180910390a150505050505050565b611806611c05565b61ffff83811660008181526002602090815260408083209487168084529482529182902085905581519283528201929092529081018290527f9d5c7c0b934da8fefa9c7760c98383778a12dfbfc0c3b3106518f43fb9508ac090606001611472565b611870611c05565b61ffff8316600090815260016020526040902061188e828483612b28565b507ffa41487ad5d6728f0b19276fa1eddc16558578f5109fc39d2dc33c3230470dab838383604051611472939291906128d8565b60006118ce8284612922565b6007546040517f23b872dd000000000000000000000000000000000000000000000000000000008152336004820152306024820152604481018390529192506001600160a01b0316906323b872dd906064016020604051808303816000875af115801561193f573d6000803e3d6000fd5b505050506040513d601f19601f820116820180604052508101906119639190612be8565b6119af5760405162461bcd60e51b815260206004820152601560248201527f5472616e7366657220746f6b656e206661696c656400000000000000000000006044820152606401610724565b604080516001602082015233918101919091526060810186905260ff8516608082015260a0810184905260c08101839052610993906127899060e0015b60408051601f19818403018152908290527e010000000000000000000000000000000000000000000000000000000000006020830152631dcd6500602283015290339060009060420160405160208183030381529060405234611eac565b611a52611c05565b6001600160a01b038116611a95576040517f1e4fbdf700000000000000000000000000000000000000000000000000000000815260006004820152602401610724565b610b2881611c4b565b6040517ff5ecbdbc00000000000000000000000000000000000000000000000000000000815261ffff808616600483015284166024820152306044820152606481018290526060907f00000000000000000000000000000000000000000000000000000000000000006001600160a01b03169063f5ecbdbc90608401600060405180830381865afa158015611b37573d6000803e3d6000fd5b505050506040513d6000823e601f3d908101601f191682016040526112d79190810190612c0a565b600080611bef5a60966366ad5c8a60e01b89898989604051602401611b879493929190612c78565b60408051601f198184030181529190526020810180517bffffffffffffffffffffffffffffffffffffffffffffffffffffffff167fffffffff000000000000000000000000000000000000000000000000000000009093169290921790915230929190612078565b9150915081610d8157610d818686868685612103565b6000546001600160a01b03163314610fee576040517f118cdaa7000000000000000000000000000000000000000000000000000000008152336004820152602401610724565b600080546001600160a01b0383811673ffffffffffffffffffffffffffffffffffffffff19831681178455604051919092169283917f8be0079c531659141344cd1fd0a4f28419497f9722a3daafe3b4186f6b6457e09190a35050565b606081611cb681601f612cb7565b1015611d045760405162461bcd60e51b815260206004820152600e60248201527f736c6963655f6f766572666c6f770000000000000000000000000000000000006044820152606401610724565b611d0e8284612cb7565b84511015611d5e5760405162461bcd60e51b815260206004820152601160248201527f736c6963655f6f75744f66426f756e64730000000000000000000000000000006044820152606401610724565b606082158015611d7d5760405191506000825260208201604052611dc7565b6040519150601f8416801560200281840101858101878315602002848b0101015b81831015611db6578051835260209283019201611d9e565b5050858452601f01601f1916604052505b50949350505050565b60007f0000000000000000000000000000000000000000000000000000000000000000600654604051602001611e10929190918252602082015260400190565b604051602081830303815290604052805190602001209050600160066000828254611e3b9190612cb7565b90915550508251604080518381526001600160a01b038816602082015280820192909252517f0180774375ef39389cb651d758650eb357746210f60ee333a675d3b6c4343b259181900360600190a1610993612789600083888888886040516020016119ec96959493929190612cca565b61ffff861660009081526001602052604081208054611eca9061284c565b80601f0160208091040260200160405190810160405280929190818152602001828054611ef69061284c565b8015611f435780601f10611f1857610100808354040283529160200191611f43565b820191906000526020600020905b815481529060010190602001808311611f2657829003601f168201915b505050505090508051600003611fc15760405162461bcd60e51b815260206004820152603060248201527f4c7a4170703a2064657374696e6174696f6e20636861696e206973206e6f742060448201527f61207472757374656420736f75726365000000000000000000000000000000006064820152608401610724565b611fcc8787516121a1565b6040517fc58031000000000000000000000000000000000000000000000000000000000081526001600160a01b037f0000000000000000000000000000000000000000000000000000000000000000169063c580310090849061203d908b9086908c908c908c908c90600401612d66565b6000604051808303818588803b15801561205657600080fd5b505af115801561206a573d6000803e3d6000fd5b505050505050505050505050565b6000606060008060008661ffff1667ffffffffffffffff81111561209e5761209e6123ed565b6040519080825280601f01601f1916602001820160405280156120c8576020820181803683370190505b50905060008087516020890160008d8df191503d9250868311156120ea578692505b828152826000602083013e909890975095505050505050565b8180519060200120600560008761ffff1661ffff168152602001908152602001600020856040516121349190612dcd565b90815260408051918290036020908101832067ffffffffffffffff88166000908152915220919091557fe183f33de2837795525b4792ca4cd60535bd77c53b7e7030060bfcf5734d6b0c906121929087908790879087908790612de9565b60405180910390a15050505050565b61ffff8216600090815260036020526040812054908190036121c257506127105b808211156122125760405162461bcd60e51b815260206004820181905260248201527f4c7a4170703a207061796c6f61642073697a6520697320746f6f206c617267656044820152606401610724565b505050565b803561ffff8116811461222957600080fd5b919050565b60008083601f84011261224057600080fd5b50813567ffffffffffffffff81111561225857600080fd5b60208301915083602082850101111561227057600080fd5b9250929050565b803567ffffffffffffffff8116811461222957600080fd5b600080600080600080608087890312156122a857600080fd5b6122b187612217565b9550602087013567ffffffffffffffff808211156122ce57600080fd5b6122da8a838b0161222e565b90975095508591506122ee60408a01612277565b9450606089013591508082111561230457600080fd5b5061231189828a0161222e565b979a9699509497509295939492505050565b60006020828403121561233557600080fd5b6113ef82612217565b6000806040838503121561235157600080fd5b61235a83612217565b946020939093013593505050565b80356001600160a01b038116811461222957600080fd5b60006020828403121561239157600080fd5b6113ef82612368565b6000806000604084860312156123af57600080fd5b6123b884612217565b9250602084013567ffffffffffffffff8111156123d457600080fd5b6123e08682870161222e565b9497909650939450505050565b634e487b7160e01b600052604160045260246000fd5b6040516080810167ffffffffffffffff81118282101715612426576124266123ed565b60405290565b604051601f8201601f1916810167ffffffffffffffff81118282101715612455576124556123ed565b604052919050565b600067ffffffffffffffff821115612477576124776123ed565b50601f01601f191660200190565b60008060006060848603121561249a57600080fd5b6124a384612217565b9250602084013567ffffffffffffffff8111156124bf57600080fd5b8401601f810186136124d057600080fd5b80356124e36124de8261245d565b61242c565b8181528760208385010111156124f857600080fd5b8160208401602083013760006020838301015280945050505061251d60408501612277565b90509250925092565b803560ff8116811461222957600080fd5b6000806040838503121561254a57600080fd5b8235915061255a60208401612526565b90509250929050565b60005b8381101561257e578181015183820152602001612566565b50506000910152565b6000815180845261259f816020860160208601612563565b601f01601f19169290920160200192915050565b6020815260006113ef6020830184612587565b600080604083850312156125d957600080fd5b50508035926020909101359150565b600080604083850312156125fb57600080fd5b61260483612217565b915061255a60208401612217565b600080600080608080868803121561262957600080fd5b61263286612368565b94506020612641818801612368565b945060408088013567ffffffffffffffff8082111561265f57600080fd5b818a0191508a601f83011261267357600080fd5b813581811115612685576126856123ed565b612693858260051b0161242c565b818152858101925060079190911b83018501908c8211156126b357600080fd5b928501925b818410156127055786848e0312156126d05760008081fd5b6126d8612403565b843581528685013587820152858501358682015260608086013590820152835292860192918501916126b8565b999c989b50989960600135985050505050505050565b60008060008060006080868803121561273357600080fd5b61273c86612217565b945061274a60208701612217565b935060408601359250606086013567ffffffffffffffff81111561276d57600080fd5b6127798882890161222e565b969995985093965092949392505050565b60008060006060848603121561279f57600080fd5b6127a884612217565b92506127b660208501612217565b9150604084013590509250925092565b600080600080608085870312156127dc57600080fd5b843593506127ec60208601612526565b93969395505050506040820135916060013590565b6000806000806080858703121561281757600080fd5b61282085612217565b935061282e60208601612217565b925061283c60408601612368565b9396929550929360600135925050565b600181811c9082168061286057607f821691505b60208210810361288057634e487b7160e01b600052602260045260246000fd5b50919050565b8183823760009101908152919050565b6000602082840312156128a857600080fd5b5051919050565b81835281816020850137506000828201602090810191909152601f909101601f19169091010190565b61ffff841681526040602082015260006112d76040830184866128af565b634e487b7160e01b600052603260045260246000fd5b634e487b7160e01b600052601160045260246000fd5b80820281158282048414176129395761293961290c565b92915050565b60008261295c57634e487b7160e01b600052601260045260246000fd5b500490565b818103818111156129395761293961290c565b8284823760609190911b7fffffffffffffffffffffffffffffffffffffffff000000000000000000000000169101908152601401919050565b601f82111561221257600081815260208120601f850160051c810160208610156129d45750805b601f850160051c820191505b81811015610d81578281556001016129e0565b815167ffffffffffffffff811115612a0d57612a0d6123ed565b612a2181612a1b845461284c565b846129ad565b602080601f831160018114612a565760008415612a3e5750858301515b600019600386901b1c1916600185901b178555610d81565b600085815260208120601f198616915b82811015612a8557888601518255948401946001909101908401612a66565b5085821015612aa35787850151600019600388901b60f8161c191681555b5050505050600190811b01905550565b600061ffff808816835280871660208401525084604083015260806060830152612ae16080830184866128af565b979650505050505050565b61ffff86168152608060208201526000612b0a6080830186886128af565b67ffffffffffffffff94909416604083015250606001529392505050565b67ffffffffffffffff831115612b4057612b406123ed565b612b5483612b4e835461284c565b836129ad565b6000601f841160018114612b885760008515612b705750838201355b600019600387901b1c1916600186901b178355610993565b600083815260209020601f19861690835b82811015612bb95786850135825560209485019460019092019101612b99565b5086821015612bd65760001960f88860031b161c19848701351681555b505060018560011b0183555050505050565b600060208284031215612bfa57600080fd5b815180151581146113ef57600080fd5b600060208284031215612c1c57600080fd5b815167ffffffffffffffff811115612c3357600080fd5b8201601f81018413612c4457600080fd5b8051612c526124de8261245d565b818152856020838501011115612c6757600080fd5b6112d7826020830160208601612563565b61ffff85168152608060208201526000612c956080830186612587565b67ffffffffffffffff851660408401528281036060840152612ae18185612587565b808201808211156129395761293961290c565b600060c0820160ff891683526020888185015260406001600160a01b03808a16828701526060818a16818801526080915060c08288015284895180875260e089019150858b01965060005b81811015612d4a5787518051845287810151888501528681015187850152840151848401529686019691840191600101612d15565b50508096505050505050508260a0830152979650505050505050565b61ffff8716815260c060208201526000612d8360c0830188612587565b8281036040840152612d958188612587565b6001600160a01b0387811660608601528616608085015283810360a08501529050612dc08185612587565b9998505050505050505050565b60008251612ddf818460208701612563565b9190910192915050565b61ffff8616815260a060208201526000612e0660a0830187612587565b67ffffffffffffffff861660408401528281036060840152612e288186612587565b90508281036080840152612e3c8185612587565b9897505050505050505056fea26469706673582212201c0a61ba8c921ca0c9cdfcf3dd1661efaca912facd573aaf313eafd7d759a10664736f6c63430008140033",
  "linkReferences": {},
  "deployedLinkReferences": {}
}