{
  "_format": "hh-sol-artifact-1",
  "contractName": "RootRegistry",
  "sourceName": "contracts/RootRegistry.sol",
  "abi": [
    {
      "inputs": [
        {
          "internalType": "address",
          "name": "_endpoint",
          "type": "address"
        },
        {
          "internalType": "address",
          "name": "_owner",
          "type": "address"
        },
        {
          "internalType": "uint256",
          "name": "_lzChainId",
          "type": "uint256"
        },
        {
          "internalType": "address",
          "name": "_token",
          "type": "address"
        }
      ],
      "stateMutability": "nonpayable",
      "type": "constructor"
    },
    {
      "inputs": [
        {
          "internalType": "bytes32",
          "name": "key",
          "type": "bytes32"
        }
      ],
      "name": "EnumerableMapNonexistentKey",
      "type": "error"
    },
    {
      "inputs": [
        {
          "internalType": "address",
          "name": "owner",
          "type": "address"
        }
      ],
      "name": "OwnableInvalidOwner",
      "type": "error"
    },
    {
      "inputs": [
        {
          "internalType": "address",
          "name": "account",
          "type": "address"
        }
      ],
      "name": "OwnableUnauthorizedAccount",
      "type": "error"
    },
    {
      "anonymous": false,
      "inputs": [
        {
          "indexed": false,
          "internalType": "uint16",
          "name": "_srcChainId",
          "type": "uint16"
        },
        {
          "indexed": false,
          "internalType": "bytes",
          "name": "_srcAddress",
          "type": "bytes"
        },
        {
          "indexed": false,
          "internalType": "uint64",
          "name": "_nonce",
          "type": "uint64"
        },
        {
          "indexed": false,
          "internalType": "bytes",
          "name": "_payload",
          "type": "bytes"
        },
        {
          "indexed": false,
          "internalType": "bytes",
          "name": "_reason",
          "type": "bytes"
        }
      ],
      "name": "MessageFailed",
      "type": "event"
    },
    {
      "anonymous": false,
      "inputs": [
        {
          "indexed": true,
          "internalType": "address",
          "name": "previousOwner",
          "type": "address"
        },
        {
          "indexed": true,
          "internalType": "address",
          "name": "newOwner",
          "type": "address"
        }
      ],
      "name": "OwnershipTransferred",
      "type": "event"
    },
    {
      "anonymous": false,
      "inputs": [
        {
          "indexed": false,
          "internalType": "bytes32",
          "name": "projectId",
          "type": "bytes32"
        },
        {
          "indexed": false,
          "internalType": "address",
          "name": "owner",
          "type": "address"
        },
        {
          "indexed": false,
          "internalType": "uint256",
          "name": "numberOfStage",
          "type": "uint256"
        }
      ],
      "name": "ProjectCreated",
      "type": "event"
    },
    {
      "anonymous": false,
      "inputs": [
        {
          "indexed": false,
          "internalType": "bytes32",
          "name": "projectId",
          "type": "bytes32"
        },
        {
          "indexed": false,
          "internalType": "address",
          "name": "investor",
          "type": "address"
        },
        {
          "indexed": false,
          "internalType": "uint256",
          "name": "round",
          "type": "uint256"
        },
        {
          "indexed": false,
          "internalType": "uint256",
          "name": "amountOfTicket",
          "type": "uint256"
        }
      ],
      "name": "ProjectInvested",
      "type": "event"
    },
    {
      "anonymous": false,
      "inputs": [
        {
          "indexed": false,
          "internalType": "uint16",
          "name": "_srcChainId",
          "type": "uint16"
        },
        {
          "indexed": false,
          "internalType": "bytes",
          "name": "_srcAddress",
          "type": "bytes"
        },
        {
          "indexed": false,
          "internalType": "uint64",
          "name": "_nonce",
          "type": "uint64"
        },
        {
          "indexed": false,
          "internalType": "bytes32",
          "name": "_payloadHash",
          "type": "bytes32"
        }
      ],
      "name": "RetryMessageSuccess",
      "type": "event"
    },
    {
      "anonymous": false,
      "inputs": [
        {
          "indexed": false,
          "internalType": "uint16",
          "name": "_dstChainId",
          "type": "uint16"
        },
        {
          "indexed": false,
          "internalType": "uint16",
          "name": "_type",
          "type": "uint16"
        },
        {
          "indexed": false,
          "internalType": "uint256",
          "name": "_minDstGas",
          "type": "uint256"
        }
      ],
      "name": "SetMinDstGas",
      "type": "event"
    },
    {
      "anonymous": false,
      "inputs": [
        {
          "indexed": false,
          "internalType": "address",
          "name": "precrime",
          "type": "address"
        }
      ],
      "name": "SetPrecrime",
      "type": "event"
    },
    {
      "anonymous": false,
      "inputs": [
        {
          "indexed": false,
          "internalType": "uint16",
          "name": "_remoteChainId",
          "type": "uint16"
        },
        {
          "indexed": false,
          "internalType": "bytes",
          "name": "_path",
          "type": "bytes"
        }
      ],
      "name": "SetTrustedRemote",
      "type": "event"
    },
    {
      "anonymous": false,
      "inputs": [
        {
          "indexed": false,
          "internalType": "uint16",
          "name": "_remoteChainId",
          "type": "uint16"
        },
        {
          "indexed": false,
          "internalType": "bytes",
          "name": "_remoteAddress",
          "type": "bytes"
        }
      ],
      "name": "SetTrustedRemoteAddress",
      "type": "event"
    },
    {
      "inputs": [],
      "name": "DEFAULT_PAYLOAD_SIZE_LIMIT",
      "outputs": [
        {
          "internalType": "uint256",
          "name": "",
          "type": "uint256"
        }
      ],
      "stateMutability": "view",
      "type": "function"
    },
    {
      "inputs": [
        {
          "internalType": "address",
          "name": "_owner",
          "type": "address"
        },
        {
          "internalType": "address",
          "name": "_tick",
          "type": "address"
        },
        {
          "components": [
            {
              "internalType": "uint256",
              "name": "startTime",
              "type": "uint256"
            },
            {
              "internalType": "uint256",
              "name": "endTime",
              "type": "uint256"
            },
            {
              "internalType": "uint256",
              "name": "fundingDemand",
              "type": "uint256"
            },
            {
              "internalType": "uint256",
              "name": "totalTicket",
              "type": "uint256"
            }
          ],
          "internalType": "struct RootRegistry.Round[]",
          "name": "_rounds",
          "type": "tuple[]"
        },
        {
          "internalType": "uint256",
          "name": "_changeFee",
          "type": "uint256"
        }
      ],
      "name": "createProject",
      "outputs": [],
      "stateMutability": "nonpayable",
      "type": "function"
    },
    {
      "inputs": [
        {
          "internalType": "uint16",
          "name": "",
          "type": "uint16"
        },
        {
          "internalType": "bytes",
          "name": "",
          "type": "bytes"
        },
        {
          "internalType": "uint64",
          "name": "",
          "type": "uint64"
        }
      ],
      "name": "failedMessages",
      "outputs": [
        {
          "internalType": "bytes32",
          "name": "",
          "type": "bytes32"
        }
      ],
      "stateMutability": "view",
      "type": "function"
    },
    {
      "inputs": [
        {
          "internalType": "uint16",
          "name": "_srcChainId",
          "type": "uint16"
        },
        {
          "internalType": "bytes",
          "name": "_srcAddress",
          "type": "bytes"
        }
      ],
      "name": "forceResumeReceive",
      "outputs": [],
      "stateMutability": "nonpayable",
      "type": "function"
    },
    {
      "inputs": [
        {
          "internalType": "uint16",
          "name": "_version",
          "type": "uint16"
        },
        {
          "internalType": "uint16",
          "name": "_chainId",
          "type": "uint16"
        },
        {
          "internalType": "address",
          "name": "",
          "type": "address"
        },
        {
          "internalType": "uint256",
          "name": "_configType",
          "type": "uint256"
        }
      ],
      "name": "getConfig",
      "outputs": [
        {
          "internalType": "bytes",
          "name": "",
          "type": "bytes"
        }
      ],
      "stateMutability": "view",
      "type": "function"
    },
    {
      "inputs": [
        {
          "internalType": "bytes32",
          "name": "_projectId",
          "type": "bytes32"
        },
        {
          "internalType": "uint8",
          "name": "_round",
          "type": "uint8"
        }
      ],
      "name": "getInvestingProgress",
      "outputs": [
        {
          "internalType": "uint256",
          "name": "",
          "type": "uint256"
        },
        {
          "internalType": "uint256",
          "name": "",
          "type": "uint256"
        }
      ],
      "stateMutability": "view",
      "type": "function"
    },
    {
      "inputs": [
        {
          "internalType": "bytes32",
          "name": "_projectId",
          "type": "bytes32"
        },
        {
          "internalType": "uint8",
          "name": "_round",
          "type": "uint8"
        }
      ],
      "name": "getRoundInvestors",
      "outputs": [
        {
          "components": [
            {
              "internalType": "address",
              "name": "investor",
              "type": "address"
            },
            {
              "internalType": "uint256",
              "name": "amount",
              "type": "uint256"
            }
          ],
          "internalType": "struct RootRegistry.Investor[]",
          "name": "",
          "type": "tuple[]"
        }
      ],
      "stateMutability": "view",
      "type": "function"
    },
    {
      "inputs": [
        {
          "internalType": "bytes32",
          "name": "_projectId",
          "type": "bytes32"
        },
        {
          "internalType": "uint256",
          "name": "_round",
          "type": "uint256"
        }
      ],
      "name": "getTicketValue",
      "outputs": [
        {
          "internalType": "uint256",
          "name": "",
          "type": "uint256"
        }
      ],
      "stateMutability": "view",
      "type": "function"
    },
    {
      "inputs": [
        {
          "internalType": "uint16",
          "name": "_remoteChainId",
          "type": "uint16"
        }
      ],
      "name": "getTrustedRemoteAddress",
      "outputs": [
        {
          "internalType": "bytes",
          "name": "",
          "type": "bytes"
        }
      ],
      "stateMutability": "view",
      "type": "function"
    },
    {
      "inputs": [
        {
          "internalType": "bytes32",
          "name": "_projectId",
          "type": "bytes32"
        },
        {
          "internalType": "uint8",
          "name": "_round",
          "type": "uint8"
        },
        {
          "internalType": "uint256",
          "name": "_amountOfTicket",
          "type": "uint256"
        }
      ],
      "name": "investProject",
      "outputs": [],
      "stateMutability": "nonpayable",
      "type": "function"
    },
    {
      "inputs": [
        {
          "internalType": "uint16",
          "name": "_srcChainId",
          "type": "uint16"
        },
        {
          "internalType": "bytes",
          "name": "_srcAddress",
          "type": "bytes"
        }
      ],
      "name": "isTrustedRemote",
      "outputs": [
        {
          "internalType": "bool",
          "name": "",
          "type": "bool"
        }
      ],
      "stateMutability": "view",
      "type": "function"
    },
    {
      "inputs": [],
      "name": "lzChainId",
      "outputs": [
        {
          "internalType": "uint256",
          "name": "",
          "type": "uint256"
        }
      ],
      "stateMutability": "view",
      "type": "function"
    },
    {
      "inputs": [],
      "name": "lzEndpoint",
      "outputs": [
        {
          "internalType": "contract ILayerZeroEndpoint",
          "name": "",
          "type": "address"
        }
      ],
      "stateMutability": "view",
      "type": "function"
    },
    {
      "inputs": [
        {
          "internalType": "uint16",
          "name": "_srcChainId",
          "type": "uint16"
        },
        {
          "internalType": "bytes",
          "name": "_srcAddress",
          "type": "bytes"
        },
        {
          "internalType": "uint64",
          "name": "_nonce",
          "type": "uint64"
        },
        {
          "internalType": "bytes",
          "name": "_payload",
          "type": "bytes"
        }
      ],
      "name": "lzReceive",
      "outputs": [],
      "stateMutability": "nonpayable",
      "type": "function"
    },
    {
      "inputs": [
        {
          "internalType": "uint16",
          "name": "",
          "type": "uint16"
        },
        {
          "internalType": "uint16",
          "name": "",
          "type": "uint16"
        }
      ],
      "name": "minDstGasLookup",
      "outputs": [
        {
          "internalType": "uint256",
          "name": "",
          "type": "uint256"
        }
      ],
      "stateMutability": "view",
      "type": "function"
    },
    {
      "inputs": [
        {
          "internalType": "uint16",
          "name": "_srcChainId",
          "type": "uint16"
        },
        {
          "internalType": "bytes",
          "name": "_srcAddress",
          "type": "bytes"
        },
        {
          "internalType": "uint64",
          "name": "_nonce",
          "type": "uint64"
        },
        {
          "internalType": "bytes",
          "name": "_payload",
          "type": "bytes"
        }
      ],
      "name": "nonblockingLzReceive",
      "outputs": [],
      "stateMutability": "nonpayable",
      "type": "function"
    },
    {
      "inputs": [],
      "name": "owner",
      "outputs": [
        {
          "internalType": "address",
          "name": "",
          "type": "address"
        }
      ],
      "stateMutability": "view",
      "type": "function"
    },
    {
      "inputs": [
        {
          "internalType": "uint16",
          "name": "",
          "type": "uint16"
        }
      ],
      "name": "payloadSizeLimitLookup",
      "outputs": [
        {
          "internalType": "uint256",
          "name": "",
          "type": "uint256"
        }
      ],
      "stateMutability": "view",
      "type": "function"
    },
    {
      "inputs": [],
      "name": "precrime",
      "outputs": [
        {
          "internalType": "address",
          "name": "",
          "type": "address"
        }
      ],
      "stateMutability": "view",
      "type": "function"
    },
    {
      "inputs": [],
      "name": "renounceOwnership",
      "outputs": [],
      "stateMutability": "nonpayable",
      "type": "function"
    },
    {
      "inputs": [
        {
          "internalType": "uint16",
          "name": "_srcChainId",
          "type": "uint16"
        },
        {
          "internalType": "bytes",
          "name": "_srcAddress",
          "type": "bytes"
        },
        {
          "internalType": "uint64",
          "name": "_nonce",
          "type": "uint64"
        },
        {
          "internalType": "bytes",
          "name": "_payload",
          "type": "bytes"
        }
      ],
      "name": "retryMessage",
      "outputs": [],
      "stateMutability": "payable",
      "type": "function"
    },
    {
      "inputs": [
        {
          "internalType": "uint16",
          "name": "_version",
          "type": "uint16"
        },
        {
          "internalType": "uint16",
          "name": "_chainId",
          "type": "uint16"
        },
        {
          "internalType": "uint256",
          "name": "_configType",
          "type": "uint256"
        },
        {
          "internalType": "bytes",
          "name": "_config",
          "type": "bytes"
        }
      ],
      "name": "setConfig",
      "outputs": [],
      "stateMutability": "nonpayable",
      "type": "function"
    },
    {
      "inputs": [
        {
          "internalType": "uint16",
          "name": "_dstChainId",
          "type": "uint16"
        },
        {
          "internalType": "uint16",
          "name": "_packetType",
          "type": "uint16"
        },
        {
          "internalType": "uint256",
          "name": "_minGas",
          "type": "uint256"
        }
      ],
      "name": "setMinDstGas",
      "outputs": [],
      "stateMutability": "nonpayable",
      "type": "function"
    },
    {
      "inputs": [
        {
          "internalType": "uint16",
          "name": "_dstChainId",
          "type": "uint16"
        },
        {
          "internalType": "uint256",
          "name": "_size",
          "type": "uint256"
        }
      ],
      "name": "setPayloadSizeLimit",
      "outputs": [],
      "stateMutability": "nonpayable",
      "type": "function"
    },
    {
      "inputs": [
        {
          "internalType": "address",
          "name": "_precrime",
          "type": "address"
        }
      ],
      "name": "setPrecrime",
      "outputs": [],
      "stateMutability": "nonpayable",
      "type": "function"
    },
    {
      "inputs": [
        {
          "internalType": "uint16",
          "name": "_version",
          "type": "uint16"
        }
      ],
      "name": "setReceiveVersion",
      "outputs": [],
      "stateMutability": "nonpayable",
      "type": "function"
    },
    {
      "inputs": [
        {
          "internalType": "uint16",
          "name": "_version",
          "type": "uint16"
        }
      ],
      "name": "setSendVersion",
      "outputs": [],
      "stateMutability": "nonpayable",
      "type": "function"
    },
    {
      "inputs": [
        {
          "internalType": "address",
          "name": "_token",
          "type": "address"
        }
      ],
      "name": "setToken",
      "outputs": [],
      "stateMutability": "nonpayable",
      "type": "function"
    },
    {
      "inputs": [
        {
          "internalType": "uint16",
          "name": "_remoteChainId",
          "type": "uint16"
        },
        {
          "internalType": "bytes",
          "name": "_path",
          "type": "bytes"
        }
      ],
      "name": "setTrustedRemote",
      "outputs": [],
      "stateMutability": "nonpayable",
      "type": "function"
    },
    {
      "inputs": [
        {
          "internalType": "uint16",
          "name": "_remoteChainId",
          "type": "uint16"
        },
        {
          "internalType": "bytes",
          "name": "_remoteAddress",
          "type": "bytes"
        }
      ],
      "name": "setTrustedRemoteAddress",
      "outputs": [],
      "stateMutability": "nonpayable",
      "type": "function"
    },
    {
      "inputs": [],
      "name": "token",
      "outputs": [
        {
          "internalType": "contract IERC20",
          "name": "",
          "type": "address"
        }
      ],
      "stateMutability": "view",
      "type": "function"
    },
    {
      "inputs": [
        {
          "internalType": "address",
          "name": "newOwner",
          "type": "address"
        }
      ],
      "name": "transferOwnership",
      "outputs": [],
      "stateMutability": "nonpayable",
      "type": "function"
    },
    {
      "inputs": [
        {
          "internalType": "uint16",
          "name": "",
          "type": "uint16"
        }
      ],
      "name": "trustedRemoteLookup",
      "outputs": [
        {
          "internalType": "bytes",
          "name": "",
          "type": "bytes"
        }
      ],
      "stateMutability": "view",
      "type": "function"
    },
    {
      "inputs": [],
      "name": "withdraw",
      "outputs": [],
      "stateMutability": "nonpayable",
      "type": "function"
    }
  ],
  "bytecode": "0x60c06040523480156200001157600080fd5b506040516200414d3803806200414d833981016040819052620000349162000112565b8380846001600160a01b0381166200006657604051631e4fbdf760e01b81526000600482015260240160405180910390fd5b6200007181620000a5565b506001600160a01b0390811660805260a09390935250600780546001600160a01b0319169190921617905550620001669050565b600080546001600160a01b038381166001600160a01b0319831681178455604051919092169283917f8be0079c531659141344cd1fd0a4f28419497f9722a3daafe3b4186f6b6457e09190a35050565b80516001600160a01b03811681146200010d57600080fd5b919050565b600080600080608085870312156200012957600080fd5b6200013485620000f5565b93506200014460208601620000f5565b9250604085015191506200015b60608601620000f5565b905092959194509250565b60805160a051613f90620001bd600039600081816104e60152611db00152600081816105c7015281816107150152818161099401528181610a5501528181610c9101528181611fd501526123fb0152613f906000f3fe6080604052600436106102185760003560e01c8063917c41561161011d578063c4461834116100b0578063df2a5b3b1161007f578063f2fde38b11610064578063f2fde38b146106b2578063f5ecbdbc146106d2578063fc0c546a146106f257600080fd5b8063df2a5b3b14610672578063eb8d72b71461069257600080fd5b8063c446183414610609578063cbcb86d21461061f578063cbed8b9c1461063f578063d1deba1f1461065f57600080fd5b8063a8546c2c116100ec578063a8546c2c14610568578063b1dbea2914610588578063b353aaa7146105b5578063baf3292d146105e957600080fd5b8063917c4156146104d4578063950c8a74146105085780639f38369a14610528578063a6c3d1651461054857600080fd5b806342d65a8d116101b0578063715018a61161017f5780637edc1b5a116101645780637edc1b5a1461044a5780638cfd8f5c1461046a5780638da5cb5b146104a257600080fd5b8063715018a6146104085780637533d7881461041d57600080fd5b806342d65a8d146103445780635b8c41e61461036457806366ad5c8a146103b35780636ff0a2d1146103d357600080fd5b8063144fa6d7116101ec578063144fa6d71461029f5780633ccfd60b146102bf5780633d8b38f6146102d45780633f1f4fa41461030957600080fd5b80621d35671461021d57806307e0db171461023f5780630df374831461025f57806310ddb1371461027f575b600080fd5b34801561022957600080fd5b5061023d610238366004613296565b610712565b005b34801561024b57600080fd5b5061023d61025a36600461332a565b61095a565b34801561026b57600080fd5b5061023d61027a366004613345565b6109fc565b34801561028b57600080fd5b5061023d61029a36600461332a565b610a1b565b3480156102ab57600080fd5b5061023d6102ba366004613384565b610a8c565b3480156102cb57600080fd5b5061023d610ac3565b3480156102e057600080fd5b506102f46102ef3660046133a1565b610b8d565b60405190151581526020015b60405180910390f35b34801561031557600080fd5b5061033661032436600461332a565b60036020526000908152604090205481565b604051908152602001610300565b34801561035057600080fd5b5061023d61035f3660046133a1565b610c59565b34801561037057600080fd5b5061033661037f36600461348c565b6005602090815260009384526040808520845180860184018051928152908401958401959095209452929052825290205481565b3480156103bf57600080fd5b5061023d6103ce366004613296565b610cf8565b3480156103df57600080fd5b506103f36103ee36600461353c565b610deb565b60408051928352602083019190915201610300565b34801561041457600080fd5b5061023d611019565b34801561042957600080fd5b5061043d61043836600461332a565b61102d565b60405161030091906135bc565b34801561045657600080fd5b506103366104653660046135cf565b6110c7565b34801561047657600080fd5b506103366104853660046135f1565b600260209081526000928352604080842090915290825290205481565b3480156104ae57600080fd5b506000546001600160a01b03165b6040516001600160a01b039091168152602001610300565b3480156104e057600080fd5b506103367f000000000000000000000000000000000000000000000000000000000000000081565b34801561051457600080fd5b506004546104bc906001600160a01b031681565b34801561053457600080fd5b5061043d61054336600461332a565b6112f8565b34801561055457600080fd5b5061023d6105633660046133a1565b61140e565b34801561057457600080fd5b5061023d610583366004613624565b611497565b34801561059457600080fd5b506105a86105a336600461353c565b611a69565b604051610300919061365c565b3480156105c157600080fd5b506104bc7f000000000000000000000000000000000000000000000000000000000000000081565b3480156105f557600080fd5b5061023d610604366004613384565b611d3b565b34801561061557600080fd5b5061033661271081565b34801561062b57600080fd5b5061023d61063a3660046136d8565b611da4565b34801561064b57600080fd5b5061023d61065a3660046137ce565b611f9d565b61023d61066d366004613296565b61204b565b34801561067e57600080fd5b5061023d61068d36600461383d565b612299565b34801561069e57600080fd5b5061023d6106ad3660046133a1565b612303565b3480156106be57600080fd5b5061023d6106cd366004613384565b61235d565b3480156106de57600080fd5b5061043d6106ed366004613879565b6123b1565b3480156106fe57600080fd5b506007546104bc906001600160a01b031681565b337f00000000000000000000000000000000000000000000000000000000000000006001600160a01b03161461078f5760405162461bcd60e51b815260206004820152601e60248201527f4c7a4170703a20696e76616c696420656e64706f696e742063616c6c6572000060448201526064015b60405180910390fd5b61ffff8616600090815260016020526040812080546107ad906138c6565b80601f01602080910402602001604051908101604052809291908181526020018280546107d9906138c6565b80156108265780601f106107fb57610100808354040283529160200191610826565b820191906000526020600020905b81548152906001019060200180831161080957829003601f168201915b50505050509050805186869050148015610841575060008151115b801561086957508051602082012060405161085f9088908890613900565b6040518091039020145b6108db5760405162461bcd60e51b815260206004820152602660248201527f4c7a4170703a20696e76616c696420736f757263652073656e64696e6720636f60448201527f6e747261637400000000000000000000000000000000000000000000000000006064820152608401610786565b6109518787878080601f01602080910402602001604051908101604052809392919081815260200183838082843760009201919091525050604080516020601f8a018190048102820181019092528881528a93509150889088908190840183828082843760009201919091525061247292505050565b50505050505050565b610962612518565b6040517f07e0db1700000000000000000000000000000000000000000000000000000000815261ffff821660048201527f00000000000000000000000000000000000000000000000000000000000000006001600160a01b0316906307e0db17906024015b600060405180830381600087803b1580156109e157600080fd5b505af11580156109f5573d6000803e3d6000fd5b5050505050565b610a04612518565b61ffff909116600090815260036020526040902055565b610a23612518565b6040517f10ddb13700000000000000000000000000000000000000000000000000000000815261ffff821660048201527f00000000000000000000000000000000000000000000000000000000000000006001600160a01b0316906310ddb137906024016109c7565b610a94612518565b6007805473ffffffffffffffffffffffffffffffffffffffff19166001600160a01b0392909216919091179055565b610acb612518565b6000546001600160a01b03166007546040517f70a082310000000000000000000000000000000000000000000000000000000081523060048201526001600160a01b03928316926108fc9216906370a0823190602401602060405180830381865afa158015610b3e573d6000803e3d6000fd5b505050506040513d601f19601f82011682018060405250810190610b629190613910565b6040518115909202916000818181858888f19350505050158015610b8a573d6000803e3d6000fd5b50565b61ffff831660009081526001602052604081208054829190610bae906138c6565b80601f0160208091040260200160405190810160405280929190818152602001828054610bda906138c6565b8015610c275780601f10610bfc57610100808354040283529160200191610c27565b820191906000526020600020905b815481529060010190602001808311610c0a57829003601f168201915b505050505090508383604051610c3e929190613900565b60405180910390208180519060200120149150509392505050565b610c61612518565b6040517f42d65a8d0000000000000000000000000000000000000000000000000000000081526001600160a01b037f000000000000000000000000000000000000000000000000000000000000000016906342d65a8d90610cca90869086908690600401613952565b600060405180830381600087803b158015610ce457600080fd5b505af1158015610951573d6000803e3d6000fd5b333014610d6d5760405162461bcd60e51b815260206004820152602660248201527f4e6f6e626c6f636b696e674c7a4170703a2063616c6c6572206d75737420626560448201527f204c7a41707000000000000000000000000000000000000000000000000000006064820152608401610786565b610de38686868080601f01602080910402602001604051908101604052809392919081815260200183838082843760009201919091525050604080516020601f89018190048102820181019092528781528993509150879087908190840183828082843760009201919091525061255e92505050565b505050505050565b6000828152600860205260408120600101548190849060ff8516906001600160a01b0316610e4f5760405162461bcd60e51b8152602060048201526011602482015270125b9d985b1a59081c1c9bda9958dd1259607a1b6044820152606401610786565b6000828152600860205260409020600201548110610ea45760405162461bcd60e51b8152602060048201526012602482015271092dcecc2d8d2c840e4deeadcc892dcc8caf60731b6044820152606401610786565b6000828152600860205260409020600201805442919083908110610eca57610eca613970565b90600052602060002090600402016000015410610f295760405162461bcd60e51b815260206004820152601d60248201527f526f756e64206e6f74206f70656e20666f7220696e76657374207965740000006044820152606401610786565b6000828152600860205260409020600201805442919083908110610f4f57610f4f613970565b90600052602060002090600402016001015411610fa05760405162461bcd60e51b815260206004820152600f60248201526e149bdd5b99081a185cc8195b991959608a1b6044820152606401610786565b610fad868660ff166110c7565b600087815260096020908152604080832060ff8a168452909152902054610fd4919061399c565b6000878152600860205260409020600201805460ff8816908110610ffa57610ffa613970565b9060005260206000209060040201600201549350935050509250929050565b611021612518565b61102b6000612636565b565b60016020526000908152604090208054611046906138c6565b80601f0160208091040260200160405190810160405280929190818152602001828054611072906138c6565b80156110bf5780601f10611094576101008083540402835291602001916110bf565b820191906000526020600020905b8154815290600101906020018083116110a257829003601f168201915b505050505081565b600082815260086020526040812060010154839083906001600160a01b03166111265760405162461bcd60e51b8152602060048201526011602482015270125b9d985b1a59081c1c9bda9958dd1259607a1b6044820152606401610786565b600082815260086020526040902060020154811061117b5760405162461bcd60e51b8152602060048201526012602482015271092dcecc2d8d2c840e4deeadcc892dcc8caf60731b6044820152606401610786565b60008281526008602052604090206002018054429190839081106111a1576111a1613970565b906000526020600020906004020160000154106112005760405162461bcd60e51b815260206004820152601d60248201527f526f756e64206e6f74206f70656e20666f7220696e76657374207965740000006044820152606401610786565b600082815260086020526040902060020180544291908390811061122657611226613970565b906000526020600020906004020160010154116112775760405162461bcd60e51b815260206004820152600f60248201526e149bdd5b99081a185cc8195b991959608a1b6044820152606401610786565b600085815260086020526040902060020180548590811061129a5761129a613970565b9060005260206000209060040201600301546008600087815260200190815260200160002060020185815481106112d3576112d3613970565b9060005260206000209060040201600201546112ef91906139b3565b95945050505050565b61ffff811660009081526001602052604081208054606092919061131b906138c6565b80601f0160208091040260200160405190810160405280929190818152602001828054611347906138c6565b80156113945780601f1061136957610100808354040283529160200191611394565b820191906000526020600020905b81548152906001019060200180831161137757829003601f168201915b5050505050905080516000036113ec5760405162461bcd60e51b815260206004820152601d60248201527f4c7a4170703a206e6f20747275737465642070617468207265636f72640000006044820152606401610786565b6114076000601483516113ff91906139d5565b839190612693565b9392505050565b611416612518565b81813060405160200161142b939291906139e8565b60408051601f1981840301815291815261ffff85166000908152600160205220906114569082613a6c565b507f8c0400cfe2d1199b1a725c78960bcc2a344d869b80590d0f2bd005db15a572ce83838360405161148a93929190613952565b60405180910390a1505050565b600083815260086020526040902060010154839060ff8416906001600160a01b03166114f95760405162461bcd60e51b8152602060048201526011602482015270125b9d985b1a59081c1c9bda9958dd1259607a1b6044820152606401610786565b600082815260086020526040902060020154811061154e5760405162461bcd60e51b8152602060048201526012602482015271092dcecc2d8d2c840e4deeadcc892dcc8caf60731b6044820152606401610786565b600082815260086020526040902060020180544291908390811061157457611574613970565b906000526020600020906004020160000154106115d35760405162461bcd60e51b815260206004820152601d60248201527f526f756e64206e6f74206f70656e20666f7220696e76657374207965740000006044820152606401610786565b60008281526008602052604090206002018054429190839081106115f9576115f9613970565b9060005260206000209060040201600101541161164a5760405162461bcd60e51b815260206004820152600f60248201526e149bdd5b99081a185cc8195b991959608a1b6044820152606401610786565b6000858152600860205260409020600201805460ff861690811061167057611670613970565b600091825260208083206003600490930201919091015487835260098252604080842060ff891685529092529120546116aa908590613b2c565b11156116f85760405162461bcd60e51b815260206004820152601460248201527f457863656564207469636b657420616d6f756e740000000000000000000000006044820152606401610786565b6000858152600860209081526040808320815160808101835281546001600160a01b03908116825260018301541681850152600282018054845181870281018701865281815292959394860193879084015b828210156117a457838290600052602060002090600402016040518060800160405290816000820154815260200160018201548152602001600282015481526020016003820154815250508152602001906001019061174a565b505050508152602001600382015481525050905060006117c7878760ff166110c7565b6117d1908661399c565b6007546040517f23b872dd000000000000000000000000000000000000000000000000000000008152336004820152306024820152604481018390529192506001600160a01b0316906323b872dd906064016020604051808303816000875af1158015611842573d6000803e3d6000fd5b505050506040513d601f19601f820116820180604052508101906118669190613b3f565b6118b25760405162461bcd60e51b815260206004820152601560248201527f5472616e7366657220746f6b656e206661696c656400000000000000000000006044820152606401610786565b600087815260096020908152604080832060ff8a168452909152812080548792906118de908490613b2c565b9091555050600754602083015160608401516001600160a01b039092169163a9059cbb919060649061191090826139d5565b61191a908661399c565b61192491906139b3565b6040517fffffffff0000000000000000000000000000000000000000000000000000000060e085901b1681526001600160a01b03909216600483015260248201526044016020604051808303816000875af1158015611987573d6000803e3d6000fd5b505050506040513d601f19601f820116820180604052508101906119ab9190613b3f565b506000878152600a6020908152604080832060ff8a16845290915290206119d290336127bb565b15611a38576000878152600a6020908152604080832060ff8a1684529091529020611a329033908790611a0590836127d9565b611a0f9190613b2c565b60008a8152600a6020908152604080832060ff8d168452909152902091906127ee565b50610951565b6000878152600a6020908152604080832060ff8a1684529091529020611a5f9033876127ee565b5050505050505050565b600082815260086020526040902060010154606090839060ff8416906001600160a01b0316611ace5760405162461bcd60e51b8152602060048201526011602482015270125b9d985b1a59081c1c9bda9958dd1259607a1b6044820152606401610786565b6000828152600860205260409020600201548110611b235760405162461bcd60e51b8152602060048201526012602482015271092dcecc2d8d2c840e4deeadcc892dcc8caf60731b6044820152606401610786565b6000828152600860205260409020600201805442919083908110611b4957611b49613970565b90600052602060002090600402016000015410611ba85760405162461bcd60e51b815260206004820152601d60248201527f526f756e64206e6f74206f70656e20666f7220696e76657374207965740000006044820152606401610786565b6000828152600860205260409020600201805442919083908110611bce57611bce613970565b90600052602060002090600402016001015411611c1f5760405162461bcd60e51b815260206004820152600f60248201526e149bdd5b99081a185cc8195b991959608a1b6044820152606401610786565b6000858152600a6020908152604080832060ff881684529091528120611c449061280c565b905060008167ffffffffffffffff811115611c6157611c616133f4565b604051908082528060200260200182016040528015611ca657816020015b6040805180820190915260008082526020820152815260200190600190039081611c7f5790505b50905060005b82811015611d30576000888152600a6020908152604080832060ff8b16845290915281208190611cdc9084612817565b915091506040518060400160405280836001600160a01b0316815260200182815250848481518110611d1057611d10613970565b602002602001018190525050508080611d2890613b61565b915050611cac565b509695505050505050565b611d43612518565b6004805473ffffffffffffffffffffffffffffffffffffffff19166001600160a01b0383169081179091556040519081527f5db758e995a17ec1ad84bdef7e8c3293a0bd6179bcce400dff5d4c3d87db726b9060200160405180910390a150565b611dac612518565b60007f0000000000000000000000000000000000000000000000000000000000000000600654604051602001611dec929190918252602082015260400190565b60405160208183030381529060405280519060200120905060005b8351811015611ee1576000828152600860209081526040822060020180546001810182559083529120855160049092020190859083908110611e4b57611e4b613970565b60209081029190910101515181558451859083908110611e6d57611e6d613970565b6020026020010151602001518160010181905550848281518110611e9357611e93613970565b6020026020010151604001518160020181905550848281518110611eb957611eb9613970565b6020026020010151606001518160030181905550508080611ed990613b61565b915050611e07565b50600081815260086020526040812060038101849055600180820180546001600160a01b03808b1673ffffffffffffffffffffffffffffffffffffffff199283161790925583549189169116179091556006805491929091611f44908490613b2c565b90915550508251604080518381526001600160a01b0388166020820152908101919091527f0180774375ef39389cb651d758650eb357746210f60ee333a675d3b6c4343b25906060015b60405180910390a15050505050565b611fa5612518565b6040517fcbed8b9c0000000000000000000000000000000000000000000000000000000081526001600160a01b037f0000000000000000000000000000000000000000000000000000000000000000169063cbed8b9c906120129088908890889088908890600401613b7a565b600060405180830381600087803b15801561202c57600080fd5b505af1158015612040573d6000803e3d6000fd5b505050505050505050565b61ffff8616600090815260056020526040808220905161206e9088908890613900565b908152604080516020928190038301902067ffffffffffffffff8716600090815292529020549050806121095760405162461bcd60e51b815260206004820152602360248201527f4e6f6e626c6f636b696e674c7a4170703a206e6f2073746f726564206d65737360448201527f61676500000000000000000000000000000000000000000000000000000000006064820152608401610786565b80838360405161211a929190613900565b6040518091039020146121955760405162461bcd60e51b815260206004820152602160248201527f4e6f6e626c6f636b696e674c7a4170703a20696e76616c6964207061796c6f6160448201527f64000000000000000000000000000000000000000000000000000000000000006064820152608401610786565b61ffff871660009081526005602052604080822090516121b89089908990613900565b908152604080516020928190038301812067ffffffffffffffff8916600090815290845282902093909355601f88018290048202830182019052868252612251918991899089908190840183828082843760009201919091525050604080516020601f8a018190048102820181019092528881528a93509150889088908190840183828082843760009201919091525061255e92505050565b7fc264d91f3adc5588250e1551f547752ca0cfa8f6b530d243b9f9f4cab10ea8e58787878785604051612288959493929190613bb3565b60405180910390a150505050505050565b6122a1612518565b61ffff83811660008181526002602090815260408083209487168084529482529182902085905581519283528201929092529081018290527f9d5c7c0b934da8fefa9c7760c98383778a12dfbfc0c3b3106518f43fb9508ac09060600161148a565b61230b612518565b61ffff83166000908152600160205260409020612329828483613bef565b507ffa41487ad5d6728f0b19276fa1eddc16558578f5109fc39d2dc33c3230470dab83838360405161148a93929190613952565b612365612518565b6001600160a01b0381166123a8576040517f1e4fbdf700000000000000000000000000000000000000000000000000000000815260006004820152602401610786565b610b8a81612636565b6040517ff5ecbdbc00000000000000000000000000000000000000000000000000000000815261ffff808616600483015284166024820152306044820152606481018290526060907f00000000000000000000000000000000000000000000000000000000000000006001600160a01b03169063f5ecbdbc90608401600060405180830381865afa15801561244a573d6000803e3d6000fd5b505050506040513d6000823e601f3d908101601f191682016040526112ef9190810190613caf565b6000806125025a60966366ad5c8a60e01b8989898960405160240161249a9493929190613d1d565b60408051601f198184030181529190526020810180517bffffffffffffffffffffffffffffffffffffffffffffffffffffffff167fffffffff000000000000000000000000000000000000000000000000000000009093169290921790915230929190612835565b9150915081610de357610de386868686856128c0565b6000546001600160a01b0316331461102b576040517f118cdaa7000000000000000000000000000000000000000000000000000000008152336004820152602401610786565b602081015160ff81166125ac57600080600080600080878060200190518101906125889190613d5c565b9550955095509550955095506125a1858585858561294f565b5050505050506109f5565b60001960ff8216016125ee57600080600080600080878060200190518101906125d59190613e76565b9550955095509550955095506125a18585858585612ac9565b60405162461bcd60e51b815260206004820152600e60248201527f496e76616c6964207061636b65740000000000000000000000000000000000006044820152606401610786565b600080546001600160a01b0383811673ffffffffffffffffffffffffffffffffffffffff19831681178455604051919092169283917f8be0079c531659141344cd1fd0a4f28419497f9722a3daafe3b4186f6b6457e09190a35050565b6060816126a181601f613b2c565b10156126ef5760405162461bcd60e51b815260206004820152600e60248201527f736c6963655f6f766572666c6f770000000000000000000000000000000000006044820152606401610786565b6126f98284613b2c565b845110156127495760405162461bcd60e51b815260206004820152601160248201527f736c6963655f6f75744f66426f756e64730000000000000000000000000000006044820152606401610786565b60608215801561276857604051915060008252602082016040526127b2565b6040519150601f8416801560200281840101858101878315602002848b0101015b818310156127a1578051835260209283019201612789565b5050858452601f01601f1916604052505b50949350505050565b60006127d0836001600160a01b0384166130b3565b90505b92915050565b60006127d0836001600160a01b0384166130bf565b6000612804846001600160a01b0385168461311f565b949350505050565b60006127d38261313c565b60008080806128268686613147565b909450925050505b9250929050565b6000606060008060008661ffff1667ffffffffffffffff81111561285b5761285b6133f4565b6040519080825280601f01601f191660200182016040528015612885576020820181803683370190505b50905060008087516020890160008d8df191503d9250868311156128a7578692505b828152826000602083013e909890975095505050505050565b8180519060200120600560008761ffff1661ffff168152602001908152602001600020856040516128f19190613edf565b90815260408051918290036020908101832067ffffffffffffffff88166000908152915220919091557fe183f33de2837795525b4792ca4cd60535bd77c53b7e7030060bfcf5734d6b0c90611f8e9087908790879087908790613efb565b60005b8251811015612a2c57600086815260086020908152604082206002018054600181018255908352912084516004909202019084908390811061299657612996613970565b602090810291909101015151815583518490839081106129b8576129b8613970565b60200260200101516020015181600101819055508382815181106129de576129de613970565b6020026020010151604001518160020181905550838281518110612a0457612a04613970565b6020026020010151606001518160030181905550508080612a2490613b61565b915050612952565b5060008581526008602052604090819020600381018390556001810180546001600160a01b0380891673ffffffffffffffffffffffffffffffffffffffff199283161790925582549187169116179055825190517f0180774375ef39389cb651d758650eb357746210f60ee333a675d3b6c4343b2591611f8e91889188919283526001600160a01b03919091166020830152604082015260600190565b600084815260086020526040902060010154849060ff8516906001600160a01b0316612b2b5760405162461bcd60e51b8152602060048201526011602482015270125b9d985b1a59081c1c9bda9958dd1259607a1b6044820152606401610786565b6000828152600860205260409020600201548110612b805760405162461bcd60e51b8152602060048201526012602482015271092dcecc2d8d2c840e4deeadcc892dcc8caf60731b6044820152606401610786565b6000828152600860205260409020600201805442919083908110612ba657612ba6613970565b90600052602060002090600402016000015410612c055760405162461bcd60e51b815260206004820152601d60248201527f526f756e64206e6f74206f70656e20666f7220696e76657374207965740000006044820152606401610786565b6000828152600860205260409020600201805442919083908110612c2b57612c2b613970565b90600052602060002090600402016001015411612c7c5760405162461bcd60e51b815260206004820152600f60248201526e149bdd5b99081a185cc8195b991959608a1b6044820152606401610786565b612c89868660ff166110c7565b8314612cd75760405162461bcd60e51b815260206004820152601460248201527f496e76616c6964207469636b65742076616c75650000000000000000000000006044820152606401610786565b6000868152600860205260409020600201805460ff8716908110612cfd57612cfd613970565b600091825260208083206003600490930201919091015488835260098252604080842060ff8a168552909252912054612d37908690613b2c565b1115612d855760405162461bcd60e51b815260206004820152601460248201527f457863656564207469636b657420616d6f756e740000000000000000000000006044820152606401610786565b6000868152600860209081526040808320815160808101835281546001600160a01b03908116825260018301541681850152600282018054845181870281018701865281815292959394860193879084015b82821015612e31578382906000526020600020906004020160405180608001604052908160008201548152602001600182015481526020016002820154815260200160038201548152505081526020019060010190612dd7565b50505050815260200160038201548152505090506000612e54888860ff166110c7565b612e5e908761399c565b600754602084015160608501519293506001600160a01b03909116916340c10f199190606490612e8e90826139d5565b612e98908661399c565b612ea291906139b3565b6040517fffffffff0000000000000000000000000000000000000000000000000000000060e085901b1681526001600160a01b0390921660048301526024820152604401600060405180830381600087803b158015612f0057600080fd5b505af1158015612f14573d6000803e3d6000fd5b505060075460608501516001600160a01b0390911692506340c10f1991503090606490612f41908661399c565b612f4b91906139b3565b6040517fffffffff0000000000000000000000000000000000000000000000000000000060e085901b1681526001600160a01b0390921660048301526024820152604401600060405180830381600087803b158015612fa957600080fd5b505af1158015612fbd573d6000803e3d6000fd5b505050600089815260096020908152604080832060ff8c16845290915281208054899350909190612fef908490613b2c565b90915550506000888152600a6020908152604080832060ff8b168452909152902061301a908a6127bb565b15613080576000888152600a6020908152604080832060ff8b168452909152902061307a908a90889061304d90836127d9565b6130579190613b2c565b60008b8152600a6020908152604080832060ff8e168452909152902091906127ee565b50612040565b6000888152600a6020908152604080832060ff8b16845290915290206130a79033886127ee565b50505050505050505050565b60006127d08383613172565b6000818152600283016020526040812054801580156130e557506130e384846130b3565b155b156127d0576040517f02b5668600000000000000000000000000000000000000000000000000000000815260048101849052602401610786565b60008281526002840160205260408120829055612804848461318a565b60006127d382613196565b6000808061315585856131a0565b600081815260029690960160205260409095205494959350505050565b600081815260018301602052604081205415156127d0565b60006127d083836131ac565b60006127d3825490565b60006127d083836131fb565b60008181526001830160205260408120546131f3575081546001818101845560008481526020808220909301849055845484825282860190935260409020919091556127d3565b5060006127d3565b600082600001828154811061321257613212613970565b9060005260206000200154905092915050565b803561ffff8116811461323757600080fd5b919050565b60008083601f84011261324e57600080fd5b50813567ffffffffffffffff81111561326657600080fd5b60208301915083602082850101111561282e57600080fd5b803567ffffffffffffffff8116811461323757600080fd5b600080600080600080608087890312156132af57600080fd5b6132b887613225565b9550602087013567ffffffffffffffff808211156132d557600080fd5b6132e18a838b0161323c565b90975095508591506132f560408a0161327e565b9450606089013591508082111561330b57600080fd5b5061331889828a0161323c565b979a9699509497509295939492505050565b60006020828403121561333c57600080fd5b6127d082613225565b6000806040838503121561335857600080fd5b61336183613225565b946020939093013593505050565b6001600160a01b0381168114610b8a57600080fd5b60006020828403121561339657600080fd5b81356127d08161336f565b6000806000604084860312156133b657600080fd5b6133bf84613225565b9250602084013567ffffffffffffffff8111156133db57600080fd5b6133e78682870161323c565b9497909650939450505050565b634e487b7160e01b600052604160045260246000fd5b6040516080810167ffffffffffffffff8111828210171561342d5761342d6133f4565b60405290565b604051601f8201601f1916810167ffffffffffffffff8111828210171561345c5761345c6133f4565b604052919050565b600067ffffffffffffffff82111561347e5761347e6133f4565b50601f01601f191660200190565b6000806000606084860312156134a157600080fd5b6134aa84613225565b9250602084013567ffffffffffffffff8111156134c657600080fd5b8401601f810186136134d757600080fd5b80356134ea6134e582613464565b613433565b8181528760208385010111156134ff57600080fd5b816020840160208301376000602083830101528094505050506135246040850161327e565b90509250925092565b60ff81168114610b8a57600080fd5b6000806040838503121561354f57600080fd5b8235915060208301356135618161352d565b809150509250929050565b60005b8381101561358757818101518382015260200161356f565b50506000910152565b600081518084526135a881602086016020860161356c565b601f01601f19169290920160200192915050565b6020815260006127d06020830184613590565b600080604083850312156135e257600080fd5b50508035926020909101359150565b6000806040838503121561360457600080fd5b61360d83613225565b915061361b60208401613225565b90509250929050565b60008060006060848603121561363957600080fd5b83359250602084013561364b8161352d565b929592945050506040919091013590565b602080825282518282018190526000919060409081850190868401855b828110156136a757815180516001600160a01b03168552860151868501529284019290850190600101613679565b5091979650505050505050565b600067ffffffffffffffff8211156136ce576136ce6133f4565b5060051b60200190565b60008060008060808086880312156136ef57600080fd5b85356136fa8161336f565b945060208681013561370b8161336f565b945060408781013567ffffffffffffffff81111561372857600080fd5b8801601f81018a1361373957600080fd5b80356137476134e5826136b4565b81815260079190911b8201840190848101908c83111561376657600080fd5b928501925b828410156137b85786848e0312156137835760008081fd5b61378b61340a565b8435815286850135878201528585013586820152606080860135908201528252928601929085019061376b565b999c989b50989960600135985050505050505050565b6000806000806000608086880312156137e657600080fd5b6137ef86613225565b94506137fd60208701613225565b935060408601359250606086013567ffffffffffffffff81111561382057600080fd5b61382c8882890161323c565b969995985093965092949392505050565b60008060006060848603121561385257600080fd5b61385b84613225565b925061386960208501613225565b9150604084013590509250925092565b6000806000806080858703121561388f57600080fd5b61389885613225565b93506138a660208601613225565b925060408501356138b68161336f565b9396929550929360600135925050565b600181811c908216806138da57607f821691505b6020821081036138fa57634e487b7160e01b600052602260045260246000fd5b50919050565b8183823760009101908152919050565b60006020828403121561392257600080fd5b5051919050565b81835281816020850137506000828201602090810191909152601f909101601f19169091010190565b61ffff841681526040602082015260006112ef604083018486613929565b634e487b7160e01b600052603260045260246000fd5b634e487b7160e01b600052601160045260246000fd5b80820281158282048414176127d3576127d3613986565b6000826139d057634e487b7160e01b600052601260045260246000fd5b500490565b818103818111156127d3576127d3613986565b8284823760609190911b7fffffffffffffffffffffffffffffffffffffffff000000000000000000000000169101908152601401919050565b601f821115613a6757600081815260208120601f850160051c81016020861015613a485750805b601f850160051c820191505b81811015610de357828155600101613a54565b505050565b815167ffffffffffffffff811115613a8657613a866133f4565b613a9a81613a9484546138c6565b84613a21565b602080601f831160018114613acf5760008415613ab75750858301515b600019600386901b1c1916600185901b178555610de3565b600085815260208120601f198616915b82811015613afe57888601518255948401946001909101908401613adf565b5085821015613b1c5787850151600019600388901b60f8161c191681555b5050505050600190811b01905550565b808201808211156127d3576127d3613986565b600060208284031215613b5157600080fd5b815180151581146127d057600080fd5b600060018201613b7357613b73613986565b5060010190565b600061ffff808816835280871660208401525084604083015260806060830152613ba8608083018486613929565b979650505050505050565b61ffff86168152608060208201526000613bd1608083018688613929565b67ffffffffffffffff94909416604083015250606001529392505050565b67ffffffffffffffff831115613c0757613c076133f4565b613c1b83613c1583546138c6565b83613a21565b6000601f841160018114613c4f5760008515613c375750838201355b600019600387901b1c1916600186901b1783556109f5565b600083815260209020601f19861690835b82811015613c805786850135825560209485019460019092019101613c60565b5086821015613c9d5760001960f88860031b161c19848701351681555b505060018560011b0183555050505050565b600060208284031215613cc157600080fd5b815167ffffffffffffffff811115613cd857600080fd5b8201601f81018413613ce957600080fd5b8051613cf76134e582613464565b818152856020838501011115613d0c57600080fd5b6112ef82602083016020860161356c565b61ffff85168152608060208201526000613d3a6080830186613590565b67ffffffffffffffff851660408401528281036060840152613ba88185613590565b60008060008060008060c08789031215613d7557600080fd5b8651613d808161352d565b8096505060208088015195506040880151613d9a8161336f565b6060890151909550613dab8161336f565b8094505060808089015167ffffffffffffffff811115613dca57600080fd5b8901601f81018b13613ddb57600080fd5b8051613de96134e5826136b4565b81815260079190911b8201840190848101908d831115613e0857600080fd5b928501925b82841015613e5c5784848f031215613e255760008081fd5b613e2d61340a565b845181528685015187820152604080860151908201526060808601519082015282529284019290850190613e0d565b80975050505050505060a087015190509295509295509295565b60008060008060008060c08789031215613e8f57600080fd5b8651613e9a8161352d565b6020880151909650613eab8161336f565b604088015160608901519196509450613ec38161352d565b809350506080870151915060a087015190509295509295509295565b60008251613ef181846020870161356c565b9190910192915050565b61ffff8616815260a060208201526000613f1860a0830187613590565b67ffffffffffffffff861660408401528281036060840152613f3a8186613590565b90508281036080840152613f4e8185613590565b9897505050505050505056fea2646970667358221220f7efd9d56d429a3791ce3dc321503c4f44a2640f9c51def1caef5344ed563a3364736f6c63430008140033",
  "linkReferences": {},
  "deployedLinkReferences": {}
}